:020000040000fa
:10000000f8ff0020e10000008b040000a9040000bc
:1000100000000000000000000000000000000000e0
:100020000000000000000000000000005304000079
:100030000000000000000000530400005304000012
:100040005304000053040000350300005304000073
:100050005304000053040000530400005304000044
:100060005304000053040000530400005304000034
:100070005304000053040000530400005304000024
:100080005304000053040000530400005304000014
:100090005304000053040000530400005304000004
:1000a00053040000530400005304000053040000f4
:1000b00053040000530400005304000053040000e4
:020000040000fa
:1000c000f8b5c046f8bc08bc9e46704799020000cf
:1000d000f8b5c046f8bc08bc9e46704771020000e7
:020000040000fa
:1000e000f8b52a4b1b785bb2002b03db274b1b7840
:1000f0009b0730d5254b1b785b071bd580239b05c1
:100100000025224a01241026a5218c4601272048db
:1001100002e00433834225d01d6091792142f8d05a
:1001200091680e42f5d16146117391793943c9b294
:100130009171eee780239b05002514491024a52624
:10014000134802e0043383420cd01d608a681442d5
:10015000f8d10e73f6e780239b0500210c4a02c3f9
:100160009342fcd10b4b98470b4b984700f0c6f8d5
:100170000a4bff2293430a4a93600a4b98470a4b63
:1001800098470a4b984700f03df9fee700200040f1
:1001900000000120ab040000ab04000000000000e0
:1001a00000ed00e015020000ab040000ab0400000d
:020000040000fa
:1001b000134b5a6852031b68db0c13439b029b0ac8
:1001c000104a936300235375110004228b691a426d
:1001d000fcd10c491022cb681a42fcd0094a137d8d
:1001e00080210b431375084b00229a611a61074b5b
:1001f000074a1a62190004224b681a42fcd1704760
:10020000206080000010004000140040001c0040ee
:0402100006010100e2
:020000040000fa
:1002140000230e4a10b513600d4a13600d4a136093
:100224000d4a13600d4a13600d4a53621361013382
:10023400936000f03af900f038f90a4c0a4b9c42fa
:1002440000d310bd08cc9847f8e7c0467c000020d6
:100254000c00002008000020000000200400002002
:0c02640010000020cc000000d0000000c2
:020000040000fa
:1002700010b5064c2378002b07d1054b002b02d07c
:10028000044800e000bf0123237010bd500000208f
:100290000000000000000000044b10b5002b03d04c
:1002a0000349044800e000bf10bdc0460000000044
:0802b0005400002000000000d2
:020000040000fa
:1002b8000e4b01221a8019000b691a42fcd10b4b14
:1002c8000b4a1a801900802212020b691342fcd1d2
:1002d800064b962292001a62190020220b691a42d4
:1002e800fcd1024b802252005a8170470024004002
:0402f8008087fffffd
:020000040000fa
:1002fc0010b50b480168002905d14368002b02d1c9
:10030c0000f0cef810bd04008368064a9bb20c3492
:10031c009b009b5842682000984780002018e9e712
:08032c0064030000540400000a
:020000040000fa
:1003340010b5084b9a8992b207494a60074a9a81d4
:100344009b890b68002b04d00b00486889681b68e4
:10035400984710bd002400406c000020ff81ffff7f
:020000040000fa
:10036400500000202c0000000000000000000020cd
:1003740050000000000000007c0000200400000089
:1003840000000000000000000000000066666666d1
:020000040000fa
:10039400bff35f8f62b6064bc02080001958054a30
:1003a4001140c02212040a431a5004221a607047f2
:0803b40000e100e0ffff00ff83
:020000040000fa
:1003bc0010b5084b06225a6000f03af8fff7f2fe2f
:1003cc0000f05ef800f017f8fff770fffff7dcffa6
:0803dc0010bdc04600400041c5
:020000040000fa
:1003e400002310b5934206d103201840421e9041c9
:0e03f4009b08c01810bdc45ccc540133f2e766
:020000040000fa
:02040200704741
:020000040000fa
:1004040010b50020fff7d8ff0348002100f042f8a0
:0c04140000f004f8fee7c0467b04000086
:020000040000fa
:10042000054a138802210b431380110002220b6935
:0c0430001a42fcd17047c0460024004076
:020000040000fa
:10043c008223db05802212031a60002253215a54b6
:06044c001a395a547047f2
:020000040000fa
:02045200fee7c3
:020000040000fa
:1004540069040000e5030000a5040000a5040000f1
:04046400a5040000eb
:020000040000fa
:100468008a18914201d10020704700230b70013196
:02047800f7e7a4
:020000040000fa
:10047a00c00504d58223db0580221203da617047a6
:020000040000fa
:02048a00fee78b
:020000040000fa
:0c048c00014b84225a6070470040004180
:020000040000fa
:0c049800014b1860996070476c00002058
:020000040000fa
:0404a400002070477d
:020000040000fa
:0204a800fee76d
:020000040000fa
:0204aa00704799
:020000040000fa
:0204ac00704797
:020000040000fa
:0204ae00704795
:020000040000fa
:0200000400807a
:04400000ff88feb384
:020000040000fa
:0200000400807a
:04400400bbfcffff03
:00000001FF
