:020000040000fa
:10000000f87f0020354e01002d7f0100317f010077
:1000100000000000000000000000000000000000e0
:10002000000000000000000000000000297f010027
:100030000000000000000000297f0100297f01006e
:10004000fd7e0100297f0100e1680100297f010098
:10005000297f0100297f0100e16e0100056f010089
:10006000297f0100297f0100297f0100297f0100ec
:10007000297f0100297f010000000000f92d010007
:10008000712e0100297f0100297f0100297f0100d5
:1000900059770100297f0100297f0100297f010094
:1000a000297f0100297f0100297f0100297f0100ac
:1000b000297f010000000000297f010085ac0000bd
:1000c00085ac000085ac000085ac0000e5bf0000f9
:1000d000e5bf0000e5bf0000e5bf0000c9aa0000c1
:1000e000c9aa0000c9aa0000c9aa0000297f01000e
:1000f000297f0100297f0100297f0100297f01005c
:10010000297f0100297f0100297f0100297f01004b
:10011000297f0100297f0100297f0100297f01003b
:10012000297f0100896b0100297f0100297f0100df
:10013000297f0100297f0100297f0100616d0100f5
:10014000297f0100297f0100297f0100297f01000b
:0c015000297f0100297f0100297f0100a8
:020000040000fa
:10015c00f8b5c046f8bc08bc9e467047495c010027
:10016c00f8b5c046f8bc08bc9e467047255c01003b
:020000040000fa
:10017c009c7b000001000000908100000100000049
:020000040000fa
:10018c000d0a44525620555342205553424653565d
:10019c00313a20496e76616c6964204472697665e7
:1001ac0072204d6f64756c6520496e6465782069aa
:1001bc006e204452565f555342465356315f496e3a
:1001cc00697469616c697a6528292e000d0a44529c
:1001dc00562055534220555342465356313a2044eb
:1001ec00726976657220697320616c7265616479dd
:1001fc0020696e697469616c697a656420696e2026
:10020c004452565f555342465356315f496e69749a
:10021c0069616c697a6528292e0000000d0a445228
:10022c00562055534220555342465356313a20449a
:10023c007269766572206e6f742079657420696eb0
:10024c00697469616c697a656420696e20445256e0
:10025c005f555342465356315f5461736b73282973
:10026c002e0000000d0a555342205553424653565a
:10027c0031204472697665723a204261642044727e
:10028c006976657220496e64657820696e204452e7
:10029c00565f555342465356315f4f70656e282951
:1002ac002e0000000d0a555342205553424653561a
:1002bc0031204472697665723a20447269766572af
:1002cc0020737461747573206e6f74207265616431
:1002dc007920696e204452565f555342465356312d
:1002ec005f4f70656e28292e000000000d0a5553d3
:1002fc0042205553424653563120447269766572fa
:10030c003a20556e737570706f7274656420494f26
:10031c0020496e74656e7420696e204452565f5588
:10032c005342465356315f4f70656e28292e00009c
:10033c000d0a5553422055534246535631204472b0
:10034c00697665723a204472697665722063616ed3
:10035c00206265206f70656e6564206f6e6c79200d
:10036c006f6e63652e204d756c7469706c652063bf
:10037c00616c6c7320746f204452565f5553424627
:10038c005356315f4f70656e28292e000d0a555358
:10039c004220555342465356312044726976657259
:1003ac003a20496e76616c69642064726976657274
:1003bc002068616e646c6520696e204452565f55ee
:1003cc005342465356315f436c6f736528292e0098
:1003dc000d0a555342205553424653563120447210
:1003ec00697665723a204472697665722068616e2e
:1003fc00646c65206e6f74206f70656e6564206927
:10040c006e204452565f555342465356315f436cef
:10041c006f736528292e00000d0a55534220555341
:10042c004246535631204472697665723a20496ec1
:10043c0076616c6964206f626a65637420696e20f2
:10044c004452565f555342465356315f5461736b59
:10045c00735f4953522829000d0a555342205553b6
:10046c004246535631204472697665723a20496e81
:10047c0076616c69642053797374656d2053746173
:10048c0074757320696e204452565f55534246531f
:10049c0056315f5461736b735f49535228290000c6
:1004ac000d0a555342465356312044726976657293
:1004bc003a2057686174206d6f6465206172652005
:1004cc00796f7520747279696e673f000d0a555308
:1004dc004220555342465356312044726976657218
:1004ec003a20496e76616c696420636c69656e7440
:1004fc002068616e646c6520696e204452565f55ad
:10050c005342465356315f436c69656e744576654c
:10051c006e7443616c6c4261636b53657428292e55
:10052c00000000000d0a55534220555342465356c5
:10053c003120446576696365204472697665723a48
:10054c0020556e737570706f7274656420656e647f
:10055c00706f696e7420696e204452565f55534219
:10056c00465356315f4445564943455f456e64706a
:10057c006f696e744973456e61626c656428292ecf
:10058c00000000000d0a5553422055534246535665
:10059c003120446576696365204472697665723ae8
:1005ac00204472697665722048616e646c652069be
:1005bc007320696e76616c696420696e20445256b2
:1005cc005f555342465356315f4445564943455f48
:1005dc00456e64706f696e744973456e61626c65cb
:1005ec006428292e000000000d0a55534220555353
:1005fc0042465356312044657669636520447269de
:10060c007665723a204472697665722048616e6430
:10061c006c6520697320696e76616c696420696e03
:10062c00204452565f555342465356315f4445560b
:10063c004943455f456e64706f696e7449735374ba
:10064c00616c6c656428292e000000000d0a55535e
:10065c0042205553424653563120446576696365b2
:10066c00204472697665723a20556e737570706f9e
:10067c007274656420656e64706f696e7420696e47
:10068c00204452565f555342465356315f444556ab
:10069c004943455f456e64706f696e74456e616267
:1006ac006c6528292e0000000d0a55534220555325
:1006bc00424653563120446576696365204472691d
:1006cc007665723a204472697665722048616e6470
:1006dc006c6520697320696e76616c696420696e43
:1006ec00204452565f555342465356315f4445564b
:1006fc004943455f456e64706f696e74456e616207
:10070c006c6528292e0000000d0a555342205553c4
:10071c0042465356312044657669636520447269bc
:10072c007665723a20496e76616c69642068616ef8
:10073c00646c6520696e204452565f555342465393
:10074c0056315f4445564943455f49525053756293
:10075c006d697428292e00000d0a555342205553fb
:10076c00424653563120446576696365204472696c
:10077c007665723a2044657669636520495250204b
:10078c00697320616c726561647920696e20757380
:10079c006520696e204452565f555342485356317a
:1007ac005f4445564943455f4952505375626d69e4
:1007bc007428292e000000000d0a55534220555371
:1007cc00424853563120446576696365204472690a
:1007dc007665723a20456e64706f696e7420697329
:1007ec00206e6f742070726f766973696f6e6564ba
:1007fc0020666f7220696e204452565f55534248f2
:10080c005356315f4445564943455f4952505375e1
:10081c00626d697428292e000d0a555342205553d8
:10082c0042465356312044657669636520447269ab
:10083c007665723a204d75746578206c6f636b2009
:10084c006661696c656420696e204452565f55532d
:10085c0042465356315f4445564943455f495250d1
:10086c005375626d69742829000000000d0a5553f8
:10087c004220555342465356312044657669636590
:10088c00204472697665723a2044726976657220ea
:10089c0048616e646c6520697320696e76616c6961
:1008ac006420696e204452565f555342465356316c
:1008bc005f4445564943455f4164647265737353a5
:1008cc00657428292e0000000d0a555342205553fb
:1008dc0042465356312044657669636520447269fb
:1008ec007665723a204472697665722048616e644e
:1008fc006c6520697320696e76616c696420696e21
:10090c00204452565f555342465356315f44455628
:10091c004943455f43757272656e745370656564c7
:10092c0047657428292e00000d0a55534220555353
:10093c00424653563120446576696365204472699a
:10094c007665723a204472697665722048616e64ed
:10095c006c6520697320696e76616c696420696ec0
:10096c00204452565f555342465356315f444556c8
:10097c004943455f52656d6f746557616b65757062
:10098c00537461727428292e000000000d0a55530f
:10099c00422055534246535631204465766963656f
:1009ac00204472697665723a2044726976657220c9
:1009bc0048616e646c6520697320696e76616c6940
:1009cc006420696e204452565f555342465356314b
:1009dc005f4445564943455f52656d6f7465576179
:1009ec006b65757053746f7028292e000d0a555362
:1009fc00422055534246535631204465766963650f
:100a0c00204472697665723a204472697665722068
:100a1c0048616e646c6520697320696e76616c69df
:100a2c006420696e204452565f55534246535631ea
:100a3c005f4445564943455f417474616368282996
:100a4c002e0000000d0a5553422055534246535672
:100a5c003120446576696365204472697665723a23
:100a6c00204472697665722048616e646c652069f9
:100a7c007320696e76616c696420696e20445256ed
:100a8c005f555342465356315f4445564943455f83
:100a9c00534f464e756d62657247657428292e005a
:100aac000d0a555342205553424653563120446546
:100abc0076696365204472697665723a204472697e
:100acc007665722048616e646c6520697320696e6e
:100adc0076616c696420696e204452565f555342ae
:100aec00465356315f4445564943455f495250433e
:100afc00616e63656c28292e000000000d0a5553a9
:100b0c0042205553424653563120446576696365fd
:100b1c00204472697665723a2049525020697320dc
:100b2c00696e76616c696420696e204452565f551b
:100b3c005342465356315f4445564943455f4952eb
:100b4c005043616e63656c28292e00000d0a5553c5
:100b5c0042205553424653563120446576696365ad
:100b6c00204472697665723a204d75746578206cf4
:100b7c006f636b206661696c656420696e204452fa
:100b8c00565f555342465356315f4445564943458b
:100b9c005f49525043616e63656c28292e0000003a
:100bac000d0a555342205553424653563120446545
:100bbc0076696365204472697665723a20556e7366
:100bcc007570706f7274656420656e64706f696e99
:100bdc007420696e204452565f5553424653563129
:100bec005f4445564943455f456e64706f696e744a
:100bfc0044697361626c6528292e00000d0a5553f7
:100c0c0042205553424653563120446576696365fc
:100c1c00204472697665723a204472697665722056
:100c2c0048616e646c6520697320696e76616c69cd
:100c3c006420696e204452565f55534246535631d8
:100c4c005f4445564943455f456e64706f696e74e9
:100c5c0044697361626c6528292e00000d0a555396
:100c6c00422055534246535631204465766963659c
:100c7c00204472697665723a204d75746578206ce3
:100c8c006f636b206661696c656420696e204452e9
:100c9c00565f555342465356315f4445564943457a
:100cac005f456e64706f696e7444697361626c65e4
:100cbc00282900000d0a55534220555342465356dd
:100ccc003120446576696365204472697665723ab1
:100cdc00204472697665722048616e646c65206987
:100cec007320696e76616c696420696e204452567b
:100cfc005f555342465356315f4445564943455f11
:100d0c0044657461636828292e0000000d0a555350
:100d1c0042205553424653563120446576696365eb
:100d2c00204472697665723a204d75746578206c32
:100d3c006f636b206661696c656420696e20445238
:100d4c00565f555342465356315f444556494345c9
:100d5c005f44657461636828290000000d0a5553cf
:100d6c00422055534246535631204465766963659b
:100d7c00204472697665723a20556e737570706f87
:100d8c007274656420656e64706f696e7420696e30
:100d9c00204452565f555342465356315f44455694
:100dac004943455f49525043616e63656c416c6cbd
:100dbc0028292e000d0a55534220555342465356ae
:100dcc003120446576696365204472697665723ab0
:100ddc00204472697665722048616e646c65206986
:100dec007320696e76616c696420696e204452567a
:100dfc005f555342465356315f4445564943455f10
:100e0c0049525043616e63656c416c6c28292e000d
:100e1c000d0a5553422055534246535631204465d2
:100e2c0076696365204472697665723a204d7574f3
:100e3c006578206c6f636b206661696c65642069f2
:100e4c006e204452565f555342465356315f4445cb
:100e5c00564943455f49525043616e63656c416c22
:100e6c006c28292e000000000d0a555342205553c2
:100e7c004246535631204465766963652044726955
:100e8c007665723a20556e737570706f7274656406
:100e9c0020656e64706f696e7420696e20445256c2
:100eac005f555342465356315f4445564943455f5f
:100ebc00456e64706f696e745374616c6c436c65d1
:100ecc00617228292e0000000d0a555342205553fb
:100edc0042465356312044657669636520447269f5
:100eec007665723a204472697665722048616e6448
:100efc006c6520697320696e76616c696420696e1b
:100f0c00204452565f555342465356315f44455622
:100f1c004943455f456e64706f696e745374616cc0
:100f2c006c436c65617228292e0000000d0a555324
:100f3c0042205553424653563120446576696365c9
:100f4c00204472697665723a204d75746578206c10
:100f5c006f636b206661696c656420696e20445216
:100f6c00565f555342465356315f444556494345a7
:100f7c005f456e64706f696e745374616c6c282974
:100f8c00000000000d0a555342205553424653565b
:100f9c003120446576696365204472697665723ade
:100fac0020556e737570706f7274656420656e6415
:100fbc00706f696e7420696e204452565f555342af
:100fcc00465356315f4445564943455f456e647000
:100fdc006f696e745374616c6c28292e00000000cc
:100fec000d0a555342205553424653563120446501
:100ffc0076696365204472697665723a2044726939
:10100c007665722048616e646c6520697320696e28
:10101c0076616c696420696e204452565f55534268
:10102c00465356315f4445564943455f456e64709f
:10103c006f696e745374616c6c28292e000000006b
:10104c000d0a5553422055534246535631204465a0
:10105c0076696365204472697665723a20447269d8
:10106c0076657220646f6573206e6f74206861768c
:10107c0065206120636c69656e7420696e20465f23
:10108c004452565f555342465356315f4445564978
:10109c0043455f5461736b735f49535228292e008b
:1010ac000d0a555342205553424653563120446540
:1010bc0076696365204472697665723a2044726978
:1010cc00766572206e656564732061206576656e49
:1010dc00742068616e646c657220696e20465f4492
:1010ec0052565f555342465356315f444556494319
:1010fc00455f5461736b735f49535228292e00006e
:10110c001b5b33313b316d6572726f723a20696ec5
:10111c0076616c69642073656e64207265717565a7
:10112c0073742073746174652068616e646c650af5
:10113c001b5b306d000000001b5b33313b316d6578
:10114c0072726f723a2073656e6420726571756588
:10115c007374207374617465206661696c75726553
:10116c000a1b5b306d0000001b5b33313b316d653e
:10117c0072726f723a20746f6f206d616e7920639a
:10118c006f6d6d616e64730a1b5b306d0000000047
:10119c001b5b33313b316d6572726f723a20736534
:1011ac006e642072657175657374207374617465f7
:1011bc00206661696c7572652c20706f737369623f
:1011cc006c65206e6f2073706163650a1b5b306dfc
:1011dc00000000001b5b33313b316d6572726f7226
:1011ec003a20696e74656765722074797065206d3c
:1011fc0069736d617463682025642076732025649f
:10120c000a1b5b306d0000001b5b33313b316d659d
:10121c0072726f723a20737472696e672f6279748e
:10122c00652074797065206d69736d6174636820d5
:10123c0025642076732025640a1b5b306d0000004a
:10124c001b5b33313b316d6572726f723a20726584
:10125c00616420656c656d656e742073697a6520b8
:10126c006d69736d61746368202564203c2025646e
:10127c000a1b5b306d0000001b5b33313b316d652d
:10128c0072726f723a207265616420656c656d656f
:10129c006e742073697a65206d69736d617463680f
:1012ac0020256420213d2025640a1b5b306d000045
:1012bc001b5b33313b316d6572726f723a207479fe
:1012cc007065206d69736d61746368202564207688
:1012dc00732025640a1b5b306d0000001b5b3331ef
:1012ec003b316d6572726f722c20434d4435322048
:1012fc006d616e75616c20636c6b2077616b6575cd
:10130c00702077726974652c207374617475733de9
:10131c003078253034780a1b5b306d001b5b333121
:10132c003b316d6572726f722c2063736120434d7b
:10133c00443533207772697465206661696c656425
:10134c002c207374617475733d3078253034780ab1
:10135c001b5b306d000000001b5b33313b316d6556
:10136c0072726f722c20434d443532206175746f4c
:10137c0020636c6b2077616b657570207772697474
:10138c00652c207374617475733d30782530347816
:10139c000a1b5b306d0000001b5b33313b316d650c
:1013ac0072726f722c206c656e67746820434d44aa
:1013bc003533207772697465206661696c65642cbd
:1013cc00207374617475733d3078253034780a1b42
:1013dc005b306d001b5b33313b316d6572726f722c
:1013ec002c206d65737361676520434d4435332044
:1013fc007772697465206661696c65642c207374fe
:10140c00617475733d3078253034780a1b5b306d10
:10141c00000000001b5b33313b316d6572726f72e3
:10142c002c20696e746572727570742063686563c4
:10143c006b206661696c65642c20737461747573c0
:10144c003d253032780a1b5b306d00001b5b33315d
:10145c003b316d6572726f722c206d6573736167b1
:10146c006520434d443533207265616420666169a3
:10147c006c65642c207374617475733d3078253001
:10148c0034780a1b5b306d001b5b33313b316d656f
:10149c0072726f722c206e6f2061636b20746f20e0
:1014ac006d6573736167650a1b5b306d000000002e
:1014bc001b5b33313b316d6572726f722c20756e14
:1014cc006b6e6f776e206576656e742074797065bf
:1014dc000a1b5b306d0000001b5b33313b316d65cb
:1014ec0072726f722c20696e7465727275707420d2
:1014fc00636c65617220283078253032782920663b
:10150c0061696c65642c207374617475733d25304e
:10151c0032780a1b5b306d001b5b33313b316d65e0
:10152c0072726f722c20756e68616e646c656420cb
:10153c006576656e74203078253032780a1b5b3006
:10154c006d0000001b5b33313b316d6572726f7245
:10155c002c206d73672825642920434d4435332096
:10156c007772697465206661696c65642c2073748c
:10157c00617475733d3078253034780a1b5b306d9f
:10158c00000000001b5b33313b316d6572726f7272
:10159c002c206c656e67746820434d443533207283
:1015ac00656164206661696c65642c207374617478
:1015bc0075733d3078253034780a1b5b306d000034
:1015cc001b5b33313b316d6572726f722c2072650f
:1015dc006365697665206d657373616765206578f1
:1015ec006365656473206275666665722e2025647a
:1015fc002025642025640a1b5b306d001b5b333196
:10160c003b316d6572726f722c206d736728256487
:10161c002920434d4435332072656164206661692d
:10162c006c65642c207374617475733d307825304f
:10163c0034780a1b5b306d001b5b33313b316d65bd
:10164c0072726f722c2073657175656e6365206e96
:10165c00756d626572206d697373696e672c206598
:10166c007870656374696e6720253034782c206738
:10167c006f7420253034780a1b5b306d000000003d
:10168c001b5b33313b316d6572726f722c20696e4e
:10169c0076616c6964206d6573736167652074791c
:1016ac0070652072656365697665642025640a1b24
:1016bc005b306d001b5b33313b316d6572726f7249
:1016cc002c20756e6b6e6f776e206576656e742050
:1016dc00747970652025640a1b5b306d0000000076
:1016ec001b5b33313b316d6572726f722c206661fe
:1016fc00696c656420746f20616c6c6f63617465d8
:10170c0020736c6162206f66202564206279746599
:10171c00730d0a1b5b306d001b5b33313b316d6508
:10172c0072726f723a206661696c656420746f2006
:10173c00616c6c6f63617465207265637620627591
:10174c00666665720d0a1b5b306d00001b5b3331e6
:10175c003b316d6572726f723a206661696c6564bb
:10176c0020746f20616c6c6f636174652073656e9f
:10177c0064206275666665720d0a1b5b306d000035
:10178c001b5b33313b316d6572726f723a2066614f
:10179c00696c656420746f20616c6c6f6361746537
:1017ac002072656376207061636b65742062756668
:1017bc006665720d0a1b5b306d0000001b5b3331dc
:1017cc003b316d6572726f723a20736f636b657427
:1017dc0020777269746520636f6d6d616e64207221
:1017ec0065717565737420696e697469616c697370
:1017fc006174696f6e206661696c65640d0a1b5bb0
:10180c00306d00001b5b33313b316d6572726f7252
:10181c003a20736f636b657420777269746520630b
:10182c006f6d6d616e642072657175657374207473
:10183c0072616e6d697373696f6e206661696c6538
:10184c00640d0a1b5b306d001b5b33313b316d65e6
:10185c0072726f723a20756e6b6e6f776e20616468
:10186c006472657373207479706520282564290d62
:10187c000a1b5b306d0000001b5b33313b316d4547
:10188c0072726f722c206c656e677468206d697350
:10189c006d617463682025642076732025640d0abd
:1018ac001b5b306d000000001b5b33313b316d6501
:1018bc0072726f723a206e6f20616c6c6f63617420
:1018cc006564207061636b65742062756666657211
:1018dc00730d0a1b5b306d001b5b33313b316d6547
:1018ec0072726f723a207061636b657420627566f8
:1018fc00666572732066756c6c0d0a1b5b306d002f
:10190c001b5b33313b316d6572726f723a206661cd
:10191c00696c656420746f20777269746520746fcc
:10192c002072656365697665206275666665720d01
:10193c000a1b5b306d0000001b5b33313b316d6566
:10194c0072726f723a206e6f206672656520736fcb
:10195c00636b6574730d0a1b5b306d001b5b33315d
:10196c003b316d6572726f723a206661696c6564a9
:10197c0020746f20637265617465206e65772072c8
:10198c0065636569766520736f636b65740d0a1bff
:10199c005b306d001b5b33313b316d6572726f7266
:1019ac003a20616464726573732074797065206d7c
:1019bc0069736d617463682028256420213d20259e
:1019cc0064290d0a1b5b306d000000001b5b33317a
:1019dc003b316d6572726f723a20756e61626c6527
:1019ec0020746f2066696e64206c697374656e690f
:1019fc006e6720736f636b65740d0a1b5b306d0033
:101a0c0025642e25642e25642e25640025783a2520
:101a1c00783a25783a25783a25783a25783a25780f
:101a2c003a25780025783a25783a25783a25783a77
:101a3c0025783a25783a25642e25642e25642e25a2
:101a4c00640000003a3000004346472049442025fa
:101a5c0064206e6f742068616e646c65640d0a009e
:101a6c004449204944202564206e6f742068616ebf
:101a7c00646c65640d0a00004e564d4320494420a9
:101a8c002564206e6f742068616e646c65640d0a49
:101a9c0000000000526563656976652062756666b4
:101aac00657220616c6c6f636174696f6e20666126
:101abc00696c65640d0a00004661696c656420748c
:101acc006f20696e697469616c6973652057494e42
:101adc0043206465766963650d0a00004661696c94
:101aec00656420746f20696e697469616c697365d3
:101afc002057494e4320736f636b6574730d0a0056
:101b0c004661696c656420746f207365742062751e
:101b1c00732073746174650d0a00000057494e43bd
:101b2c003a2052657365740d0a00000057494e4304
:101b3c003a20496e697469616c697a696e672e2ef8
:101b4c002e000000636f6d706c6574650d0a0000eb
:101b5c006661696c65642072657365740d0a0000ba
:101b6c006661696c6564206f700d0a00726573653f
:101b7c00742074696d6564206f75740d0a00000023
:101b8c0057494e43206576656e7420757064617498
:101b9c0065206661696c65642c207265736574746c
:101bac00696e670d0a0000005753434e43204944a9
:101bbc00202564206e6f742068616e646c65640d02
:101bcc000a0000005363616e20506172616d733abc
:101bdc002025642025642025642025640d0a00003e
:101bec004543445341206375727665204944202552
:101bfc0064206e6f742068616e646c65640d0a00fd
:101c0c0045585443525950544f2041454343422068
:101c1c004f702074797065202564206e6f74206875
:101c2c00616e646c65640d0a000000004d515454e3
:101c3c002041454343422070726f70657274792065
:101c4c002564206e6f742068616e646c65640d0a87
:101c5c00000000004e455449464320494420256469
:101c6c00206e6f742068616e646c65640d0a0000f0
:101c7c00534e545020414543434220737461747554
:101c8c0073202564206e6f742068616e646c6564cb
:101c9c000d0a00004a4f494e3a204173736f636935
:101cac006174696f6e20666f756e6420666f72204a
:101cbc006e657720636f6e6e656374696f6e0d0a67
:101ccc00000000004a4f494e3a204e657720617360
:101cdc00736f63696174696f6e206661696c6564aa
:101cec000d0a00004a4f494e3a204e6f2061737323
:101cfc006f63696174696f6e20666f756e640d0a2f
:101d0c0000000000574946494320436f657820493d
:101d1c0044202564206e6f742068616e646c656469
:101d2c000d0a000057494649432049442852737014
:101d3c0029202564206e6f742068616e646c656464
:101d4c000d0a000050505320414543434220494462
:101d5c002025303478206576656e7420756e686148
:101d6c006e646c65640d0a004f5441204145434339
:101d7c004220737461747573202564206e6f742017
:101d8c0068616e646c65640d0a0000005b4d515413
:101d9c00545d3a4d51545420636f6e6e6563746993
:101dac006e672e2e2e2e2e0d0a0000005b4d515408
:101dbc00545d3a4d51545420646973636f6e6e6573
:101dcc006374696e672e2e2e2e2e0d0a00000000f5
:101ddc005b4d5154545d3a4d51545420636f6e6eab
:101dec006563742073746174757320756e6b6e6f9c
:101dfc00776e2e0d0a0000005b4d5154545d3a4530
:101e0c0052524f52203a20556e6b6e6f776e204daa
:101e1c00515454205365727669636520526571750f
:101e2c006573740d0a0000005b4e45545d3a4552d3
:101e3c00524f52203a204e65742043616c6c6261a3
:101e4c00636b204e554c4c005b4e45545d3a4552ed
:101e5c00524f523a20536f636b6574206572726fe8
:101e6c00722025642066726f6d206576656e742015
:101e7c0025640d0a000000005b4e45545d3a736505
:101e8c0074736f636b6f707420544c5320535543b1
:101e9c00434553530d0a00005b4e45545d3a736540
:101eac0074736f636b6f707420544c5320464149ac
:101ebc004c206572726e6f203a2025640d0a00006a
:101ecc005b4e45545d3a4552524f523a2046616939
:101edc006c656420746f2062696e6420736f636b31
:101eec0065740d0a000000005b4e45545d3a736545
:101efc0074736f636b6f7074205355434345535326
:101f0c000d0a00005b4e45545d3a736574736f6344
:101f1c006b6f7074204641494c20206572726e6f55
:101f2c00203a2025640d0a005b4e45545d3a45521b
:101f3c00524f523a204661696c656420746f20637d
:101f4c006f6e6e65637420746f20746865207365a2
:101f5c0072766572210d0a005b4e45545d3a536fe3
:101f6c00636b6574204c697374656e696e672e2e95
:101f7c002e2e2e2e0d0a00005b4e45545d3a416309
:101f8c0063657074206572726f72210d0a00000017
:101f9c005b4e45545d3a4552524f523a20434944a8
:101fac00207461626c652066756c6c2c20636c6fa0
:101fbc0073696e6720616363657074656420736f09
:101fcc00636b65740d0a00005b4e45545d3a5749ce
:101fdc004e435f534f434b45545f4556454e545ffc
:101fec00544c535f434f4e4e4543540d0a00000072
:101ffc005b4e45545d3a4552524f52203a20556e35
:10200c006b6e6f776e204e657420536572766963c4
:10201c006520526571756573740d0a005b574946ee
:10202c00495d3a5359535f57494e43535f5749469d
:10203c00495f436f6e6e6563744e6f746966794366
:10204c00616c6c6261636b203a2063757272656eb1
:10205c007453746174652025640d0a005b574946fe
:10206c00495d3a444e53207265736f6c766520540b
:10207c00696d65204f757420282564290d0a0000b0
:10208c005b574946495d3a444e53207265736f6cf9
:10209c007665204572726f7220282564290d0a001e
:1020ac005b574946495d3a444e53207265736f6cd9
:1020bc0076652074797065206572726f72202825a0
:1020cc0064290d0a000000005b574946495d3a41fe
:1020dc0073736f63696174696f6e20737461746577
:1020ec0020697320636f6e6e65637465640d0a00fe
:1020fc005b574946495d3a57696669205374617468
:10210c0065203a3a20434f4e4e4543544544203abd
:10211c003a204d4143203a20253032583a2530326e
:10212c00583a253032583a253032583a2530325800
:10213c003a253032580d0a005b574946495d3a4101
:10214c0073736f63696174696f6e20737461746506
:10215c0020697320636f6e6e656374696e672e2ed3
:10216c002e2e2e2e0d0a00005b574946495d3a4132
:10217c0073736f63696174696f6e207374617465d6
:10218c0020697320636f6e6e656374696f6e206671
:10219c0061696c65642e200d0a0000005b5749468e
:1021ac00495d3a4173736f63696174696f6e207333
:1021bc007461746520697320646973636f6e6e65f6
:1021cc00637465642e200d0a000000005b574946bd
:1021dc00495d3a4173736f63696174696f6e207303
:1021ec007461746520697320726f616d65642e2053
:1021fc000d0a000066653830000000005b57494648
:10220c00495d3a204e6574776f726b20696e746508
:10221c0072666163652075702e200d0a0000000047
:10222c0054696d6520555443203a2025640d0a00ed
:10223c0054696d653a20253032643a253032643a5f
:10224c0025303264206f6620253032642f253032e1
:10225c00642f253032640d0a000000005b5749469c
:10226c00495d3a4e6f20415020466f756e64205286
:10227c00657363616e0d0a005b574946495d3a23ed
:10228c00253032640d0a00005b574946495d3a3ee1
:10229c003e232020524920205265636f6d6d656e80
:1022ac0064204348204253534944202020202020be
:1022bc0020202020202020535349440d0a000000e8
:1022cc005b574946495d3a3e3e2320202020202082
:1022dc004175746820547970650d0a3e3e230d0ad1
:1022ec000000000041637469766500005b57494645
:1022fc00495d3a4e6f20526567756c61746f7279e7
:10230c0020446f6d61696e7320446566696e656407
:10231c000d0a00004552524f52212121203a2046ed
:10232c00756e6374696f6e2025732c204c696e6515
:10233c00204e6f203a2025642c20537461747573e1
:10234c00203a2025640d0a005b574946495d3a2323
:10235c002e20202043432020202020204368616e23
:10236c006e656c7320566572205374617475730db1
:10237c000a0000005b574946495d3a253032643a01
:10238c00205b252d36735d20307825302d36782056
:10239c0025642e25642025730d0a00005b574946e1
:1023ac00495d3a444f4e45200d0a00005b574946a3
:1023bc00495d3a4552524f52203a20447269766533
:1023cc00722048616e646c6520496e76616c69643c
:1023dc000d0a00005b574946495d3a5b4552524f26
:1023ec00525d203a20494e56414c49445f5041526f
:1023fc00414d4554455220666f7220415554484515
:10240c004e5449434154494f4e0d0a005b574946bf
:10241c00495d3a5b574946495d203a20436f6e6ee1
:10242c00656374696e6720746f204150203a2025d3
:10243c00730d0a005b574946495d3a4552524f525b
:10244c00203a20556e6b6e6f776e20576966692047
:10245c005365727669636520526571756573740d89
:10246c000a0000000d0a55534220446576696365e5
:10247c00204c617965723a20436f6e74726f6c20d8
:10248c007472616e736665722048616e646c6572fd
:10249c00206973204e554c4c000000000d0a55531a
:1024ac004220446576696365204c617965723a20f7
:1024bc00496e76616c696420696e7374616e6365d4
:1024cc00496e6465782076616c7565000d0a55530c
:1024dc004220446576696365204c617965723a20c7
:1024ec00496e697469616c697a6174696f6e206494
:1024fc00617461206973204e554c4c000d0a555384
:10250c004220446576696365204c617965723a2096
:10251c00555342204d617374657220446573637228
:10252c006970746f72207461626c65206973204edf
:10253c00554c4c000d0a5553422044657669636531
:10254c00204c617965723a20496e76616c69642021
:10255c0068616e646c6500000d0a55534220446539
:10256c0076696365204c617965723a20496e7661b3
:10257c006c69642053797374656d204d6f64756c50
:10258c0065204f626a656374000000000d0a5553a4
:10259c004220446576696365204c617965723a2006
:1025ac0053797374656d204d6f64756c65204f6243
:1025bc006a65637420697320696e76616c69640066
:1025cc000d0a55534220446576696365204c617948
:1025dc0065723a20696e7374616e6365496e6465e9
:1025ec007820697320696e76616c69640000000064
:1025fc000d0a55534220446576696365204c617918
:10260c0065723a20446576696365204c6179657220
:10261c00206973206e6f7420726561647920746f09
:10262c00206265206f70656e656400000d0a55535d
:10263c004220446576696365204c617965723a2065
:10264c004e6f206672656520636c69656e74206fd1
:10265c00626a6563747300000d0a55534220446529
:10266c0076696365204c617965723a20496e7661b2
:10267c006c696420636c69656e742068616e646c4f
:10268c00650000000d0a5553422044657669636568
:10269c00204c617965723a20496e76616c696420d0
:1026ac0048616e646c6500000d0a55534220446508
:1026bc0076696365204c617965723a20496e766162
:1026cc006c696420436c69656e742048616e646c3f
:1026dc00650000000d0a5553422044657669636518
:1026ec00204c617965723a20496e76616c69642080
:1026fc00706f696e74657220746f20636f6e66699b
:10270c006775726174696f6e20646573637269704a
:10271c00746f72000d0a55534220446576696365e7
:10272c00204c617965723a2048696768207370653e
:10273c00656420646576696365206465736372699a
:10274c0070746f72206973204e554c4c0000000061
:10275c000d0a55534220446576696365204c6179b6
:10276c0065723a2046756c6c2f4c6f7720737065d0
:10277c00656420646576696365206465736372695a
:10278c0070746f72206973204e554c4c0000000021
:10279c000d0a55534220446576696365204c617976
:1027ac0065723a20556e6b6e6f776e20436f6e7448
:1027bc00726f6c205472616e736665722072656301
:1027cc0065697665642066726f6d20486f7374005e
:1027dc0055534220446576696365204344433a204f
:1027ec00496e76616c696420696e646578000000de
:1027fc0055534220446576696365204344433a202f
:10280c00496e76616c696420696e74657266616389
:10281c00652070726573656e74656420746f2043f7
:10282c004443200055534220446576696365204338
:10283c0044433a2043616e6e6f742068616e646c21
:10284c0065207468697320656e64706f696e74209e
:10285c007479706500000000555342204465766918
:10286c006365204344433a20496e76616c69642069
:10287c0043444320696e6465780000005553422040
:10288c00446576696365204344433a20496e76611a
:10289c006c696420696e7374616e6365000000007e
:1028ac005b4150505d203a204d5154542052583abf
:1028bc002046726f6d20546f706963203a20257327
:1028cc00203b204d7367202d3e2025730d0a000000
:1028dc004d61745f6e6574004f4b30313330406a1c
:1028ec00756c79303732300031302e302e312e333a
:1028fc00310000005a50520041646d696e000000b6
:10290c004f6472794033303034303300256c5825a5
:10291c006c58256c58256c583b252e32663b25751a
:10292c003b252e32663b252e32663b252e32660029
:10293c005a50522f53656e736f7200003136322e1f
:10294c003135392e3230302e3132330057494e4327
:10295c005330325f4452495645525f5354415445ab
:10296c005f4d5154545f434f4e4e4543540d0a0036
:10297c0057494e435330325f4452495645525f5388
:10298c00544154455f574149545f464f525f4d5136
:10299c0054545f434f4e4e4543540d0a0000000003
:1029ac0057494e435330325f4452495645525f5358
:1029bc00544154455f5345545f4d5154545f5055e9
:1029cc00424c4953485f5041594c4f41440d0a0009
:1029dc0057494e435330325f4452495645525f5328
:1029ec00544154455f4d5154545f5055424c4953da
:1029fc00480d0a0057494e435330325f44524956f2
:102a0c0045525f53544154455f574149545f464fbb
:102a1c00525f5055424c4953480d0a0054696d653c
:102a2c003a20256c640d0a0052657365742072653a
:102a3c0061736f6e3a2025730d0a0000506f776535
:102a4c0072204f6e20526573657400004e6f6e6578
:102a5c000000000042726f776e204f757420564450
:102a6c0044434f5245204465746563746f72205221
:102a7c00657365740000000042726f776e204f75ad
:102a8c0074205644442f4156444420446574656375
:102a9c00746f7220526573657400000042726f7718
:102aac006e204f757420564444504c4c2044657431
:102abc006563746f72205265736574004578746534
:102acc00726e616c2052657365740000576174639b
:102adc0068646f6720526573657400005379737472
:102aec00656d2052657365742052657175657374dc
:102afc00000000004261747465727920766f6c740a
:102b0c006167653a20252e326620560d0a414443f2
:102b1c00207261772076616c75653a2025750d0af7
:102b2c0053544154312070696e2073746174757301
:102b3c003a2025750d0a53544154322070696e2089
:102b4c007374617475733a2025750d0a00000000ca
:102b5c0054656d70657261747572653a20252e32fc
:102b6c006620b0430d0a54656d70657261747572a0
:102b7c00653a20252e326620b0460d0a48756d69df
:102b8c00646974793a20252e32662025250d0a00b9
:102b9c004d43552073657269616c206e756d62656d
:102bac00723a20256c58256c58256c58256c580d9c
:102bbc000a46572076657273696f6e3a20252e325d
:042bcc00660d0a0088
:020000040000fa
:102bd000f0b54546de4657464e46e0b5437805001b
:102be00083b0002b00d100e2866b002e00d132e2d0
:102bf00040f20023446aa28b134203d0228b13427b
:102c000000d0a38340f20013a28b134203d0228b87
:102c1000134200d0a3838023a28b134203d0228bc4
:102c2000134200d0a3834023a28b134203d0228bf4
:102c3000134200d0a3832023a28b134203d0228b04
:102c4000134200d0a3830123a28b13420bd0228b0b
:102c5000134208d0a383a3820f33a383002204214d
:102c6000686b2383b0471023a28b13420cd0228bb6
:102c7000134209d0a383a3820f3ba38300222383a3
:102c80000321686bab6b98470423a28b134208d0d7
:102c9000228b134205d0a38300220721686bab6b04
:102ca00098470823a28b134203d0228b134200d0f3
:102cb000b3e140f207171026e35d1e4236d040f222
:102cc0000913e35c1e4231d06b6c022298464146e8
:102cd000db799343cb71cb7b9343cb730b689946e2
:102ce000002b00d114e20822296d186814f09cfe14
:102cf00040f204134022e655e2544b461968cb7962
:102d00008a791b0213430722002b00d006e22123fd
:102d1000ea544a461f3b1372063353609369424696
:102d200013604b46db680bb14846984740f20712e8
:102d30000223a15c0b4238d040f20911615c0b42c6
:102d400033d0696c8e6886b340f2210948462f5c07
:102d5000082f00d12de2376a002f00d1f8e18b89ce
:102d6000984699469f4202d8bbb29846b9467368c6
:102d70003168db1bc9184a46286e14f055fe4a46d6
:102d8000336a41469b1a33626b6e9b0b9b036b66e7
:102d900043f6ff736a6e0b4013436b66022240f2e8
:102da0000713e254023b7e32e25440f20712012341
:102db000a15c0b4200d083e001260127238cf34065
:102dc0001f4279d073019946a046c84443460a334e
:102dd000ff331b7840f20712dbb2009343469b5c43
:102de000dbb201930823009801990b4215d00342ee
:102df00013d0494640f26a0a69188a445146087855
:102e0000844602206146084207d051460978814332
:102e100008005146087041468b5402230099019adc
:102e2000134249d00b4247d02b00b20044339b5889
:102e300098689a4600283fd0036a002b00d017e11b
:102e400080221100036919401a4200d06ee15246f7
:102e5000836901729360c26812b1904753469b68c0
:102e6000002b00d1e0e151461a6a89898b468a46d7
:102e70008a4202d891b28b4692465968891a8c468a
:102e800019688c4449466046691808665046121a0b
:102e90001a624b6e58469b0b9b034b6643f6ff73bf
:102ea0004a6e034013434b660a2240f20713414621
:102eb000ca54023b7632ca54012e41d102267de724
:102ec00040f20911615c0b4200d175e721216f6c62
:102ed000685c3e68052800d159e1002e00d182e1ee
:102ee00043f6ff726b6d1a4090464146336a726832
:102ef0005918914202d9d21a92b29046306842468d
:102f0000c018296d14f090fd336a7268434433622f
:102f1000934200d230e10022327207212122a954cb
:102f2000e6320639a154033a3f31a154b2693a60fe
:102f30007360f368002b00d13ee7300098473be711
:102f400001260127238cf3401f424ad07301994682
:102f5000a046c84443460a33ff331b784246dbb2df
:102f6000009340f20713d35cdbb20193019b5b0734
:102f70000bd54b460222eb185a3319780a423fd13f
:102f800040f2071304224146ca54009a019b1f4293
:102f900027d0174225d02b00b20044339b58186825
:102fa0009a46f0b1ac46cc44634643f6ff725b6d83
:102fb00041681a40036ad31803628b4200d387e04a
:102fc00051468988914200d9c0e002684146d31831
:102fd0006246136540f207130522ca54033b3b3295
:102fe000ca54012e05d10226ace714f0d9fe0228fe
:102ff0000ad803b0f0bcbb46b246a946a046f0bd15
:10300000197891431970bbe714f0c4fe41f24c01ea
:10301000c0f2000113f010feebe700221933ea546e
:1030200047f60472237bc0f201021b079b0fd25ca0
:10303000280030230021ea545030602214f0fefcb6
:10304000ab6b1bb100220221686b98478023a372ef
:10305000783ba3832de614f0a3fe0228c9d914f00f
:1030600099fe41f2ac01c0f2000113f0e5fdc0e7aa
:103070005246928993469246934202d89ab2934618
:103080009a464268d21a9446026894444a46614677
:10309000aa18116651465b1a0362536e59469b0b80
:1030a0009b03536643f6ff73506e0b400343536616
:1030b000414640f207130a22ca544b46e3180a332a
:1030c000ff33083a1a7040f205137e32ca54f3e611
:1030d00000225146027282690a604360c36813b1dc
:1030e000984753461a68002a72d04b461268eb186c
:1030f0001a654146052240f20713ca544b46e318ad
:103100000a33ff331a7040f204133b32ca5468e7a3
:1031100021230122ea54e733e65407e67f230a78a5
:1031200093429b4104221a400232f0e5934303612b
:103130004b46e9184b6e40469b0b9b034b6640f297
:1031400007130a21c154023bc254b5e60122c0e76d
:1031500040f2800c6046376938408046604638420d
:1031600047d0696e8743890b890337616966a35429
:1031700040f20513e05418e6ba8842454cd840f2b4
:1031800004134022e25403333f3ae25414e6002e83
:1031900044d0002030726854a3540433ff33c73a3c
:1031a000e254b3693b60f3687060002b00d0c4e662
:1031b00002e600232b54b26933728a607360f368ad
:1031c0000bb13000984740f207130222e254ece5bd
:1031d0004b460522e3180933ff331a70414640f28b
:1031e0000713ca54fde603226a540632ff32a35481
:1031f000e2e505234a46ab5443463372b3698b601c
:10320000f3680bb13000984740f207130222e254f2
:10321000033b3e32e254c8e501227de604226a54b3
:103220000532ff32a354c7e54b460a22e31809339f
:10323000ff331a70414640f20713ca543ce6c046b9
:020000040000fa
:1032400070b50c0082b0152800d9afe2d24b8000d7
:103250001b589f4644f64413c2f200035a681b6889
:103260004a600b60002042e044f64413c2f20003bf
:10327000002059603be044f68c13c2f2000318684a
:103280000b78002b00d199e2012111f069fa002896
:10329000e8d00a2800d186e20f2800d183e240f26c
:1032a0002e43009016e044f68c1341f24d02c2f218
:1032b000000302211868c0f201020ef017f900287d
:1032c000d0d00a2800d16ee20f2800d16be240f284
:1032d0001f43009047f2d06242f220310020c0f23a
:1032e0000102c0f2000110f00ffb0120404202b0c9
:1032f00070bd002900d185e2080014f0c5f944f63c
:103300008c13c2f20003c2b2186846f2cd3321001a
:10331000c0f201030df0eafd0028a3d00a2800d175
:1033200041e20f2800d13ee240f218430090d1e77d
:1033300044f68c13c2f20003186841f23563c0f200
:1033400001030a0000930121642312f0ebff00281f
:1033500000d187e70a2800d125e20f2800d122e218
:1033600040f246430090b5e714f0b8fd42f66a43d8
:103370000022c2f200031a7014f0b4fd44f68c135c
:10338000c2f20003186843f6c563c0f20103217856
:1033900001220093002309f031fb002800d161e7ee
:1033a0000a2800d1ffe10f2800d1fce140f20b43d5
:1033b00000908fe714f092fd44f68c1542f66a43b4
:1033c0000026c2f20003c2f200051e7014f08afd4e
:1033d000638828680022002100960bf03bfa002841
:1033e00000d007e243f6c563c0f2010321782868e4
:1033f00000220093002309f001fb002800d131e7ef
:103400000a2800d1cfe10f2800d1cce140f20043df
:1034100000905fe744f68c03621e9441c2f2000301
:1034200000201c7463e744f68c1443f25941c2f245
:1034300000042068c0f2010113f03afe002800d019
:10344000c0e145f26903c0f2010344f23c4244f298
:10345000c0612068009344f68c03c2f20002c2f2fd
:103460000003c2f2000105f031fc002800d1f9e6aa
:103470000a2800d197e10f2800d194e140f2b5333a
:10348000009027e7486814f0fff8050044f2c06098
:10349000c2f2000013f03cfc002800d019e144f215
:1034a0003c40c2f2000013f0a5ff002800d010e15c
:1034b00044f2c0606168eab2c2f2000011f0c6f8de
:1034c000002800d005e1237b052b00d962e1334ab7
:1034d0009b00d3589f4644f68c15c2f2000528681d
:1034e00010f084fb002800d074e10121286811f05d
:1034f0001dfa002800d08ae100220121286810f07e
:103500009bfe002800d1ade60a2800d14be10f2830
:1035100000d148e140f2a7330090dbe644f68c137b
:1035200042f6e961c2f200031868c0f2010111f02d
:103530004bfd002800d195e60a2800d133e10f2881
:1035400000d130e140f294330090c3e644f68c138e
:10355000c2f200031b6800200b60c8e644f68c151d
:10356000c2f200052868431c00d18be020600020d7
:10357000bde600230b7044f29873c2f20003d868d2
:1035800013f02aff20700020b1e644f64413c2f283
:10359000000300201960aae6c834010020350100ac
:1035a00044f2c0600978c2f2000012f0fbfb002870
:1035b00000d157e60a2800d1f5e00f2800d1f2e04b
:1035c00040f2d133009085e644f68c14c2f2000438
:1035d000206811f033fb002800d003e10023002213
:1035e0000021206810f0b8f8002800d13ae60a2837
:1035f00000d1d8e00f2800d1d5e040f2c9330090c7
:1036000068e644f68c13c2f20003186841f65913b9
:10361000c0f2010344f23c4244f2c061009344f61c
:103620008c03c2f20002c2f20003c2f2000105f0f4
:103630007dff002800d115e60a2800d1b3e00f284d
:1036400000d1b0e040f2ef33009043e644f68c1333
:10365000c2f20003186811f01bfb002800d101e63c
:103660000a2800d19fe00f2800d19ce040f2bc3333
:1036700000902fe644f2c060c2f2000010f036f86d
:10368000002034e60021002010f050fc2860431c8c
:1036900000d06be742f2b8310020c0f2000110f018
:1036a00033f9002023e6a568280013f0edffc2b22d
:1036b00044f23c4005232900c2f200000ff0eef96d
:1036c0002378002b00d0aae0637bdbbb002800d16d
:1036d000c8e50a2867d00f2865d040f2e83300908b
:1036e000f8e5a568280013f0cfffc2b244f23c40d1
:1036f00002232900c2f200000ff0d0f9e0e744f203
:103700003c40c2f2000014f0e5f9d9e7a5682800b2
:1037100013f0baffc2b244f23c4004232900c2f2c3
:1037200000000ff0bbf9cbe7a568280013f0acff51
:10373000c2b244f23c4003232900c2f200000ff061
:10374000adf9bde744f68c1543f25941c2f20005cc
:103750002868c0f2010113f0abfc42f21841626824
:103760000020c0f2000110f0cff845f26903c0f26a
:103770000103009344f23c4244f68c0344f2c061de
:103780002868c2f20003c2f20002c2f2000105f092
:103790009dfa9be742f2e0310020c0f2000110f0f8
:1037a000b3f80020a3e504204042a0e542f24041e6
:1037b0000020c0f2000110f0a7f896e5002110f0fb
:1037c000cfff64e50a28eed00f28ecd040f2b133e9
:1037d00000907fe50a28e6d00f28e4d040f29d3320
:1037e000009077e50a28ded00f28dcd040f2c53300
:1037f00000906fe50a28d6d00f28d4d040f2fb33d2
:10380000009067e50223009340f2134362e50a2823
:10381000c9d00f28c7d040f2a33300905ae5012b3e
:1038200000d053e744f2c060a17bc2f2000012f066
:10383000b9fa002800d04ce744f68c05c2f2000526
:10384000280013f045fce37b00202b744fe5c046b5
:020000040000fa
:10385000f0b5c6460123040000b58eb00d005b42f2
:10386000022002a90293fff7ebfc0d2c18d8d04bd5
:10387000a4001b599f4644f66313c2f20003197853
:10388000029813f059fa47f27c5140f20b420020a3
:10389000c0f2010112f0dcfe0eb080bcb846f0bdf3
:1038a00041f6fc710020c0f2000110f02df801205b
:1038b0004042f1e76a68002a00d13ae144f6631118
:1038c000c2f200012b78097802980df0f5ff00286c
:1038d00000d12ee147f27c5140f21742c0f20101c3
:1038e00012f0b6fed8e7002de1d0286807a90cf049
:1038f0009bfd0028dbd0686803a90cf095fd00282b
:10390000d5d01823012200930021029807ab0df0b7
:1039100033ff002800d021e20021029803aa10f012
:10392000c3fe002800d027e246f611130122002131
:103930000298c0f201030ff00fff002800d024e22c
:1039400047f27c5140f2d832c0f20101002012f05f
:103950007ffea1e700230022002102980ff0fcfe69
:1039600047f27c5140f2df32c0f2010112f070feea
:1039700092e745f2c5010298c0f2000113f09efae9
:1039800003ab984600234246039353609360d36091
:10399000287b444244410f2364429c436b7820348b
:1039a000022b00d140e1012b00d121e12a78012a2c
:1039b00000d136e1002a00d116e1022a00d12fe120
:1039c0006a7b6968042a00d13fe1002900d174e1d3
:1039d0004246062005f08cff012800d02be16b78d1
:1039e000022b00d1a7e1012b00d1b0e147f6c4269c
:1039f000c0f20106039a33689a4200d1fce0012329
:103a0000688807af002b00d04be106333b8014f0f1
:103a100055fa09ab788007ce07c332681a602b7855
:103a2000a868012b05d0002b00d155e1022b00d056
:103a3000fee03b00002221000df00cfc002800d12c
:103a400051e147f27c5140f2ea32c0f2010100201c
:103a500012f0fefd20e700222c68564b197919b1af
:103a600019688c4200d143e101324c330a2af5d166
:103a7000022120000cf018fc002800d108e147f2d8
:103a80007c5140f2f732c0f20101002012f0e0fd5b
:103a900002e744f63c1347f27c51c2f2000340f2c5
:103aa0004642c0f2010100201d6012f0d1fdf3e694
:103ab00044f6881347f27c51c2f2000340f24d42b3
:103ac000c0f2010100201d6012f0c2fde4e644f6e0
:103ad0003c1347f27c51c2f200031b6840f256428d
:103ae0002b60c0f20101002012f0b2fdd4e6029872
:103af00012f078f944f6631347f27c51c2f20003e6
:103b0000187040f2fe32c0f20101002012f0a0fd58
:103b1000c2e644f6631347f27c51c2f200031b78fd
:103b200040f204422b70c0f20101002012f090fd1f
:103b3000b2e6aa688ab144f66313c2f200031978a8
:103b400002980ef0a9fc40b147f27c5140f22042ad
:103b5000c0f2010112f07cfd9ee6ea689ab12b6981
:103b60008bb144f66311c2f20001097802980cf09f
:103b70007df840b147f27c5140f22942c0f2010188
:103b800012f066fd88e66a69b2b144f66313c2f2c8
:103b90000003197802980ef061fa68b147f27c517f
:103ba00040f23242c0f2010112f052fd74e6c0460a
:103bb0005c630100ec330020aa695ab144f663113a
:103bc000c2f200012b7f097802980cf04dfd00280d
:103bd00000d0b3e047f27c5140f23f42c0f2010115
:103be000002012f035fd57e602221443e4b2e7e666
:103bf00008221443e4b2d9e643465a6873689a42ed
:103c000000d0fce643469a68b3689a4200d0f6e6d4
:103c10004346da68f3689a4200d0f0e60023efe604
:103c200040221443e4b2cbe604221443e4b2bde6de
:103c300002210cf039fb47f27c5140f2e832c0f22d
:103c40000101022012f004fd26e600295dd0424663
:103c5000042005f04dfe0128edd16b78022b00d138
:103c600085e0012b0cd0039b6888002b52d00423e5
:103c700007af3b8014f022f9039b78807b60cee68f
:103c800011220121042008f09dfc039ba860ebe7b2
:103c900047f27c5140f2f532c0f2010112f0d8fc3b
:103ca000fae506233b8014f009f94246788009ab17
:103cb00043ca43c312681a60b1e6022b00d092e6f1
:103cc000062690b3fd220221300008f07bfca8609c
:103cd000042e00d08ae6c6e73a0021000df0bafab9
:103ce000002800d0ade60221a8680cf0ddfaa2e7ba
:103cf00043f2e8334c20c2f200039c4650430021bb
:103d00004c22604413f09afeb2e6022b32d0012b13
:103d1000b6d06888042307af3b8014f0cff87880d2
:103d2000002014f0f1f8786079e6062202213000d4
:103d300008f048fccbe70626287bc2e747f27c5117
:103d400040f23b42c0f2010112f082fca4e51122d4
:103d50000121062008f036fca86047e647f27c51b6
:103d600040f2c932c0f2010112f072fc94e504265f
:103d7000287ba6e70426a4e747f27c5140f2cf3225
:103d8000c0f2010112f064fc86e547f27c5140f27a
:0c3d9000d532c0f2010112f05bfc7de5b1
:020000040000fa
:103d9c00d84700201c00000000000000d04100208b
:103dac007800000000000000343d002034010000c9
:103dbc00000000001443002050000000010000002f
:103dcc00d9160100fd530100fd690100296a0100ab
:103ddc00556a0100f1670100b5620100dd0c0100bc
:103dec000da900006d9e0000e1c200003dae000078
:103dfc00b9400100655c0100ed6b000041f800006a
:103e0c0061ec0000816a0100516e010000000000ad
:103e1c00c444002080000000000000008845002001
:103e2c003000000000000000b4420020040000003c
:103e3c0000000000444500200400000000000000c9
:103e4c00f44700201c000000000000006449002022
:103e5c000400000000000000bc40002090000000a6
:103e6c000000000068490020040000000000000071
:103e7c00d44800200c0000000100000000000000ed
:103e8c00000000000000ffffb448002010000000fc
:103e9c00000000006c490020100000000000000031
:103eac004c41002084000000000000007c490020f0
:103ebc0004000000000000007030002078030000b7
:103ecc00000000002c48002018000000000000003a
:103edc000020002067080000000000001c490020a2
:103eec0008000000000000003847002060000000bf
:103efc00000000005c3f0020c0000000000000003b
:103f0c00e04800200c00000000000000b845002034
:103f1c00580000000000000067280020010000008d
:103f2c0000000000104600202c00000000000000e3
:103f3c00244900201000000000000000b8420020be
:103f4c005c000000000000007f4400200100000025
:103f5c0000000000c344002001000000000000002d
:103f6c00000000200020000000000000ec480020b1
:103f7c000c00000000000000804900200800000038
:103f8c000000000034490020080000000000000080
:103f9c00634900200100000000000000e83300200d
:103fac00f802000000000000884900200400000016
:103fbc00000000003c490020080000000000000048
:103fcc001a4900200200000001000000010000005e
:103fdc001c400020a000000000000000484500200c
:103fec004000000000000000692c002001000000cf
:103ffc0001000000010000004449002008000000fe
:10400c00000000008c48002014000000000000009c
:10401c006a2c00200100000000000000c0460020b7
:10402c0029000000000000003c4400204300000078
:10403c00000000008c49002004000000010000007a
:10404c00ffffffff683e0020f400000000000000ae
:10405c00104900200a00000000000000b4430020ba
:10406c004400000000000000a449002002000000f1
:10407c0000000000484200206c000000000000001e
:10408c006828002001040000000000006c2c0020b7
:10409c00010400000000000034390020000400007e
:1040ac0000000000984700202000000000000000e5
:1040bc003c4600202c00000000000000444800207a
:1040cc001800000000000000684600202c000000d2
:1040dc00000000005c4800201800000000000000f8
:1040ec00f84300204400000000000000b847002006
:1040fc002000000000000000c44800201000000058
:10410c0000000000ec460020280000000000000029
:10411c00e03600205402000000000000104800208f
:10412c001c000000000000004c49002008000000aa
:10413c00000000008044002043000000000000004c
:10414c00f84800200c00000000000000544900203a
:10415c000f00000000000000a04800201400000028
:10416c0000000000144700202400000000000000a4
:10417c007448002018000000000000009049002046
:10418c000800000000000000984900200400000016
:10419c0001000000010000009c4900200400000008
:1041ac0000000000644300205000000000000000ec
:1041bc00944600202c00000000000000a0490020c4
:1041cc000400000000000000044900200c00000066
:1041dc00000000000000000000000000666666663b
:020000040000fa
:1041ec00f0b5ce46474680b514008db02ab1137990
:1041fc001bb153881b0a0e2b04d00db0c0bcb946a2
:10420c00b046f0bd16000e2510366d442a000c3b4e
:10421c000221300006f0b4f92f8844f24c15c2f29a
:10422c0000052b78db07da0f9046aa880bb1974272
:10423c000bd0d24a6388944663449bb22179052bf8
:10424c00dbd8cf4a9b00d3589f46cc4a6388944610
:10425c0063449bb22779052bcfd8ca4a9b00d3580d
:10426c009f46012fc9d1fb232a8844f678141340aa
:10427c000422c2f20004276813432b80002fbcd009
:10428c0044f67416c2f2000600230322a97a3068a1
:10429c00b8472468002cb0d000230722a97a3068d4
:1042ac00a047aae7012fa8d1042210212b78934311
:1042bc002b707a32ab5a0b43ab5244f67813c2f2e2
:1042cc0000031c68002c98d044f67413c2f200034f
:1042dc001868a97a0023763aa0478ee7022f00d0ff
:1042ec008be77e220821ab5a0b43ab5244f6781372
:1042fc00c2f200031c68002c00d17ee744f6741354
:10430c00c2f200031868a97a0123743aa04774e733
:10431c0060222b781a4200d1eee07b1f012b00d9d2
:10432c006be7ab6d002b00d1ebe0da781b789a428f
:10433c0000d139e1217e082900d143e1092900d1be
:10434c009fe144f66413c2f200031b68002b00d1fa
:10435c0053e741f65400c0f2000098474de7602245
:10436c002b781a4200d098e0022f00d045e72a00a3
:10437c002000463218300223022106f001f92800f1
:10438c000bf03efd39e7052f00d036e70026282339
:10439c00217ee25c91420bd044f66413c2f200031e
:1043ac001b682bb141f6a010c0f200009847217e8b
:1043bc00082900d1b3e00929c3d120000627102316
:1043cc00714a1830af8106f0dbf802232000190087
:1043dc006e4a203006f0d4f8eb8920005bbaeb81f2
:1043ec00092110236a4a2f85283006f0c9f80223c8
:1043fc0020001900674a303006f0c2f86b8d5bbaaa
:10440c006b856b781bb92a78043313432b702b788c
:10441c00002e00d19ce0db0700d450e144f664137d
:10442c00c2f200031b6843b141f6d810c0f2000081
:10443c0098472b78db0700d4dfe644f24c10c2f22d
:10444c00000012f07df8d8e6052900d0d5e64346e9
:10445c00002b00d0ffe0802644f24c103200414685
:10446c00c2f2000013f0e4fa01222b7840f205515d
:10447c0013432b7002232b72db026b67ab677c231d
:10448c00e95244f66c13c2f200031b68af80ab51c7
:10449c00002b00d1fde0160079e7fb1e012b00d9a3
:1044ac00abe612236b4498462000022342460321bc
:1044bc00183006f065f8042f00d1dae043461a886c
:1044cc00354b3648fb18db00f31859680123009371
:1044dc00002309f041fa002800d0a6e044f664134a
:1044ec00c2f200031b68002b00d186e641f60c10cb
:1044fc00c0f20000984780e62a002000463228309f
:10450c0039e744f66413c2f200031b68002b00d198
:10451c0073e641f6b400c0f2000098476de604273c
:10452c0020003b001e4a1830af8106f029f8022308
:10453c0020001900154a203006f022f82000eb89e3
:10454c0008215bbaeb81174a3b002f8528304ce7da
:10455c005b0700d451e644f67813c2f200031c68e2
:10456c00002c00d149e644f67410c2f2000000237e
:10457c000322a97a0068a0473fe6c04600f2ffff7d
:10458c00b0680100c8680100604100205a41002059
:10459c007c41002076410020ffffff1f9841002046
:1045ac005c4100207841002044f66413c2f2000301
:1045bc001b68002b00d120e641f6e400c0f200009d
:1045cc0098471ae605ab984604234246138006aa80
:1045dc002000183005f0d4ff022316222000190009
:1045ec006a44203005f0ccff434642465b882000ed
:1045fc005bba538004ab9946032102234a46283008
:10460c0005f0beff062f63d04b461a88354b364853
:10461c009c4601236744ff000093f61943467168da
:10462c0009f09af9002800d158e710232a7813438f
:10463c002b7044f67813c2f200031c68002c00d1d6
:10464c00dbe544f67410c2f2000000230522a97abf
:10465c000068a047d1e544f66413c2f200031b685e
:10466c00002b00d1c9e541f64410c0f20000984778
:10467c00c3e520000223032105aa203005f080ffaa
:10468c001ce705ab98460623424613800a3307aa5b
:10469c009ee744f24c1084224146c2f2000013f013
:1046ac00c7f944f66413c2f200031b68002b00d157
:1046bc00a3e541f66810c0f2000098479de544f66a
:1046cc006413c2f200031b68002b00d0ace694e527
:1046dc0020001222022303216a44303005f050ffdf
:0c46ec0092e7c046ffffff1f984100202e
:020000040000fa
:1046f800f0b5ce46474680b5040099b028b1022be4
:104708000cd0032b42d0012b04d019b0c0bcb94641
:10471800b046f0bd100011f08dfdf6e7209b002b90
:10472800f3d08368002bf0d040f600122099098856
:104738009142ead1209a568840f24c329b58002b7d
:10474800e3d0209b04aad968587a11f0a7fa002868
:10475800dbd0731e9e41002503af01233a000221de
:1047680004a805f00fffa068f600012240f25431ba
:1047780040f25833aa404158c35811423ed0052d43
:1047880000d91be2d64aad0052599746209b002b10
:10479800bbd08368002bb8d040f600122099498816
:1047a8009142b2d1209a1279012aaed940f24c3204
:1047b8009b58002ba9d0209803af04233a0004216a
:1047c800103005f0dffe3b883e2b2fd8c54a9b00f2
:1047d800d3589f46092e00d1e9e102257242724161
:1047e80040f24c3c524200211340624679560096f2
:1047f800825820009046eab2c047a0680135062dcd
:10480800b3d140f2583543592bb1180011f012fdbd
:104818000023a068435140f24c330022c25074e791
:10482800092e00d1d2e101251233d7e713f0b4faeb
:10483800032800d869e713f0a9fa41f660413a88dd
:10484800c0f200010ff05cf85fe7092ed9d005250a
:104858004c33c3e7092ed4d004253c33bee7092ed8
:1048680000d19ce103252c33b8e740f250322025d3
:10487800a3689a582a4200d147e740f25836209850
:104888009a59092110238c32183005f07bfe40f22a
:104898005432a36899580d439d504c2299590423ca
:1048a800885c03438b5430e740f250332025a268dc
:1048b800d3582b4200d128e740f25837209804ae4d
:1048c800112332000921183005f05cfea36810227c
:1048d800d8593100503013f0a3f86021a268307c19
:1048e800d359585440f254315058054355504c212f
:1048f8000122585c02435a5407e740f250332026fd
:10490800a268d358334200d1ffe604ab984640f280
:10491800583914252098092111234246183005f0ea
:1049280031fe02217b5e49466b43a26864335058ce
:1049380010224146c01813f073f84b46a168ca58b4
:1049480002203b5e40466b43007cd31874331870da
:1049580040f25433c8580643ce504c210223505cd1
:1049680003435354d1e640f250321025a3689a58b5
:104978002a4200d1c9e640f2583620989a590821af
:1049880004234832183005f0fdfd40f25432a36884
:1049980099580d439d503c2299590423885c034340
:1049a8008b54b2e640f250331025a268d3582b42fc
:1049b80000d1aae608232098190004aa183005f0a7
:1049c800e1fd40f25833a2680599d3580498596418
:1049d80040f254311864505805433c205550032286
:1049e800195c91430a431a548fe640f25032082565
:1049f800a3689a582a4200d187e640f25836209890
:104a08009a59290004233832183005f0bbfd40f2ca
:104a18005431a3685a582a435a509a592c23d15cc6
:104a28000d43d55471e640f250320825a3689a58d0
:104a38002a4200d169e640f2583620989a590c214a
:104a480004233432183005f09dfd40f25432a36837
:104a580099580d439d502c2299590423885c03438f
:104a68008b5452e640f250320825a3689a582a42dd
:104a780000d14ae640f2583620989a590c2104236e
:104a88003032183005f07efd40f25432a368995850
:104a98000d439d502c2299590223885c03438b5463
:104aa80033e640f250320825a3689a582a4200d1ca
:104ab8002be640f2583620989a590a2101232d32c4
:104ac800183005f05ffd40f25432a36899580d4341
:104ad8009d502c2299590123885c03438b5414e67a
:104ae80030e6000048e6000040f250320425a36892
:104af8009a582a4200d108e640f2583620989a5926
:104b0800052110231832183005f03cfd40f25431cd
:104b1800a3685a582a435a509b591a7815431d704e
:104b2800f3e540f250370625a368da592a4200d146
:104b3800ebe540f2583620989a590b212b00123297
:104b4800183005f01ffd40f25431a268d35950586f
:104b58002b40034353500223925911780b4313708f
:104b6800d3e540f250320425a3689a582a4200d16e
:104b7800cbe540f2583620989a5905211023013286
:104b8800183005f0fffc40f25432a36899580d43e1
:104b98009d509a59012311780b431370b5e540f2e3
:104ba8005433c358db0600d52be60525dde540f276
:104bb8005433c3581b07f2d40425d6e540f25433c6
:104bc8000225c35809262b4200d1cee540f25433c2
:0c4bd800c3585b07ebd40325c7e5c046bb
:020000040000fa
:104be400f0b5c64600b50400a2b0012b0dd040b10b
:104bf4000278d10705d5022b10d0032b01d1289bb5
:104c0400fbb922b080bcb846f0bd44f66c13c2f2c6
:104c140000031100186810f09bfaf2e7289b002ba0
:104c2400efd05d881b882e00711e8e41b349f6b209
:104c34008c4663449bb2092be3d8b1499b00cb5803
:104c44009f46289a5b881600157940f6076210364d
:104c5400934200d1f2e00432934200d1dde00b3afa
:104c64009342ced1012dccd18388002bc9d10233fc
:104c7400021d1900300005f087fcc2e7289b587a12
:104c84000228bed9d9680eaa11f00af8002800d06b
:104c94003ce1002d00d16ce19a4b9c466544012d0a
:104ca40000d875e144f67813c2f200031d68002da4
:104cb400a7d044f67410c2f2000001230422a17aa2
:104cc4000068a8479de7037a012b9ad1c388fd2b7e
:104cd40000d196e7042302781343037044f6781353
:104ce400c2f200031d68002d00d18ae7817a44f6e0
:104cf4007410c2f20000330003220068a84780e762
:104d0400d20678d4002d00d07be7142223781a42ef
:104d140000d176e720000bf077f872e7037a012bd5
:104d240000d1e1e044f67813c2f200031d68002dbf
:104d340000d166e744f67413c2f200031868012236
:104d44003300a17aa8475ce7602313422ad044f6d3
:104d54006c17c2f2000740f2001138680af0e0f95b
:104d6400050000d14de744f6e533022240f200117c
:104d74000094c0f200030ef0c5fa8046002800d16a
:104d84000ae121000df04afe44f67c13c2f200034e
:104d94004146186808f0acfc002800d1fce046232a
:104da4000022e25244f67813c2f200031d68002d7b
:104db40000d126e744f67413c2f2000318680022f7
:104dc4003300a17aa8471ce744f67813c2f2000323
:104dd4001d6865b144f67413c2f20003817a062299
:104de40018683300a8472378db0700d409e72000bc
:104df40011f0aafb05e744f67813c2f200031f681a
:104e0400002f00d17ee7817a44f67410c2f20000cc
:104e1400330005220068b84774e7022d00d0f0e69d
:104e240007aa01230221300005f0aefb28980423d1
:104e340002210eaa183005f0a7fbe2e6162202238f
:104e440002216a44300005f09ffb289b0eaad96812
:104e5400587a10f025ff002800d1d2e61a22022346
:104e64006a44022112a805f08ffb6b46a288db8af4
:104e74009a4200d0c5e60223289806af19003a00ea
:104e8400183005f081fb6b4639885a8b91420ad061
:104e940044f66413c2f200031b6823b141f6840094
:104ea400c0f200009847032d00d993e046223988c8
:104eb400a35a5b1aa352002301203a8800902000d1
:104ec40011494c306918c9007118496808f048fd47
:104ed400002871d054223988a35a5b1aa352102394
:104ee4002278134323708ce6c388fd2b00d119e785
:104ef400042203781343037014e7c04600f2ffff53
:104f0400e86c0100f4f1ffffffffff1f289b0eaace
:104f14005b7a07ae033bdb00d01802233200190092
:104f240005f032fb289b0eaa5b7a1a27023bdb00b2
:104f3400d01802236f443a00190005f025fb3f887e
:104f4400368875bb237a012b75d0002120000b0015
:104f54003200029101910091603006f0f5f9682267
:104f6400a35a9b1ba352237a012b5ad04423be1964
:104f7400e65244f67813c2f200031d6845b144f6c4
:104f84007410c2f2000000230422a17a0068a8472a
:104f9400200004f0bbfb34e62900386810f0d8f890
:104fa4002fe64423e35abb4200d075e6002368226f
:104fb400a352203aa3546fe644f66413c2f20003ea
:104fc4001b68002b00d11ce641f60c10c0f2000057
:104fd400984716e60223220028981900463220300a
:104fe40005f0d2fa072d00d065e7a36d002b58d049
:104ff400da781b789a4246d03023289ad15c082963
:1050040038d009291cd044f66413c2f200031b688b
:10501400002b00d1f5e541f65400c0f2000098479a
:10502400efe5e16e0029a1d0203aa35cc9785b18b2
:105034005b1ba3549ae7e36e002b86d0dd7884e7ec
:1050440007ab9846062342462898138030300a332b
:1050540009aa05f099fa02231e22289819006a4425
:10506400383005f091fa434642465b885bba538078
:10507400434621e707ab9846042342462898138009
:10508400303008aae5e744f66413c2f200031b6853
:10509400002b00d1b5e541f6e400c0f200009847ca
:1050a400afe544f66413c2f200031b68002b00d181
:1050b400a7e541f6b400c0f200009847a1e5c04658
:020000040000fa
:1050c400f0b54746ce46d04e80b590460f001a0044
:1050d400300000248bb0057915b101688f4218d0d7
:1050e40001344c300a2cf6d144f63c13c2f20003ce
:1050f4001d684346062b00d1e3e041f634610020ed
:10510400c0f200010ef0fefb0bb0c0bcb946b046c5
:10511400f0bd4c236343994644f63c13c2f20003aa
:105124001d684346062b00d1cbe0002a00d0d7e00f
:105134000a2be9d8b54a9b00d3589f460022052183
:105144003800a847e0e741f6d4710020c0f200011e
:105154000ef0d8fb43f2e8324c23c2f2000294462c
:105164000122634363445a72012100223800a84794
:10517400cae7002204213800a847c5e7002203211a
:105184003800a847c0e743f2e8324c23c2f20002d9
:105194009446634363449a7a9206b5d4012200216b
:1051a4005a7238000022a847aee744f69c181c2324
:1051b400c2f200084246029300233800136003a998
:1051c40002aa0bf0cff80600431c00d0c4e043460b
:1051d4001b680b2b98d041f684710020c0f20001ab
:1051e4000ef090fb91e043f2e8324c23c2f200024d
:1051f4009446634363449b7a5b0600d584e741f697
:1052040064710020c0f200010ef07cfb7ce74c25a9
:1052140043f2e8386543c2f2000845442a8dab7a6c
:10522400002a77d0590600d4c9e0042a00d156e1f7
:10523400424647f6c42314324a44c0f2010323cb46
:1052440023c21b6813604c2543f2e8326543c2f263
:1052540000022b009446283363441a6849464346a7
:105264000c315b19da6038001c22614407f024fd1c
:10527400013000d165e143f2e833c2f200039c46f9
:1052840065442b8d042b00d146e1424603ab190043
:1052940030324a4461ca61c1126838000a6000228f
:1052a4001a6114320021009201f078fa43f2e832d4
:1052b4004c23c2f2000294460122634363445a72af
:1052c40022e70023327912b1326897426ad001335f
:1052d4004c360a2bf6d1002208213800a84713e7e0
:1052e40041f654610020c0f200010ef00bfb0023d4
:1052f400327912b13268974247d001334c360a2bc7
:10530400f6d14346002b00d1fee6022138000af014
:10531400c9fff9e69b0600d590e043f2e83349461d
:10532400c2f200039c460c311c223800614407f091
:10533400c3fc013000d19ce043f2e8334c25c2f2b7
:1053440000039c4665436544ab7a5a0700d58ae05e
:105354001b0700d4d8e6a9e743f2e833c2f20003fe
:105364009c464c234a4663430c326344997a624414
:1053740003ab0bf06dff002800d1b5e00123002240
:10538400437207213000a847bee64c20584343f23d
:10539400e833c2f200039c464c220021604412f020
:1053a4004bfbaee74c20584343f2e833c2f2000310
:1053b4009c464c220021604412f03efb8be79b0686
:1053c40078d444f69c14c2f200040023236043f210
:1053d400e8334946c2f200039c4628311c223800b7
:1053e400614406f0bdfe013000d08de62368962ba3
:1053f40000d189e641f634710020c0f200010ef0bc
:1054040081fa002309e0c046ec330020646c0100fb
:1054140001334c360a2b00d177e73279002af7d0d2
:1054240032689742f4d14c2243f2e8315343c2f23a
:1054340000015818002112f0fffa66e704230093d4
:1054440044f6631340f20042fd213800c2f2000327
:1054540001f0a4f9002852d141f68461c0f20001a0
:105464000ef050fa59e70221380007f0d1fcab7a6c
:105474006ee741f6cc610020c0f200010ef042fa62
:10548400002304e001334c360a2b00d13de7327986
:10549400002af7d032689742f4d14c20584343f2a3
:1054a400e833c2f200039c464c220021604412f00f
:1054b400c3fa2ae70423009344f6631340f200423c
:1054c400fd213800c2f2000301f068f900284dd133
:1054d40041f6f461c0f200010ef014fa71e7002005
:1054e40012f010fd2861aee641f69c71c0f2000195
:1054f4000ef008fa022130000af0d4fe04e644f665
:105504009c1341f6a461c2f2000300201a68c0f2a1
:1055140000010ef0f7f900e743464a462c339b5846
:10552400424603934b461032d35800210493002380
:1055340005930c3300932322380003ab01f02ef9ba
:10554400b4e641f6cc610020c0f200010ef0daf9b5
:10555400002304e001334c360a2b00d1d5e632791e
:10556400002af7d032689742f4d15ce744f69c14e1
:1055740041f61071c2f2000400202268c0f200015a
:085584000ef0c0f921e7c0465a
:020000040000fa
:10558c00f0b59db011930b684d680a938b6814901d
:10559c000e930b6910911593cb68039313685468a1
:1055ac0004930594049805990022002310f013fd30
:1055bc0068b90a9b5b073bd408230a9a1a400b92e2
:1055cc000e9a08920a9a1a4212d0183309e08020d7
:1055dc00000684460599049a61440b0004920593d5
:1055ec002d23039a13700e9b013b089301230b93fd
:1055fc00059b04995b00be4a5b08e9b993421bd139
:10560c00039a119b94460b98413b6044192b11d87b
:10561c00b84912f037fc039812f030f80a9b0200dc
:10562c00009303990e9b14980df0d0fc1db0f0bda7
:10563c002b23d6e7b049ece7934201d80cd159b1f2
:10564c00039a119b94460b98413b6044192b01d84b
:10565c00aa49dee7aa49dce7002204980599002351
:10566c0011f098f9040000d106e10023a54c069333
:10567c0007940024119812f04efbc3b20f93002d27
:10568c0000dacce10993672b0bd105b90135652301
:10569c000993231d14dbac4212da66230993002c08
:1056ac000eda099b0135662b0ad1002c04da002393
:1056bc00944c0693079400240f9b672b00d02d1954
:1056cc00049a059b0c920d93069e079f0023129340
:1056dc0032000c980d993b000af060ff0af0f6fbc3
:1056ec008022120694460c9b1690179118930d9bd2
:1056fc0063441993189a199b0092019332003b0052
:10570c0012f0f2fa80231b06cb180c9039003000f3
:10571c000d9300227c4b0af041ff129b06000133d3
:10572c000f0012939d42d3d10022784b06f0aafbb6
:10573c000c9a0d9b06000f0010f02efc002800d0d8
:10574c00c8e00c9a0d9b3000390011f023f930b1f0
:10575c001698179911f02cf8c00700d4bae00498e9
:10576c00059932003b0004f045fd002204900591a0
:10577c0006980799644b06f085fb049a059b0c90e0
:10578c000d9110f09ff9002800d1a6e0099b01347f
:10579c00662b00d0a5e0260001350027731b0b9d5e
:1057ac0018930697189b9e4200d0d8e0069b002bbe
:1057bc0000d116e10021039b5819099b0170652b40
:1057cc0028d1159b039a013bd1548c4201da6442d7
:1057dc000131002c00d00de1159a9a1a0332002adf
:1057ec0000dd07e12b225c1e01b102320399023b62
:1057fc000a55119a413a192a01d845220992039a5d
:10580c00d118099a0a709d4201da12f03bfb089bf1
:10581c00023b089303230a9a1340022b00d0fae6aa
:10582c00089b002b00dcf6e6039811f027ff0b9b7e
:10583c00834200dcece01800039b30219c46089a64
:10584c00604412f0f5f800230e93e4e606960797f1
:10585c0001340022069807992b4b06f013fb060027
:10586c000f0002000b000498059910f0b4fb0028ff
:10587c00ecd00027012622e00022224b069207934f
:10588c00e7e7234b9c4211da87b90498059900226b
:10589c00204b06f0f7fa0022049005910698079920
:1058ac001c4b06f0effa3700069007910698079903
:1058bc000022154b0af072fe06900791013c069ae5
:1058cc00079b0498059910f086fb0028d9d1d1e6e6
:1058dc000625dce60026002741e7069a079b0c927a
:1058ec000d93099e653e731e9e417642264054e7f9
:1058fc000000f07f787001007c7001008070010066
:10590c00847001000000f03f0000244000001440af
:10591c00d4feffff00005043069b5bb9002e09da52
:10592c00039a16992e335354089b0135013b089367
:10593c00012306937a192b009446302102e0039a36
:10594c00d15401336345fad1089a7d19d71b039ab8
:10595c003030d0547b1e01350027089320e0109b7b
:10596c0016951b69053bab4200d81fe70c9a0d9ba3
:10597c00049805990af012fe0af0a8fa12901391f5
:10598c0010f016ff092800dd092010230a9a134095
:10599c000343c1d10f9b672bbed1002ebcda01375c
:1059ac0080220c980d9912069446049b013e1a9382
:1059bc00059b63441b931a9a1b9b00920193129aaa
:1059cc00139b12f091f980231b06cb1804900593be
:1059dc000c980d990022154b0af0e0fd0c900d91de
:1059ec00e0e60a9bdb0600d4e4e62e23039a53552b
:1059fc000135dfe60a2294fbf2f67243a21a039ced
:105a0c003032013be254089a3400013a0892e0e645
:105a1c00039b08991a5c5b181a54013807e70f9b13
:105a2c00672b00d154e7062509933ae60000244081
:020000040000fa
:105a3c00f0b599b012930b68cc680a934b6816902a
:105a4c000e938b680b930b69119353681268069233
:105a5c000793069807990022002310f0bcfa70b93e
:105a6c000a9b5b0738d408230a9a0a991a400592b4
:105a7c000b9a194212d01833237013000be08020bc
