:020000040000fa
:10000000f87f0020a34901006f990000b3bf0000f2
:1000100000000000000000000000000000000000e0
:10002000000000000000000000000000cf9400006d
:100030000000000000000000cf940000316a0100c1
:10004000b9810100cf940000d1630100cf9400007a
:10005000cf940000cf9400009d6b0100c96b01009c
:10006000cf940000cf940000cf940000cf94000004
:10007000cf940000cf940000000000004522010052
:1000800003200100cf940000cf940000cf94000023
:10009000ff7b0100cf940000cf940000cf940000bc
:1000a000cf940000cf940000cf940000cf940000c4
:1000b000cf94000000000000cf94000009850000ec
:1000c0000985000009850000098500002d970000c2
:1000d0002d9700002d9700002d970000857f0000d0
:1000e000857f0000857f0000857f0000cf940000a1
:1000f000cf940000cf940000cf940000cf94000074
:10010000cf940000cf940000cf940000cf94000063
:10011000cf940000cf940000cf940000cf94000053
:10012000cf940000cf940000cf940000cf94000043
:10013000cf940000cf940000cf9400002d67010001
:10014000cf940000cf940000cf940000cf94000023
:0c015000cf940000cf940000cf9400007a
:020000040000fa
:10015c00f8b5c046f8bc08bc9e467047895a0100e9
:10016c00f8b5c046f8bc08bc9e467047655a0100fd
:020000040000fa
:10017c00007b00000100000000890000010000006d
:020000040000fa
:10018c000d0a44525620555342205553424653565d
:10019c00313a20496e76616c6964204472697665e7
:1001ac0072204d6f64756c6520496e6465782069aa
:1001bc006e204452565f555342465356315f496e3a
:1001cc00697469616c697a6528292e000d0a44529c
:1001dc00562055534220555342465356313a2044eb
:1001ec00726976657220697320616c7265616479dd
:1001fc0020696e697469616c697a656420696e2026
:10020c004452565f555342465356315f496e69749a
:10021c0069616c697a6528292e0000000d0a445228
:10022c00562055534220555342465356313a20449a
:10023c007269766572206e6f742079657420696eb0
:10024c00697469616c697a656420696e20445256e0
:10025c005f555342465356315f5461736b73282973
:10026c002e0000000d0a555342205553424653565a
:10027c0031204472697665723a204261642044727e
:10028c006976657220496e64657820696e204452e7
:10029c00565f555342465356315f4f70656e282951
:1002ac002e0000000d0a555342205553424653561a
:1002bc0031204472697665723a20447269766572af
:1002cc0020737461747573206e6f74207265616431
:1002dc007920696e204452565f555342465356312d
:1002ec005f4f70656e28292e000000000d0a5553d3
:1002fc0042205553424653563120447269766572fa
:10030c003a20556e737570706f7274656420494f26
:10031c0020496e74656e7420696e204452565f5588
:10032c005342465356315f4f70656e28292e00009c
:10033c000d0a5553422055534246535631204472b0
:10034c00697665723a204472697665722063616ed3
:10035c00206265206f70656e6564206f6e6c79200d
:10036c006f6e63652e204d756c7469706c652063bf
:10037c00616c6c7320746f204452565f5553424627
:10038c005356315f4f70656e28292e000d0a555358
:10039c004220555342465356312044726976657259
:1003ac003a20496e76616c69642064726976657274
:1003bc002068616e646c6520696e204452565f55ee
:1003cc005342465356315f436c6f736528292e0098
:1003dc000d0a555342205553424653563120447210
:1003ec00697665723a204472697665722068616e2e
:1003fc00646c65206e6f74206f70656e6564206927
:10040c006e204452565f555342465356315f436cef
:10041c006f736528292e00000d0a55534220555341
:10042c004246535631204472697665723a20496ec1
:10043c0076616c6964206f626a65637420696e20f2
:10044c004452565f555342465356315f5461736b59
:10045c00735f4953522829000d0a555342205553b6
:10046c004246535631204472697665723a20496e81
:10047c0076616c69642053797374656d2053746173
:10048c0074757320696e204452565f55534246531f
:10049c0056315f5461736b735f49535228290000c6
:1004ac000d0a555342465356312044726976657293
:1004bc003a2057686174206d6f6465206172652005
:1004cc00796f7520747279696e673f000d0a555308
:1004dc004220555342465356312044726976657218
:1004ec003a20496e76616c696420636c69656e7440
:1004fc002068616e646c6520696e204452565f55ad
:10050c005342465356315f436c69656e744576654c
:10051c006e7443616c6c4261636b53657428292e55
:10052c00000000000d0a55534220555342465356c5
:10053c003120446576696365204472697665723a48
:10054c00204472697665722048616e646c6520691e
:10055c007320696e76616c696420696e2044525612
:10056c005f555342465356315f4445564943455fa8
:10057c004164647265737353657428292e000000fe
:10058c000d0a55534220555342465356312044656b
:10059c0076696365204472697665723a20447269a3
:1005ac007665722048616e646c6520697320696e93
:1005bc0076616c696420696e204452565f555342d3
:1005cc00465356315f4445564943455f43757272f5
:1005dc00656e74537065656447657428292e000038
:1005ec000d0a55534220555342465356312044650b
:1005fc0076696365204472697665723a2044726943
:10060c007665722048616e646c6520697320696e32
:10061c0076616c696420696e204452565f55534272
:10062c00465356315f4445564943455f52656d6f9d
:10063c00746557616b657570537461727428292edb
:10064c00000000000d0a55534220555342465356a4
:10065c003120446576696365204472697665723a27
:10066c00204472697665722048616e646c652069fd
:10067c007320696e76616c696420696e20445256f1
:10068c005f555342465356315f4445564943455f87
:10069c0052656d6f746557616b65757053746f70cf
:1006ac0028292e000d0a55534220555342465356c5
:1006bc003120446576696365204472697665723ac7
:1006cc00204472697665722048616e646c6520699d
:1006dc007320696e76616c696420696e2044525691
:1006ec005f555342465356315f4445564943455f27
:1006fc0041747461636828292e0000000d0a55535b
:10070c004220555342465356312044657669636501
:10071c00204472697665723a20447269766572205b
:10072c0048616e646c6520697320696e76616c69d2
:10073c006420696e204452565f55534246535631dd
:10074c005f4445564943455f534f464e756d626550
:10075c007247657428292e000d0a555342205553b3
:10076c00424653563120446576696365204472696c
:10077c007665723a20556e737570706f727465641d
:10078c0020656e64706f696e7420696e20445256d9
:10079c005f555342465356315f4445564943455f76
:1007ac00456e64706f696e744973456e61626c65f9
:1007bc006428292e000000000d0a55534220555381
:1007cc00424653563120446576696365204472690c
:1007dc007665723a204472697665722048616e645f
:1007ec006c6520697320696e76616c696420696e32
:1007fc00204452565f555342465356315f4445563a
:10080c004943455f456e64706f696e744973456efc
:10081c0061626c656428292e000000000d0a555396
:10082c0042205553424653563120446576696365e0
:10083c00204472697665723a20447269766572203a
:10084c0048616e646c6520697320696e76616c69b1
:10085c006420696e204452565f55534246535631bc
:10086c005f4445564943455f456e64706f696e74cd
:10087c0049735374616c6c656428292e0000000068
:10088c000d0a555342205553424653563120446568
:10089c0076696365204472697665723a20496e7692
:1008ac00616c69642068616e646c6520696e2044bb
:1008bc0052565f555342465356315f444556494351
:1008cc00455f4952505375626d697428292e00009a
:1008dc000d0a555342205553424653563120446518
:1008ec0076696365204472697665723a2044657650
:1008fc006963652049525020697320616c7265618f
:10090c00647920696e2075736520696e2044525697
:10091c005f555342485356315f4445564943455ff2
:10092c004952505375626d697428292e00000000dd
:10093c000d0a5553422055534248535631204465b5
:10094c0076696365204472697665723a20456e64f7
:10095c00706f696e74206973206e6f742070726f83
:10096c00766973696f6e656420666f7220696e209c
:10097c004452565f555342485356315f444556498d
:10098c0043455f4952505375626d697428292e0096
:10099c000d0a555342205553424653563120446557
:1009ac0076696365204472697665723a204d757478
:1009bc006578206c6f636b206661696c6564206977
:1009cc006e204452565f555342465356315f444550
:1009dc00564943455f4952505375626d69742829d5
:1009ec00000000000d0a5553422055534246535601
:1009fc003120446576696365204472697665723a84
:100a0c00204472697665722048616e646c65206959
:100a1c007320696e76616c696420696e204452564d
:100a2c005f555342465356315f4445564943455fe3
:100a3c0049525043616e63656c28292e00000000fa
:100a4c000d0a5553422055534246535631204465a6
:100a5c0076696365204472697665723a2049525012
:100a6c0020697320696e76616c696420696e20441c
:100a7c0052565f555342465356315f44455649438f
:100a8c00455f49525043616e63656c28292e000006
:100a9c000d0a555342205553424653563120446556
:100aac0076696365204472697665723a204d757477
:100abc006578206c6f636b206661696c6564206976
:100acc006e204452565f555342465356315f44454f
:100adc00564943455f49525043616e63656c282902
:100aec002e0000000d0a55534220555342465356d2
:100afc003120446576696365204472697665723a83
:100b0c0020556e737570706f7274656420656e64b9
:100b1c00706f696e7420696e204452565f55534253
:100b2c00465356315f4445564943455f456e6470a4
:100b3c006f696e7444697361626c6528292e0000bc
:100b4c000d0a5553422055534246535631204465a5
:100b5c0076696365204472697665723a20447269dd
:100b6c007665722048616e646c6520697320696ecd
:100b7c0076616c696420696e204452565f5553420d
:100b8c00465356315f4445564943455f456e647044
:100b9c006f696e7444697361626c6528292e00005c
:100bac000d0a555342205553424653563120446545
:100bbc0076696365204472697665723a204d757466
:100bcc006578206c6f636b206661696c6564206965
:100bdc006e204452565f555342465356315f44453e
:100bec00564943455f456e64706f696e7444697312
:100bfc0061626c65282900000d0a5553422055533b
:100c0c0042465356312044657669636520447269c7
:100c1c007665723a204472697665722048616e641a
:100c2c006c6520697320696e76616c696420696eed
:100c3c00204452565f555342465356315f444556f5
:100c4c004943455f44657461636828292e000000a0
:100c5c000d0a555342205553424653563120446594
:100c6c0076696365204472697665723a204d7574b5
:100c7c006578206c6f636b206661696c65642069b4
:100c8c006e204452565f555342465356315f44458d
:100c9c00564943455f446574616368282900000028
:100cac000d0a555342205553424653563120446544
:100cbc0076696365204472697665723a20556e7365
:100ccc007570706f7274656420656e64706f696e98
:100cdc007420696e204452565f5553424653563128
:100cec005f4445564943455f456e64706f696e7449
:100cfc00456e61626c6528292e0000000d0a555363
:100d0c0042205553424653563120446576696365fb
:100d1c00204472697665723a204472697665722055
:100d2c0048616e646c6520697320696e76616c69cc
:100d3c006420696e204452565f55534246535631d7
:100d4c005f4445564943455f456e64706f696e74e8
:100d5c00456e61626c6528292e0000000d0a555302
:100d6c00422055534246535631204465766963659b
:100d7c00204472697665723a20556e737570706f87
:100d8c007274656420656e64706f696e7420696e30
:100d9c00204452565f555342465356315f44455694
:100dac004943455f456e64706f696e745374616c32
:100dbc006c28292e000000000d0a55534220555373
:100dcc004246535631204465766963652044726906
:100ddc007665723a204472697665722048616e6459
:100dec006c6520697320696e76616c696420696e2c
:100dfc00204452565f555342465356315f44455634
:100e0c004943455f456e64706f696e745374616cd1
:100e1c006c28292e000000000d0a55534220555312
:100e2c0042465356312044657669636520447269a5
:100e3c007665723a204d75746578206c6f636b2003
:100e4c006661696c656420696e204452565f555327
:100e5c0042465356315f4445564943455f456e649f
:100e6c00706f696e745374616c6c282900000000fb
:100e7c000d0a555342205553424653563120446572
:100e8c0076696365204472697665723a20556e7393
:100e9c007570706f7274656420656e64706f696ec6
:100eac007420696e204452565f5553424653563156
:100ebc005f4445564943455f456e64706f696e7477
:100ecc005374616c6c436c65617228292e000000b0
:100edc000d0a555342205553424653563120446512
:100eec0076696365204472697665723a204472694a
:100efc007665722048616e646c6520697320696e3a
:100f0c0076616c696420696e204452565f55534279
:100f1c00465356315f4445564943455f456e6470b0
:100f2c006f696e745374616c6c436c6561722829c3
:100f3c002e0000000d0a555342205553424653567d
:100f4c003120446576696365204472697665723a2e
:100f5c0020556e737570706f7274656420656e6465
:100f6c00706f696e7420696e204452565f555342ff
:100f7c00465356315f4445564943455f49525043a9
:100f8c00616e63656c416c6c28292e000d0a5553fb
:100f9c004220555342465356312044657669636569
:100fac00204472697665723a2044726976657220c3
:100fbc0048616e646c6520697320696e76616c693a
:100fcc006420696e204452565f5553424653563145
:100fdc005f4445564943455f49525043616e6365d2
:100fec006c416c6c28292e000d0a55534220555328
:100ffc0042465356312044657669636520447269d4
:10100c007665723a204d75746578206c6f636b2031
:10101c006661696c656420696e204452565f555355
:10102c0042465356315f4445564943455f495250f9
:10103c0043616e63656c416c6c28292e00000000c6
:10104c000d0a5553422055534246535631204465a0
:10105c0076696365204472697665723a20447269d8
:10106c0076657220646f6573206e6f74206861768c
:10107c0065206120636c69656e7420696e20465f23
:10108c004452565f555342465356315f4445564978
:10109c0043455f5461736b735f49535228292e008b
:1010ac000d0a555342205553424653563120446540
:1010bc0076696365204472697665723a2044726978
:1010cc00766572206e656564732061206576656e49
:1010dc00742068616e646c657220696e20465f4492
:1010ec0052565f555342465356315f444556494319
:1010fc00455f5461736b735f49535228292e00006e
:10110c001b5b33313b316d6572726f723a20696ec5
:10111c0076616c69642073656e64207265717565a7
:10112c0073742073746174652068616e646c650af5
:10113c001b5b306d000000001b5b33313b316d6578
:10114c0072726f723a2073656e6420726571756588
:10115c007374207374617465206661696c75726553
:10116c000a1b5b306d0000001b5b33313b316d653e
:10117c0072726f723a20746f6f206d616e7920639a
:10118c006f6d6d616e64730a1b5b306d0000000047
:10119c001b5b33313b316d6572726f723a20736534
:1011ac006e642072657175657374207374617465f7
:1011bc00206661696c7572652c20706f737369623f
:1011cc006c65206e6f2073706163650a1b5b306dfc
:1011dc00000000001b5b33313b316d6572726f7226
:1011ec002c2063736120434d44353320777269742e
:1011fc0065206661696c65642c2073746174757309
:10120c003d3078253034780a1b5b306d00000000cf
:10121c001b5b33313b316d6572726f722c206c65c8
:10122c006e67746820434d4435332077726974655a
:10123c00206661696c65642c207374617475733df0
:10124c003078253034780a1b5b306d001b5b3331f2
:10125c003b316d6572726f722c206d6573736167b3
:10126c006520434d4435332077726974652066617f
:10127c00696c65642c207374617475733d307825ca
:10128c003034780a1b5b306d000000001b5b33317f
:10129c003b316d6572726f722c20696e746572725f
:1012ac0075707420636865636b206661696c656436
:1012bc002c207374617475733d253032780a1b5b76
:1012cc00306d00001b5b33313b316d6572726f7298
:1012dc002c206d65737361676520434d4435332055
:1012ec0072656164206661696c65642c207374613d
:1012fc007475733d3078253034780a1b5b306d0083
:10130c001b5b33313b316d6572726f722c206e6fcb
:10131c002061636b20746f206d6573736167650a60
:10132c001b5b306d000000001b5b33313b316d6586
:10133c0072726f722c20756e6b6e6f776e20657685
:10134c00656e7420747970650a1b5b306d0000004b
:10135c001b5b33313b316d6572726f722c20696e81
:10136c007465727275707420636c656172202830bc
:10137c00782530327829206661696c65642c20737d
:10138c0074617475733d253032780a1b5b306d00c7
:10139c001b5b33313b316d6572726f722c20756e35
:1013ac0068616e646c6564206576656e7420307857
:1013bc00253032780a1b5b306d0000001b5b33312b
:1013cc003b316d6572726f722c206d7367282564ca
:1013dc002920434d4435332077726974652066614a
:1013ec00696c65642c207374617475733d30782559
:1013fc003034780a1b5b306d000000001b5b33310e
:10140c003b316d6572726f722c206c656e677468ff
:10141c0020434d4435332072656164206661696cec
:10142c0065642c207374617475733d307825303489
:10143c00780a1b5b306d00001b5b33313b316d65f3
:10144c0072726f722c2072656365697665206d65aa
:10145c007373616765206578636565647320627575
:10146c00666665722e2025642025642025640a1b7f
:10147c005b306d001b5b33313b316d6572726f728b
:10148c002c206d73672825642920434d4435332067
:10149c0072656164206661696c65642c207374618b
:1014ac007475733d3078253034780a1b5b306d00d1
:1014bc001b5b33313b316d6572726f722c2073651f
:1014cc007175656e6365206e756d626572206d69f0
:1014dc007373696e672c20657870656374696e67c9
:1014ec0020253034782c20676f7420253034780a0e
:1014fc001b5b306d000000001b5b33313b316d65b5
:10150c0072726f722c20696e76616c6964206d65e5
:10151c0073736167652074797065207265636569a2
:10152c007665642025640a1b5b306d001b5b3331d0
:10153c003b316d6572726f722c20756e6b6e6f77ae
:10154c006e206576656e7420747970652025640a4a
:10155c001b5b306d000000001b5b33313b316d6554
:10156c0072726f722c206661696c656420746f20d6
:10157c00616c6c6f6361746520736c6162206f6663
:10158c002025642062797465730a1b5b306d000042
:10159c001b5b33313b316d6572726f723a20666141
:1015ac00696c656420746f20616c6c6f6361746529
:1015bc002072656376206275666665720a1b5b3005
:1015cc006d0000001b5b33313b316d6572726f72c5
:1015dc003a206661696c656420746f20616c6c6f75
:1015ec00636174652073656e6420627566666572ee
:1015fc000a1b5b306d0000001b5b33313b316d65aa
:10160c0072726f723a206661696c656420746f2027
:10161c00616c6c6f636174652072656376207061b8
:10162c00636b6574206275666665720a1b5b306d50
:10163c00000000001b5b33313b316d6572726f72c1
:10164c003a20756e6b6e6f776e2061646472657391
:10165c0073207479706520282564290a1b5b306d12
:10166c00000000001b5b33313b316d6572726f7291
:10167c003a20736f636b65742077726974652063ad
:10168c006f6d6d616e642072657175657374206920
:10169c006e697469616c69736174696f6e206661df
:1016ac00696c65640a1b5b306d0000001b5b333199
:1016bc003b316d6572726f723a20736f636b657438
:1016cc0020777269746520636f6d6d616e64207232
:1016dc00657175657374207472616e6d697373696d
:1016ec006f6e206661696c65640a1b5b306d00006f
:1016fc001b5b33313b316d4572726f722c206c6504
:10170c006e677468206d69736d61746368202564fd
:10171c002076732025640a1b5b306d001b5b333114
:10172c003b316d6572726f723a206e6f20616c6c1a
:10173c006f6361746564207061636b65742062759e
:10174c0066666572730a1b5b306d00001b5b333180
:10175c003b316d6572726f723a207061636b6574a8
:10176c0020627566666572732066756c6c0a1b5b0d
:10177c00306d00001b5b33313b316d6572726f72e3
:10178c003a206661696c656420746f2077726974a5
:10179c006520746f20726563656976652062756675
:1017ac006665720a1b5b306d000000001b5b3331f9
:1017bc003b316d6572726f723a206e6f2066726586
:1017cc006520736f636b6574730a1b5b306d00006f
:1017dc001b5b33313b316d6572726f723a206661ff
:1017ec00696c656420746f20637265617465206e2a
:1017fc006577207265636569766520736f636b65c9
:10180c00740a1b5b306d00001b5b33313b316d6523
:10181c0072726f723a2061646472657373207479aa
:10182c007065206d69736d61746368202825642070
:10183c00213d202564290a1b5b306d001b5b333175
:10184c003b316d6572726f723a20756e61626c65b8
:10185c0020746f2066696e64206c697374656e69a0
:10186c006e6720736f636b65740a1b5b306d0000d1
:10187c0025642e25642e25642e25640025783a25b2
:10188c00783a25783a25783a25783a25783a2578a1
:10189c003a25780025783a25783a25783a25783a09
:1018ac0025783a25783a25642e25642e25642e2534
:1018bc00640000003a30000043464720494420258c
:1018cc0064206e6f742068616e646c65640d0a0030
:1018dc004449204944202564206e6f742068616e51
:1018ec00646c65640d0a00004e564d43204944203b
:1018fc002564206e6f742068616e646c65640d0adb
:10190c000000000052656365697665206275666645
:10191c00657220616c6c6f636174696f6e206661b7
:10192c00696c65640d0a00004661696c656420741d
:10193c006f20696e697469616c6973652057494ed3
:10194c0043206465766963650d0a00004661696c25
:10195c00656420746f20696e697469616c69736564
:10196c002057494e4320736f636b6574730d0a00e7
:10197c0057494e433a2052657365740d0a000000b6
:10198c0057494e433a20496e697469616c697a69aa
:10199c006e672e2e2e000000636f6d706c65746583
:1019ac000d0a00006661696c65642072657365746c
:1019bc000d0a00006661696c6564206f700d0a0089
:1019cc0072657365742074696d6564206f75740d30
:1019dc000a00000057494e43206576656e742075e9
:1019ec007064617465206661696c65642c20726535
:1019fc0073657474696e670d0a0000005753434e8b
:101a0c0043204944202564206e6f742068616e6405
:101a1c006c65640d0a0000005363616e20506172a6
:101a2c00616d733a2025642025642025642025648b
:101a3c000d0a0000454344534120637572766520be
:101a4c004944202564206e6f742068616e646c6557
:101a5c00640d0a0045585443525950544f20414587
:101a6c00434342204f702074797065202564206eaa
:101a7c006f742068616e646c65640d0a0000000070
:101a8c004d5154542041454343422070726f706550
:101a9c00727479202564206e6f742068616e646c9a
:101aac0065640d0a000000004e4554494643204928
:101abc0044202564206e6f742068616e646c6564cc
:101acc000d0a00004f54412041454343422073749a
:101adc0061747573202564206e6f742068616e6468
:101aec006c65640d0a00000050505320414543437f
:101afc00422049442025303478206576656e742068
:101b0c00756e68616e646c65640d0a004a4f494ecf
:101b1c003a204173736f63696174696f6e20666fed
:101b2c00756e6420666f72206e657720636f6e6ec3
:101b3c00656374696f6e0d0a000000004a4f494ed0
:101b4c003a204e6577206173736f63696174696fb6
:101b5c006e206661696c65640d0a00004a4f494e3f
:101b6c003a204e6f206173736f63696174696f6e95
:101b7c0020666f756e640d0a0000000057494649d7
:101b8c004320436f6578204944202564206e6f7490
:101b9c002068616e646c65640d0a00005749464903
:101bac00432049442852737029202564206e6f7499
:101bbc002068616e646c65640d0a00005b4e4554d0
:101bcc005d3a416464696e67204349442025640d85
:101bdc000a0000005b4e45545d3a417661696c61c8
:101bec00626c6520434944733a0d0a005b4e4554c0
:101bfc005d3a4349443a2025642c20736f636b3a59
:101c0c0025642c20706f72743a25752c2069703afb
:101c1c002025730d0a0000005b4e45545d3a546854
:101c2c0065206c69737420697320656d7074790d0f
:101c3c000a0000005b4e45545d3a66205359535fd1
:101c4c0057494e43535f4e45545f536f636b6574f6
:101c5c004576656e7443616c6c6261636b2c2073aa
:101c6c006f636b6664203a202564206576656e741c
:101c7c00203a2025640d0a005b4e45545d3a4552ce
:101c8c00524f52203a204e65742043616c6c626155
:101c9c00636b204e554c4c005b4e45545d3a45529f
:101cac00524f523a20536f636b6574206572726f9a
:101cbc00722025642066726f6d206576656e7420c7
:101ccc0025640d0a000000005b4e45545d3a4552f8
:101cdc00524f523a204661696c656420746f2062e1
:101cec00696e6420736f636b65740d0a00000000ed
:101cfc005b4e45545d3a536f636b657420256420cd
:101d0c0073657373696f6e204944203d2025640d03
:101d1c000a0000005b4e45545d3a736574736f6343
:101d2c006b6f707420535543434553530d0a000099
:101d3c005b4e45545d3a736574736f636b6f70746f
:101d4c00204641494c20206572726e6f203a202546
:101d5c00640d0a005b4e45545d3a4552524f523a5f
:101d6c00204661696c656420746f20636f6e6e65cc
:101d7c00637420746f207468652073657276657265
:101d8c00210d0a005b4e45545d3a536f636b6574cd
:101d9c00204c697374656e696e672e2e2e2e2e2e56
:101dac000d0a00005b4e45545d3a57494e435f5354
:101dbc004f434b45545f4556454e545f434f4e4e33
:101dcc004543545f5245510d0a0000005b4e45548b
:101ddc005d3a416363657074206572726f72210d98
:101dec000a0000005b4e45545d3a57494e435f5321
:101dfc004f434b45545f4556454e545f434f4e4ef3
:101e0c004543540d0a0000005b4e45545d3a57495a
:101e1c004e435f534f434b45545f4556454e545fbd
:101e2c00544c535f434f4e4e4543540d0a00000033
:101e3c005b4e45545d3a536f636b6574202564208b
:101e4c0073656e6420636f6d706c657465640d0ae8
:101e5c00000000005b4e45545d3a57494e435f53ba
:101e6c004f434b45545f4556454e545f5245435680
:101e7c002066726f6d20736f63203a2025640d0a03
:101e8c00000000005b4e45545d3a4552524f523aa9
:101e9c00204661696c656420746f2073656e6420e4
:101eac00746f20736f636b65742025642028256420
:101ebc00290d0a005b4e45545d3a4552524f522053
:101ecc003a20556e6b6e6f776e204e65742053659d
:101edc00727669636520526571756573740d0a00bd
:101eec005b574946495d3a5359535f57494e4353e3
:101efc005f574946495f436f6e6e6563744e6f74ee
:101f0c0069667943616c6c6261636b203a2063751e
:101f1c007272656e7453746174652025640d0a00c9
:101f2c005b574946495d3a444e53207265736f6c5a
:101f3c0076652054696d65204f75742028256429b9
:101f4c000d0a00005b574946495d3a444e532072d6
:101f5c0065736f6c7665204572726f7220282564ec
:101f6c00290d0a005b574946495d3a444e5320728d
:101f7c0065736f6c76652074797065206572726f0d
:101f8c007220282564290d0a000000005b57494681
:101f9c00495d3a4e6f20415020466f756e64205259
:101fac00657363616e0d0a005b574946495d3a23c0
:101fbc00253032640d0a00005b574946495d3a3eb4
:101fcc003e232020524920205265636f6d6d656e53
:101fdc006420434820425353494420202020202091
:101fec0020202020202020535349440d0a000000bb
:101ffc005b574946495d3a3e3e2320202020202055
:10200c004175746820547970650d0a3e3e230d0aa3
:10201c00000000005b574946495d3a4173736f639a
:10202c00696174696f6e20737461746520697320c3
:10203c00636f6e6e65637465640d0a005b57494689
:10204c00495d3a57696669205374617465203a3a60
:10205c0020434f4e4e4543544544203a3a204d417f
:10206c0043203a20253032583a253032583a253020
:10207c0032583a253032583a253032583a253032d7
:10208c00580d0a005b574946495d3a4173736f63bb
:10209c00696174696f6e2073746174652069732053
:1020ac00636f6e6e656374696e672e2e2e2e2e2ee8
:1020bc000d0a00005b574946495d3a4173736f63e3
:1020cc00696174696f6e2073746174652069732023
:1020dc00636f6e6e656374696f6e206661696c65a3
:1020ec00642e200d0a0000005b574946495d3a41b9
:1020fc0073736f63696174696f6e20737461746557
:10210c0020697320646973636f6e6e6563746564b4
:10211c002e200d0a000000005b574946495d3a41ec
:10212c0073736f63696174696f6e20737461746526
:10213c0020697320726f616d65642e200d0a00009a
:10214c0066653830000000005b574946495d3a200f
:10215c004e6574776f726b20696e7465726661631d
:10216c00652075702e200d0a0000000054696d6505
:10217c0020555443203a2025640d0a0054696d659e
:10218c003a20253032643a253032643a25303264b4
:10219c00206f6620253032642f253032642f253095
:1021ac0032640d0a000000004552524f5221212189
:1021bc00203a2046756e6374696f6e2025732c204f
:1021cc004c696e65204e6f203a2025642c20537488
:1021dc0061747573203a2025640d0a00416374699b
:1021ec00766500005b574946495d3a4e6f20526553
:1021fc0067756c61746f727920446f6d61696e7371
:10220c0020446566696e65640d0a00005b5749469b
:10221c00495d3a232e2020204343202020202020db
:10222c004368616e6e656c732056657220537461e1
:10223c007475730d0a0000005b574946495d3a25d9
:10224c003032643a205b252d36735d203078253092
:10225c002d36782025642e25642025730d0a000068
:10226c005b574946495d3a444f4e45200d0a0000e4
:10227c005b574946495d3a4552524f52203a2044e9
:10228c0072697665722048616e646c6520496e7661
:10229c00616c69640d0a00005b574946495d3a5b05
:1022ac004552524f525d203a20494e56414c4944ba
:1022bc005f504152414d4554455220666f7220414a
:1022cc00555448454e5449434154494f4e0d0a000c
:1022dc005b574946495d3a5b574946495d203a2070
:1022ec00436f6e6e656374696e6720746f20415026
:1022fc00203a2025730d0a005b574946495d3a4543
:10230c0052524f52203a20556e6b6e6f776e20579b
:10231c0069666920536572766963652052657175cb
:10232c006573740d0a0000000d0a55534220446574
:10233c0076696365204c617965723a20436f6e74df
:10234c00726f6c207472616e736665722048616e78
:10235c00646c6572206973204e554c4c0000000073
:10236c000d0a55534220446576696365204c6179aa
:10237c0065723a20496e76616c696420696e73747b
:10238c00616e6365496e6465782076616c75650075
:10239c000d0a55534220446576696365204c61797a
:1023ac0065723a20496e697469616c697a61746905
:1023bc006f6e2064617461206973204e554c4c0023
:1023cc000d0a55534220446576696365204c61794a
:1023dc0065723a20555342204d61737465722044e6
:1023ec00657363726970746f72207461626c6520be
:1023fc006973204e554c4c000d0a555342204465d0
:10240c0076696365204c617965723a20496e766114
:10241c006c69642053797374656d204d6f64756cb1
:10242c0065204f626a656374000000000d0a555305
:10243c004220446576696365204c617965723a2067
:10244c0053797374656d204d6f64756c65204f62a4
:10245c006a65637420697320696e76616c696400c7
:10246c000d0a55534220446576696365204c6179a9
:10247c0065723a20696e7374616e6365496e64654a
:10248c007820697320696e76616c696400000000c5
:10249c000d0a55534220446576696365204c617979
:1024ac0065723a20446576696365204c6179657282
:1024bc00206973206e6f7420726561647920746f6b
:1024cc00206265206f70656e656400000d0a5553bf
:1024dc004220446576696365204c617965723a20c7
:1024ec004e6f206672656520636c69656e74206f33
:1024fc00626a6563747300000d0a5553422044658b
:10250c0076696365204c617965723a20496e766113
:10251c006c69642068616e646c6500000d0a55532b
:10252c004220446576696365204c617965723a2076
:10253c00496e76616c696420636c69656e742068a1
:10254c00616e646c650000000d0a555342204465b1
:10255c0076696365204c617965723a20496e7661c3
:10256c006c69642048616e646c6500000d0a5553fb
:10257c004220446576696365204c617965723a2026
:10258c00496e76616c696420436c69656e74204891
:10259c00616e646c650000000d0a55534220446561
:1025ac0076696365204c617965723a20496e766173
:1025bc006c696420706f696e74657220746f20632f
:1025cc006f6e66696775726174696f6e206465738e
:1025dc0063726970746f72000d0a55534220446522
:1025ec0076696365204c617965723a204869676841
:1025fc002073706565642064657669636520646525
:10260c007363726970746f72206973204e554c4cf1
:10261c00000000000d0a555342204465766963653d
:10262c00204c617965723a2046756c6c2f4c6f7733
:10263c0020737065656420646576696365206465e4
:10264c007363726970746f72206973204e554c4cb1
:10265c00000000000d0a55534220446576696365fd
:10266c00204c617965723a20556e6b6e6f776e20d7
:10267c00436f6e74726f6c205472616e7366657208
:10268c002072656365697665642066726f6d20489b
:10269c006f7374005553422044657669636520431b
:1026ac0044433a20496e76616c696420696e6465b6
:1026bc0078000000555342204465766963652043d9
:1026cc0044433a20496e76616c696420696e746586
:1026dc0072666163652070726573656e74656420e3
:1026ec00746f20434443200055534220446576695f
:1026fc006365204344433a2043616e6e6f742068d7
:10270c00616e646c65207468697320656e64706fab
:10271c00696e742074797065000000005553422076
:10272c00446576696365204344433a20496e76617b
:10273c006c69642043444320696e64657800000032
:10274c0055534220446576696365204344433a20df
:10275c00496e76616c696420696e7374616e636531
:10276c00000000004d61745f6e6574004f4b30319a
:10277c003330406a756c7930373230003139322e53
:10278c003136382e312e30007b224d435520534e9e
:10279c00223a5b25752c25752c25752c25755d2c01
:1027ac00224649524d574152452056455253494fa6
:1027bc004e223a252e32662c22434841524745522e
:1027cc0020535441545553223a25752c22424154de
:1027dc005445525920564f4c54414745223a252ec8
:1027ec0032662c2254454d50455241545552452287
:1027fc003a252e32662c22505245535355524522bf
:10280c003a252e32667d00004150505f535441549e
:10281c00455f494e49540d0a0000000057494e438c
:10282c005330325f4452495645525f5354415445dc
:10283c005f434845434b5f4452495645525f53549e
:10284c00415455530d0a000057494e435330325fe3
:10285c004452495645525f53544154455f57414980
:10286c00545f464f525f424f4f540d0a0000000018
:10287c0057494e435330325f4452495645525f5389
:10288c00544154455f4f50454e5f44524956455252
:10289c000d0a000057494e435330325f445249569b
:1028ac0045525f53544154455f574946495f434134
:1028bc004c4c4241434b5f52454749535445520d92
:1028cc000a00000057494e435330325f4452495678
:1028dc0045525f53544154455f534f434b45545fee
:1028ec0043414c4c4241434b5f524547495354453d
:1028fc00520d0a0057494e435330325f44524956e9
:10290c0045525f53544154455f574946495f4346ce
:10291c00470d0a0057494e435330325f44524956d3
:10292c0045525f53544154455f574946495f434fa5
:10293c004e4e4543540d0a0057494e435330325fb7
:10294c004452495645525f53544154455f5741498f
:10295c00545f464f525f495056340d0a0000000038
:10296c0057494e435330325f4452495645525f5398
:10297c00544154455f5443505f434c49454e545f5a
:10298c00434f4e4e4543540d0a00000057494e43e9
:10299c005330325f4452495645525f53544154456b
:1029ac005f574149545f464f525f5443505f434f0a
:1029bc004e4e4543540d0a0057494e435330325f37
:1029cc004452495645525f53544154455f49444c17
:1029dc00450d0a0057494e435330325f4452495615
:1029ec0045525f53544154455f4552524f520d0a64
:1029fc000000000054696d653a20256c640d0a00d6
:102a0c00526573657420726561736f6e3a2025731d
:102a1c000d0a0000506f776572204f6e205265735f
:102a2c00657400004e6f6e650000000042726f7797
:102a3c006e204f757420564444434f5245204465d4
:102a4c00746563746f7220526573657400000000c6
:102a5c0042726f776e204f7574205644442f415646
:102a6c004444204465746563746f722052657365c9
:102a7c007400000042726f776e204f7574205644bc
:102a8c0044504c4c204465746563746f72205265dd
:102a9c007365740045787465726e616c2052657351
:102aac00657400005761746368646f6720526573c6
:102abc006574000053797374656d20526573657489
:102acc0020526571756573740000000054656d705b
:102adc00657261747572653a20252e326620b0439a
:102aec000d0a50726573737572653a20252e326625
:102afc002050610d0a0000004261747465727920e7
:102b0c00766f6c746167653a20252e326620560dff
:102b1c000a414443207261772076616c75653a20d6
:102b2c0025750d0a53544154312070696e2073740d
:102b3c00617475733a2025750d0a53544154322033
:102b4c0070696e207374617475733a2025750d0a63
:102b5c00000000004d43552073657269616c206e56
:102b6c00756d6265723a2025386c5825386c58257d
:102b7c00386c5825386c580d0a4657207665727398
:0c2b8c00696f6e3a20252e32660d0a009b
:020000040000fa
:102b9800f0b5de4657464e464546e0b585b00500d9
:102ba8004378002b00d1a2e0836b002b00d1b2e068
:102bb800446aa38b9b0505d5238b9b0502d540f260
:102bc8000023a383a38bdb0505d5238bdb0502d567
:102bd80040f20013a383a38b1b0604d5238b1b068b
:102be80001d58023a383a38b5b0604d5238b5b06c7
:102bf80001d54023a383a38b9b0604d5238b9b0677
:102c080001d52023a383a38bdb070dd5238bdb07fb
:102c18000ad50123a383a3820f33a3832383686b7d
:102c2800ab6b002204219847a38bdb060dd5238bc1
:102c3800db060ad51023a383a3820f3ba383238338
:102c4800686bab6b002203219847a38b5b0709d500
:102c5800238b5b0706d50423a383686bab6b002229
:102c680007219847a38b1b0702d5238b1b075fd42b
:102c780040f20713e35cdb0600d47de040f2091361
:102c8800e35cdb0600d477e06e6cf37902229343b1
:102c9800f371f37b9343f3733768002f66d0296d84
:102ca8003868063214f06cff40f207131022e25421
:102cb800033b3032e25439688a79cb791b021343db
:102cc800072233b10a787f2393429b4104221a409a
:102cd80002322123ea541f3b3b7206337b60bb69f7
:102ce8003360fb68002b47d03800984744e015f064
:102cf800abf9022806d805b0f0bcbb46b246a946d7
:102d0800a046f0bd15f09af941f24c01c0f200015d
:102d180013f0e9faefe715f097f90228ebd915f067
:102d28008df941f2ac01c0f2000113f0dcfae2e7e0
:102d380021230022ea54237b48f2cc12c0f201027c
:102d48001b079b0fd25c3023ea54280050306022c6
:102d5800002114f01fffab6b1bb1686b002202212e
:102d680098478023a372783ba38381e7212301221c
:102d7800ea54e7330f32e25440f20713e35c9b074f
:102d88002ed540f20913e35c9b0729d56b6c9e682e
:102d980036b32122aa5c082a13d0326a002a6bd1e2
:102da8003269110655d580218a4332616b6e9b0bbf
:102db8009b036b6640f207130222e254023be15484
:102dc8000ee0002221216a543272b1699960726062
:102dd800f3680bb13000984740f207130222e2541f
:102de80040f20713e35cdb0700d49ce040f20913d0
:102df800e35cdb0700d496e06f6c2123eb5c052bca
:102e08005bd03e68002e72d06b6d43f6ff721a409d
:102e18009046336a72684146c918914202d9d21a5b
:102e280092b29046296d3068c018424614f0a8fe48
:102e3800336a43443362726893425fd2b98841452a
:102e48005cd840f204134022e25403333f3ae25480
:102e580069e021220521a95400223272b2699a60e0
:102e6800f3680bb13000984740f207130222e2548e
:102e7800033b3e32e254b3e79f89ba4200d897b287
:102e8800286e73689b1a3168c9183a0014f078fee6
:102e9800336adb1b33626b6e9b0b9b036b666a6e3c
:102ea80043f6ff733b4013436b6640f2071302225d
:102eb800e254023b7e32e25492e7386880b1002344
:102ec80003722122ab54e6320121a154033a3f3167
:102ed800a15482693a604360c36823b3984722e0eb
:102ee80021230422ea54e733033ae2541be0212366
:102ef8000322ea54e733023ae25414e093429b4136
:102f08005b42337221230722ea54e633063ae2543d
:102f1800033b3f32e254b3693b60336a7360f36842
:102f28000bb130009847012640f2010863e0002306
:102f3800037283695a469360c36803b198475b4636
:102f48009b680bb3186a5a469189884200d881b2a7
:102f58005a68121a18688018ef193866186a401ae1
:102f680018627b6e9b0b9b037b66786e43f6ff7340
:102f78000b4003437b6640f207130a225146ca54aa
:102f8800023b7632ca5433e0019b5f01e7190937e7
:102f9800ff370a233b7040f2071251468b5427e053
:102fa8005a4691898b4200d899b24268d31a02686e
:102fb800d218eb191a66026a521a02625a6e920bfa
:102fc80092035a66586e43f6ff720a4002435a66e5
:102fd80040f207130a225146ca54019b5f01e719c0
:102fe8000a37ff3702233b700433ff337632ca5463
:102ff8000136032e51d0238c9bb20196f3404246f2
:103008001a42f5d07301e3180a33ff331b78dbb299
:1030180003937701e3199a4640f207135246d35cab
:10302800dbb20293039a029b1b0711d512070fd537
:10303800eb196a331b789b070ad5eb196a331a78a0
:1030480002218a431a7040f2071308225146ca54d3
:10305800039a029b9b07cbd59207c9d52b00443313
:10306800b2009b589b4698680028c1d0036a002b81
:1030780096d103691a0600d459e780229343036165
:10308800ef197b6e9b0b9b037b6640f207130a21ab
:103098005046c154023bc254aae7023e40f201081e
:1030a80021e000230372836952461360036a436078
:1030b800c36803b1984753461b68002b6ed01a6843
:1030c8007f01eb191a65052340f2071249468b5414
:1030d800e7190a37ff373b70ff33c73aca5401363e
:1030e800032e00d107e6238c9bb23700f3404246fb
:1030f8001a42f4d07301e3180a33ff331b78dbb2aa
:10310800039373019946a14440f207134a46d35cde
:10311800dbb20293029b5b0711d57301eb185a339c
:103128001b789b0706d57301eb185a331a780221ce
:103138008a431a7040f2071304224946ca54039a74
:10314800029b41461942cad01142c8d02b004433d1
:10315800b2009b589a4618680028c0d07b01eb182b
:103168005b6d43f6ff721a40036ad3180362416825
:103178008b4296d25146898891420dd80268d3185d
:103188007f01ef193b6540f2071305224946ca54ef
:10319800033b3b32ca54a2e7012383e77f01e719c7
:1031a8000937ff3705233b7040f2071249468b5415
:0231b80095e799
:020000040000fa
:0231ba0070475c
:020000040000fa
:1031bc0070b582b00c00152800d9c6e28000d64b41
:1031cc001b589f4600230b6046f24053c2f200038b
:1031dc00986814f083f8206047f61411c0f20101ce
:1031ec0040f25d32002012f0e7ff02b070bd46f2f3
:1031fc00a873c2f200031b68013307d046f2a87310
:10320c00c2f200031b6823600020eee700210020bf
:10321c000ef09dfc46f2a873c2f200031860013058
:10322c00ecd142f27c21c0f2000100200ef074ffc0
:10323c0047f61411c0f2010140f26832002012f07e
:10324c00bbffd2e746f2a873c2f200031b680b6007
:10325c000020cae742f69d21c0f2010146f2a87394
:10326c00c2f20003186811f011fa47f61411c0f2fb
:10327c00010140f2793212f09fffb6e746f2a873d3
:10328c00c2f2000318680ff07fffc8b946f2a873aa
:10329c00c2f200031868012111f0e8f8c8b946f22f
:1032ac00a873c2f200031868012111f0b1f847f6b7
:1032bc001411c0f2010140f28c3212f07dff94e740
:1032cc0047f61411c0f2010140f2823212f074ff81
:1032dc008be747f61411c0f2010140f2883212f06c
:1032ec006bff82e743f23141c0f2010146f2a87351
:1032fc00c2f20003186813f0b5fe00bb46f234634b
:10330c00c2f2000346f2f012c2f2000246f2904101
:10331c00c2f2000146f2a870c2f20000006844f24a
:10332c00f164c0f20104009405f096ff47f6141105
:10333c00c0f2010140f29a3212f03eff55e747f617
:10334c001411c0f2010140f2963212f035ff4ce735
:10335c0046f2a873c2f20003186811f03ef947f662
:10336c001411c0f2010140f2a13212f025ff3ce72a
:10337c0046f2a873c2f20003186810f099fe90b9d7
:10338c0046f2a873c2f20003186800230022002141
:10339c0010f0f9f947f61411c0f2010140f2ae3207
:1033ac0012f00aff21e747f61411c0f2010140f2b6
:1033bc00aa3212f001ff18e7097846f29040c2f2e7
:1033cc00000013f003fe47f61411c0f2010140f2a5
:1033dc00b63212f0f1fe08e746f29040c2f200005d
:1033ec0011f044ff47f61411c0f2010140f2be3255
:1033fc00002012f0e1fef8e646f23463c2f200035c
:10340c00621e94411c7447f61411c0f2010140f283
:10341c00c632002012f0d0fee7e6486814f05cfae1
:10342c00060046f29040c2f2000013f060fc05006a
:10343c0048b147f61411c0f2010140f2cd32280018
:10344c0012f0bafed1e646f2f010c2f2000014f00f
:10345c0019f905000028ecd1f2b2616846f29040ef
:10346c00c2f2000011f0dffe05000028e1d1237b41
:10347c00052b55d89b00294ad3589f4646f2f0108d
:10348c00c2f2000014f0eefc05002378002b4fd1a3
:10349c00637b002bcdd043f23141c0f2010146f2e7
:1034ac00a875c2f20005286813f0dcfd42f2dc219d
:1034bc00c0f20001626800200ef02efe46f234636a
:1034cc00c2f2000346f2f012c2f2000246f2904140
:1034dc00c2f2000144f2f160c0f2010000902868d1
:1034ec0005f0bafe0500a4e70321200013f076ffd7
:1034fc000500cae70221200013f070ff0500c4e7a5
:10350c000421200013f06aff0500bee7052120000e
:10351c0013f064ff0500b8e774320100cc320100ef
:10352c0042f2a421c0f2000100200ef0f5fd80e76c
:10353c00012b00d07de7a17b46f29040c2f2000047
:10354c0013f044fd0500002800d072e746f2346603
:10355c00c2f20006300013f0d1fee37b337468e74f
:10356c0046f23463c2f2000346f2f012c2f20002d9
:10357c0046f29041c2f2000146f2a870c2f200007d
:10358c00006841f62554c0f20104009406f00afbd1
:10359c0047f61411c0f2010140f2d43212f00cfec5
:1035ac0023e64b8846f2a872c2f200021068002291
:1035bc00009200210af06ffeb8b9217846f2a87388
:1035cc00c2f20003186844f20533c0f20103009301
:1035dc000023002209f062f947f61411c0f2010130
:1035ec0040f2e43212f0e8fdffe547f61411c0f2a8
:1035fc00010140f2df3212f0dffdf6e514f0c6fdfa
:10360c0046f2ce63c2f2000300221a7014f0c2fd1f
:10361c00217846f2a873c2f20003186844f205330d
:10362c00c0f2010300930023012209f037f947f699
:10363c001411c0f2010140f2ef3212f0bdfdd4e5dd
:10364c00c1b1080014f048f946f2bf53c0f20103af
:10365c00c2b246f2a871c2f20001086821000df056
:10366c00c7f847f61411c0f2010140f2fc3212f017
:10367c00a3fdbae547f61411c0f2010140f2f7328e
:10368c00022012f099fdb0e541f27f22c0f2010256
:10369c0046f2a873c2f20003186802210df093fde4
:1036ac0047f61411c0f2010140f2034212f084fdfe
:1036bc009be50b7883b146f2a873c2f2000318683d
:1036cc00012110f001ff47f61411c0f2010140f284
:1036dc00124212f071fd88e546f2a873c2f20003a3
:1036ec001868002110f0f0feede746f2e863c2f234
:1036fc0000035960002078e546f2e863c2f200034b
:10370c001960002071e546f2a873c2f20003186834
:10371c0041f64f03c0f20103009364230a00012118
:10372c000df0fdfd47f61411c0f2010140f22a42e2
:10373c0012f042fd59e546f2e863c2f200031a6842
:10374c000a605b684b6000204fe542f20431c0f226
:10375c00000100200ef0e0fc0120404245e5c0468f
:020000040000fa
:10376c00f0b58fb014000ab113790bb90fb0f0bdde
:10377c00170010372e2502ab9c46654402232a0005
:10378c00022138000bf0e6f92e88cd49002244f6d0
:10379c007000c2f2000004e0013284310a2a00d128
:1037ac009ee253019b189b001b5cdb07f4d50b8836
:1037bc00b342f1d144f67001c2f2000153019b18df
:1037cc009b005b5cdb07d1d553019b189b0044f637
:1037dc007002c2f200029d18227902926388b949e4
:1037ec008c46634499b20529c0d88b00b649cb5896
:1037fc009f460025029b052bb8d1002715b3217ecf
:10380c002823e25c91420ad046f21073c2f2000304
:10381c001b6823b141f61400c0f200009847217eca
:10382c00082948d0092900d186e046f21073c2f26b
:10383c0000031b68002b99d041f24060c0f20000dd
:10384c00984793e711f0beff050030b303780122cf
:10385c0013430370022303728680db024367836782
:10386c0005237c2283540132835446f21873c2f22e
:10387c0000031b68033283500127002bbfd146f293
:10388c001073c2f200031b68002b00d16ee741f2eb
:10389c00dc70c0f20000984768e746f21073c2f281
:1038ac0000031b68002b00d160e741f2b870c0f236
:1038bc00000098475ae70426ae812a0010322000f7
:1038cc00183004230bf046f92000203002232a0084
:1038dc000e3202210bf03ef9eb895bbaeb812e859f
:1038ec002a002c3220002830042308210bf032f956
:1038fc002000303002232a002a3202210bf02af950
:10390c006b8d5bba6b856b781bb92b7804221343d8
:10391c002b70002f00d184e02b78db0756d52f7a43
:10392c00022f02d0eb88fd2b50d144f67002c2f26c
:10393c000002002310002ce00626ae812a0014326f
:10394c002000183010230bf005f920002030022342
:10395c002a000e3202210bf0fdf8eb895bbaeb81e9
:10396c002e852a00303220002830102309210bf03c
:10397c00f1f82000303002232a002a3202210bf009
:10398c00e9f86b8d5bba6b85bde7013384320a2b8a
:10399c001cd014009542f8d05901c9188900095c53
:1039ac00c907f2d55901c9188900095c8907ecd5fa
:1039bc00117ab942e9d1ee89d1898e42e5d11378d9
:1039cc00db0712d4280012f09dfbcfe646f21073f1
:1039dc00c2f200031b6823b141f64800c0f200009c
:1039ec009847280012f08efbc0e60022022120002e
:1039fc0013f03afa227860231a402b7860218b431b
:103a0c0013432b70637a6b72e388eb80636f6b6785
:103a1c00a36fab677c23e25cea540133e25cea54ab
:103a2c00a4e62b785b0700d4a0e600220321280033
:103a3c0013f01afa9ae62b78602119420ed1029be8
:103a4c00022b00d092e62a004632200018305e3954
:103a5c000bf080f828000bf0c4ff87e61600033a41
:103a6c00012a00d982e62000183002230e2202a976
:103a7c008c46624403210bf06df8029b042b27d07b
:103a8c000e2302aa944663441a88104bf318db00e9
:103a9c00fb18596828004c3001230093002308f0d0
:103aac0088fde8b946f21073c2f200031b68002bc4
:103abc0000d15be641f28070c0f20000984755e6f9
:103acc007448002000f2fffff4670100ffffff1fa6
:103adc0020002030023b06aa03210bf03bf8cfe775
:103aec002a78102313432b7000220521280013f091
:103afc00bbf93be60025002d00d137e62b78602181
:103b0c0019421dd00392053a012a00d92ee6ab6d5d
:103b1c0013b3da781b789a422cd0217e082937d03f
:103b2c00092973d046f21073c2f200031b68002bf4
:103b3c0000d11be641f24060c0f20000984715e648
:103b4c002a0046322000283002235e390bf002f89e
:103b5c0028000bf046ff09e646f21073c2f2000390
:103b6c001b68002b00d101e641f22870c0f2000066
:103b7c009847fbe546f21073c2f200031b68002b5a
:103b8c0000d1f3e541f25870c0f200009847ede522
:103b9c0006ae042333802000183007aa0af0daff9f
:103bac00200020300223122202a98c466244190004
:103bbc000af0d0ff73885bba738020002830022390
:103bcc0005aa03210af0c6ff029b062b35d005abd4
:103bdc001a88039b49498c466344db00fb185968df
:103bec0028004c300123009306ab08f0e2fc78bbb4
:103bfc0046f21073c2f200031b68002b00d1b5e52e
:103c0c0041f28070c0f200009847afe506ae062383
:103c1c003380200018300a3308aa0af09bff2000da
:103c2c0020300223122202a98c46624419000af0a9
:103c3c0091ff73885bba7380bfe720003030043b80
:103c4c000e2202a98c46624403210af083ffbee7d0
:103c5c002a78102313432b7000220521280013f01f
:103c6c0003f983e50025029b012b00d07ee5002d96
:103c7c0000d17be52b78042293432b707a32ab5a1c
:103c8c0010210b43ab5271e50025029b012b00d098
:103c9c006ce5002d00d169e52b78042213432b70c1
:103cac0000236b7000220321280013f0ddf80022a2
:103cbc000721280013f0d8f858e50025029b022ba9
:103ccc0000d053e5002d00d150e57e22ab5a0821df
:103cdc000b43ab527d3a0821280013f0c5f845e59b
:103cec0022790292638806498c46634499b205296d
:103cfc0000d93be58b000349cb589f46ffffff1fc4
:083d0c0000f2ffff0c6801004a
:020000040000fa
:103d140010b546f26053c2f200031a78192a10d87b
:103d24009300cd4ad3589f4614f01bf8032100207a
:103d340006f0f2ff46f26053c2f20003586001221b
:103d44001a7010bd46f26053c2f200035b6801337f
:103d540006d046f26053c2f2000302221a70f0e762
:103d640046f26053c2f2000319221a70e9e746f2e0
:103d74006054c2f20004a07b12f086fe13f0c4ff6c
:103d840003232370dde746f26053c2f20003986810
:103d94000ff03aff012818d046f26053c2f2000334
:103da40098680ff031ff013018d014f0d0f80028d3
:103db400c7d0002014f06ef913f0afff46f2605341
:103dc400c2f2000318221a70bbe713f0a6ff46f2f2
:103dd4006053c2f2000304221a70b2e713f09dff8d
:103de40046f26053c2f2000319221a70a9e713f0d5
:103df400bcfd46f26053c2f2000305221a70a0e72c
:103e040046f26054c2f20004a07b12f069fd13f084
:103e14007bff0623237094e746f26053c2f200034b
:103e240098680ff0f1fe012819d046f26053c2f2ef
:103e3400000398680ff0e8fe013019d014f087f8f9
:103e4400002800d17de7002014f024f913f065ff69
:103e540046f26053c2f2000318221a7071e713f09d
:103e64005cff46f26053c2f2000307221a7068e74f
:103e740013f053ff46f26053c2f2000319221a7082
:103e84005fe713f07dfd46f26053c2f2000308229f
:103e94001a7056e746f26054c2f20004a07b012176
:103ea40012f068ff13f030ff0923237049e746f24c
:103eb4006053c2f2000398680ff0a6fe012819d0df
:103ec40046f26053c2f2000398680ff09dfe013081
:103ed40019d014f03cf8002800d132e7002014f087
:103ee400d9f813f01aff46f26053c2f20003182205
:103ef4001a7026e713f011ff46f26053c2f2000372
:103f04000a221a701de713f008ff46f26053c2f24a
:103f1400000319221a7014e746f26054c2f2000436
:103f2400a07b402112f050ff13f0eefe0b23237010
:103f340007e746f26053c2f2000398680ff064fe8c
:103f4400012819d046f26053c2f2000398680ff0ba
:103f54005bfe013019d013f0faff002800d1f0e61f
:103f6400002014f097f813f0d8fe46f26053c2f222
:103f7400000318221a70e4e613f0cffe46f26053f1
:103f8400c2f200030c221a70dbe613f0c6fe46f2fe
:103f94006053c2f2000319221a70d2e646f260534b
:103fa400c2f200031b7b002b00d1cae646f2605329
:103fb400c2f200030d221a70c3e646f26054c2f244
:103fc4000004a07b022112f014ff13f09dfe0e23c7
:103fd4002370b6e646f26053c2f2000398680ff00d
:103fe40013fe012819d046f26053c2f20003986808
:103ff4000ff00afe013019d013f0a9ff002800d1f8
:104004009fe6002014f046f813f087fe46f2605352
:10401400c2f2000318221a7093e613f07efe46f2f1
:104024006053c2f200030f221a708ae613f075fe81
:1040340046f26053c2f2000319221a7081e646f276
:104044006054c2f20004a07b12f07afc13f05cfe10
:104054001023237075e6c046d83a010046f2605337
:10406400c2f2000398680ff0cffd012819d046f280
:104074006053c2f2000398680ff0c6fd013019d0f6
:1040840013f065ff002800d15be6002014f002f86d
:1040940013f043fe46f26053c2f2000318221a7072
:1040a4004fe613f03afe46f26053c2f200031122c7
:1040b4001a7046e613f031fe46f26053c2f2000372
:1040c40019221a703de613f066fc46f26053c2f200
:1040d400000312221a7034e646f25833c2f2000387
:1040e400db7b012b06d046f26053c2f200030f22a1
:1040f4001a7026e646f26053c2f2000313221a70c5
:104104001fe646f26054c2f20004a07b12f000fce9
:1041140013f0fafd1423237013e646f26053c2f23f
:10412400000398680ff070fd012819d046f260531f
:10413400c2f2000398680ff067fd013019d013f044
:1041440006ff002800d1fce5002013f0a3ff13f0c4
:10415400e4fd46f26053c2f2000318221a70f0e53f
:1041640013f0dbfd46f26053c2f2000315221a700d
:10417400e7e513f0d2fd46f26053c2f200031922c0
:104184001a70dee512f00bfe46f26053c2f2000331
:1041940016221a70d5e512f041fe12f054fe46f2d2
:1041a4006053c2f2000317221a70cae546f258336c
:1041b400c2f20003d96a986a13f0adfe46f2605366
:1041c400c2f2000301225a730b321a70b9e546f2a7
:1041d4006054c2f2000460680ff096f9012013f0f5
:1041e400a1ff13f0a3fd012363730b332370a8e530
:1041f40046f26054c2f2000460680ff085f90120b1
:1042040013f090ff13f092fd012363730b332370bb
:0442140097e5c04624
:020000040000fa
:1042180070b58cb004000d0001235b420b930ba911
:104228000220fef7c7ff0d2c00d94ee2a400c54bb3
:104238001b599f46002d4dd0286804a909f008f89d
:1042480010b90120404256e0686803a909f000f857
:1042580010b9012040424ee00b981823009304ab9c
:10426800012200210bf00afec8b90b9803aa00210d
:104278000ff0b3ffe0b946f25f73c0f201030b9889
:10428800012200210ff081fad8b947f63401c0f2b3
:10429800010140f2a432002011f090ff2be047f614
:1042a8003401c0f2010140f2953211f087ff22e09b
:1042b80047f63401c0f2010140f29b3211f07eff53
:1042c80019e047f63401c0f2010140f2a13211f0c1
:1042d80075ff10e0012040420de00b9800230022fa
:1042e80000210ff052fa47f63401c0f2010140f202
:1042f800ab3211f063ff0cb070bd44f6a131c0f2cf
:1043080000010b9812f077fe2c7b63425c416442fb
:104318000f239c4320346b78022b0ad0012b0cd03e
:104328002b78012b0dd0002b52d102231c43e4b271
:1043380009e004231c43e4b2f2e708231c43e4b277
:10434800eee71c43e4b26b7b042b47d06968002975
:1043580059d046f25862c2f20002062006f02af846
:10436800012800d0b5e006266b78022b4dd0012b32
:104378005bd0042e60d047f6c051c0f2010146f26e
:104388005860c2f20000102213f00afa002873d114
:1043980004ae06233380688813f00eff708047f65a
:1043a800c053c0f2010306aa43cb43c21b68136083
:1043b8002b78012b71d0002b00d17de047f634011a
:1043c800c0f2010140f2b632002011f0f7fe92e788
:1043d800022bb8d140231c43e4b2b4e7696851b159
:1043e80046f25862c2f20002042005f0e3ff0128f9
:1043f8006fd10426b8e746f25863c2f200030022e0
:104408001a600426b0e70626aee72b7b33b1fd22ff
:104418000221300006f0c9f8a860aae706220221a6
:10442800300006f0c2f8a860a3e71122012130008d
:1044380006f0bbf8a8609ce746f25863c2f2000396
:104448001b685bb904ae04333380688813f0b4fe8c
:104458007080002013f032f80590a9e704ae042319
:104468003380688813f0a8fe708046f25863c2f261
:1044780000031b6805939be704ae06233380688816
:1044880013f09afe708046f25863c2f2000306aa3f
:1044980043cb43c21b6813608ae7a86800230093d4
:1044a80004ab002221000cf0bdfa002886d10221bd
:1044b800a8680af054fc0ce0a868009304aa21003c
:1044c8000cf0b0fa002800d078e70221a8680af0ba
:1044d80046fc47f63401c0f2010140f2b432022032
:1044e80011f06cfe07e72c68200011f017fc022180
:1044f80020000af034fc48b147f63401c0f201014b
:1045080040f2c332002011f059fef4e647f63401b8
:10451800c0f2010140f2c13211f050feebe60b98f7
:1045280010f0bbff46f20773c2f20003187047f69b
:104538003401c0f2010140f2ca32002011f03efeff
:10454800d9e6c0460864010046f20773c2f20003c8
:104558001b782b7047f63401c0f2010140f2d032cb
:10456800002011f02bfec6e646f20773c2f20003e4
:1045780019780b9812f052f947f63401c0f201018c
:1045880040f2d732002011f019feb4e66a684ab149
:104598002b7846f20771c2f2000109780b980cf0eb
:1045a8000efdb8bbaa6842b146f20773c2f2000317
:1045b80019780b980df019fba8bbea684ab12b696a
:1045c80046f20771c2f2000109780b980af033ff2e
:1045d80090bb6a6942b146f20773c2f200031978c8
:1045e8000b980df04efb80bbaa694ab12b7f46f2af
:1045f8000771c2f2000109780b980bf012ff68bb33
:1046080047f63401c0f2010140f20b42002011f0dc
:10461800d5fd70e647f63401c0f2010140f2e332fd
:1046280011f0ccfd67e647f63401c0f2010140f213
:10463800ec3211f0c3fd5ee647f63401c0f2010129
:1046480040f2f53211f0bafd55e647f63401c0f2f2
:10465800010140f2fe3211f0b1fd4ce647f634019b
:10466800c0f2010140f2074211f0a8fd43e646f20c
:10467800e063c2f200031d6047f63401c0f2010195
:1046880040f21242002011f099fd34e646f23473ec
:10469800c2f200031d6047f63401c0f2010140f286
:1046a8001942002011f08afd25e646f2e063c2f2c5
:1046b80000031b682b6047f63401c0f2010140f289
:1046c8002242002011f07afd15e641f6c061c0f2e1
:1046d800000100200df022fd012040420be6c046fb
:020000040000fa
:1046e800f0b59db011930b684d680a938b681490d0
:1046f8000e930b6910911593cb6803931368546854
:1047080004930594049805990022002311f0bffc36
:1047180068b90a9b5b073bd408230a9a1a400b9294
:104728000e9a08920a9a1a4212d0183309e0802089
:10473800000684460599049a61440b000492059387
:104748002d23039a13700e9b013b089301230b93af
:10475800059b04995b00bf4a5b08e9b993421bd1ea
:10476800039a119b94460b98413b6044192b11d82e
:10477800b94913f0e1fc039813f0b0f80a9b020062
:10478800009303990e9b14980ef02ffb1db0f0bdfb
:104798002b23d6e7b149ece7934201d80cd159b1a4
:1047a800039a119b94460b98413b6044192b01d8fe
:1047b800ab49dee7ab49dce7002204980599002302
:1047c80012f077f90400002800d106e10023a64c76
:1047d800069307940024119813f004fcc3b20f93b6
:1047e800002d00dacee10993672b0bd105b901350d
:1047f80065230993231d14dbac4212da662309935f
:10480800002c0eda099b0135662b0ad1002c04da3c
:104818000023954c0693079400240f9b672b00d028
:104828002d19049a059b0c920d93069e079f002351
:10483800129332000c980d993b000bf01cff0bf003
:1048480055fe8022120694460c9b169017911893d9
:104858000d9b63441993189a199b00920193320097
:104868003b0013f0f1fa80231b06cb180c9039009b
:1048780030000d9300227d4b0bf0fdfe129b0600cd
:1048880001330f0012939d42d3d10022784b07f0d9
:104898006dfc0c9a0d9b06000f0011f0d9fb002847
:1048a80000d0c8e00c9a0d9b3000390012f001f9d5
:1048b80030b11698179911f01bffc00700d4bae061
:1048c8000498059932003b0006f040f90022049054
:1048d800059106980799654b07f048fc049a059bd3
:1048e8000c900d9110f0a6fe002800d1a6e0099bbf
:1048f8000134662b00d0a5e0260001350027731b84
:104908000b9d18930697189b9e4200d0d9e0069bf2
:10491800002b00d118e10021039b5819099b017055
:10492800652b28d1159b039a013bd1548c4201da9f
:1049380064420131002c00d00fe1159a9a1a033213
:10494800002a00dd09e12b225c1e01b10232039925
:10495800023b0a55119a413a192a01d8452209926f
:10496800039ad118099a0a709d4201da13f0e4fb00
:10497800089b023b089303230a9a1340022b00d09a
:10498800f9e6089b002b00dcf5e6039812f0a6ff79
:104998000b9b834200dceee01800039b30219c4611
:1049a800089a604413f0f6f800230e93e3e606969f
:1049b800079701340022069807992c4b07f0d6fb7d
:1049c80006000f0002000b000498059911f05ffb28
:1049d8000028ecd00027012622e00022224b069274
:1049e8000793e7e7234b9c4211da87b904980599a6
:1049f8000022214b07f0bafb00220490059106988b
:104a080007991d4b07f0b2fb3700069007910698ef
:104a180007990022154b0bf02efe06900791013cda
:104a2800069a079b0498059911f031fb0028d9d103
:104a3800d1e60625dce60026002741e7069a079b13
:104a48000c920d93099e653e731e9e417642264048
:104a580054e7c0460000f07fc0710100c471010036
:104a6800c8710100cc7101000000f03f0000244033
:104a780000001440d4feffff00005043069b5bb9c2
:104a8800002e09da039a16992e335354089b0135e0
:104a9800013b0893012306937a192b009446302191
:104aa80002e0039ad15401336345fad1089a7d197b
:104ab800d71b039a3030d0547b1e0135002708934a
:104ac80021e0109b16951b69053bab4200d81ee7f9
:104ad8000c9a0d9b049805990bf0cdfd0bf006fd83
:104ae8001290139111f004fe092800dd092010230b
:104af8000a9a13400343002bc0d10f9b672bbdd1eb
:104b0800002ebbda013780220c980d9912069446c4
:104b1800049b013e1a93059b63441b931a9a1b9ba3
:104b280000920193129a139b13f08ef980231b06af
:104b3800cb18049005930c980d990022154b0bf097
:104b48009afd0c900d91dee60a9bdb0600d4e2e6a6
:104b58002e23039a53550135dde60a2294fbf2f61b
:104b68007243a21a039c3032013be254089a340083
:104b7800013a0892dee6039b08991a5c5b181a54fe
:104b8800013805e70f9b672b00d152e706250993eb
:084b980038e6c046000024408d
:020000040000fa
:104ba000f0b5ce4600b58cb00e0017009946d1483e
:104bb000002403e001344c300a2c1ed00579002d6e
:104bc000f8d001688e42f5d146f2e063c2f20003ec
:104bd0001d6841f64041c0f200013b003200002058
:104be0000df0a0fa062f20d04b4633bb0394082fbc
:104bf0001fd8bf00c04bdb599f4646f2e063c2f2ac
:104c000000031d6841f64041c0f200013b00320044
:104c100000200df087fa062f07d041f68441c0f23c
:104c2000000100200df07efa03e000220821300090
:104c3000a8470cb080bcb946f0bd41f6a441c0f213
:104c400000013b004a4600200df06cfa300011f0e4
:104c500069f8022130000af086f8eae74c23039a4b
:104c6000534345f21052c2f20002944663441a8d37
:104c7000002a5ad04c2303994b4345f21051c2f2fb
:104c800000018c4663449b7a590600d4c2e0042a92
:104c900000d191e04c226243984bd21847f6c053a2
:104ca000c0f20103a1cba1c21b6813604c22039b7d
:104cb000534345f21051c2f200018c466344198df2
:104cc0009981598dd981544321000c316144303a86
:104cd000300005f077fa01307cd04c23039a53431f
:104ce00045f21052c2f20002944663441b8d042b1d
:104cf0007fd005ab824aa4181a0083cc83c22168f6
:104d0000116000221a61143200920021300002f07a
:104d1000e8fa4c23039a534345f21052c2f20002c0
:104d20009446634401225a7283e74c2161430c315b
:104d300061441c32300005f045fa013028d04c2384
:104d4000039a534345f21052c2f200029446634460
:104d50009b7a5b072bd44c23039a534345f21052a2
:104d6000c2f20002944663449b7a1b0700d460e7ba
:104d70004c23039a5343634401225a7241f6fc4187
:104d8000c0f200010023320000200df0cbf950e703
:104d900041f6d441c0f2000100200df0c3f930000b
:104da00010f0c0ff0221300009f0ddff41e70221d1
:104db000300008f0f5f8cee7002012f083fb4c231a
:104dc000039a534345f21052c2f2000294466344e0
:104dd00018616be741f6d441c0f2000100200df0ec
:104de000a1f9300010f09eff0221300009f0bbff56
:104df0001fe7444b1a5905921c3b1b59069300238d
:104e000007930c33009305ab23220021300002f0fe
:104e100068fa7ee79b062cd446f24073c2f2000388
:104e200000221a604c216143283145f21053c2f22e
:104e300000039c4661441c32300008f057fd0130ed
:104e400000d0f6e646f24073c2f200031b68962bd0
:104e500000d1eee641f66051c0f2000100200df0f5
:104e600061f9300010f05eff0221300009f07bff95
:104e7000dfe646f20773c2f2000304220092033a0f
:104e8000fd21300002f02dfa30b941f62051c0f278
:104e900000010df047f9bfe746f24073c2f200038c
:104ea0001a6841f63c51c0f2000100200df03af9b9
:104eb000b2e74c23039a534345f21052c2f2000268
:104ec000944663449b7a5b0600d5b2e641f6fc410a
:104ed000c0f200010023320000200df023f90bf096
:104ee000c1ff41f69051c0f2000100200df01af907
:104ef0009fe6c04614550020dc70010024550020b8
:104f0000405500203c55002041f6b051c0f2000150
:104f100000200df007f91c23049346f24073c2f2ff
:104f2000000300221a6004aa05a930000bf04ff913
:104f3000431c13d146f24073c2f200031b680b2bd3
:104f400000d176e641f6d851c0f2000100200df004
:104f5000e9f80221300009f006ff6ae64c235c43c1
:104f60000c3445f21052c2f20002a21803994b43ce
:104f700045f21051c2f200018c466344997a002335
:104f8000009305ab0bf052fd040018b10bf06aff63
:104f900001236372002207213000a84749e641f649
:104fa000f051c0f2000100200df0bcf84c23039a30
:104fb000534345f21052c2f20002944663449b7a76
:104fc0009b0600d535e64c23039a534363440122e4
:104fd0005a720bf047ff002200213000a84728e654
:104fe00041f61461c0f2000100200df09bf84c2343
:104ff000039a534345f21052c2f2000294466344ae
:1050000001225a720bf02eff002201213000a84726
:105010000fe6002203213000a84741f63c61c0f2b0
:105020000001320000200df07df802e641f66061db
:10503000c0f20001320000200df074f800220421bb
:105040003000a847f5e5002205213000a847f0e52b
:020000040000fa
:10505000f0b5de4657464e464546e0b5a7b00400db
:10506000002800d12de20678002e00d12ae24378f4
:10507000012b00d12ee2017d012914d0022900d19b
:105080007fe0002900d11de246f21073c2f2000356
:105090001b68002b00d129e241f23850c0f2000019
:1050a000984700260ee2c369002b00d114e21a686b
:1050b000002a00d112e2427d002a00d110e2c28a09
:1050c0000ab90026fee1050014359a88033203214f
:1050d0008a439a80c3699a88196880200023400512
:1050e00003f079ff0200d0b9e26991888908e38a68
:1050f0005b1ae382637d013bdbb26375110008310b
:10510000e161926832b3002b00d0dbe1a36903b107
:10511000d9610c220021280012f040fdd2e146f2b4
:105120001073c2f200031b6843b1a1696068091ad9
:10513000891041f2c830c0f2000098470c220021cb
:10514000280012f02bfd01236370200010f087f976
:105150000026b7e1a769002f00d1b3e17b6898462c
:105160002bb1002300933a002100b868c0470c22fd
:105170000021280012f012fd396820000af0daf947
:10518000a0e1437d002b00d1ace1c28a002a00d10e
:10519000aae140f2140c8444614607918169d1b1bf
:1051a000a36919688d00a268e369d01a854237d9ce
:1051b00046f21073c2f200031d682db1637d41f207
:1051c0004440c0f20000a8470c220021079812f0ca
:1051d000e5fc002676e141688161012b04d80a6074
:1051e000637d9b00e361dbe7427592008020002332
:1051f000400504f06df901000028f1d046f210736b
:10520000c2f200031b6823b141f20840c0f2000063
:1052100098470c220021079812f0c0fc002651e1ab
:105220006168c918802000232a00400504f050f965
:105230000200a8b146f21073c2f200031b6843b12a
:10524000a1696068091a891041f28040c0f200002b
:1052500098470c220021079812f0a0fc002631e1ab
:105260006268e369d31808931bb3042d21d95a78d7
:1052700009929a780a92df781a799346a26c90463e
:1052800022b11a78e06c00952100c047089b19787c
:105290004b1e012b18d9032900d1f2e046f21073fe
:1052a000c2f200031b6823b141f20450c0f20000b7
:1052b0009847a3690433a361637d013bdbb2002bf4
:1052c00000d1f8e06375fde001290dd0092df0d97a
:1052d0003f025b463b439b4600236a462f21521800
:1052e0001370b046a24655e0062df1d8e1e706abb3
:1052f000db7f013306aad37708350134e4b2337b70
:10530000a34200d8abe0ab7940225b0603d408355a
:10531000ab791a42fbd02f68002feed03b78012bdf
:10532000e5d0002be8d1fb781b023a791a4393466b
:1053300091453cd046f21073c2f200031b6833b1b2
:1053400041f2bc40c0f200004a46594698472b68db
:1053500001221a700723ab80ab7920221343ab7173
:105360007a781202bb7813431f2206a98c46624446
:1053700004923a00083203927a7902925a460192d4
:10538000009402223100504609f064fb0600002818
:10539000b2d1cb4606ab6a462f2152181278da7783
:1053a0005346de68002e61d14646544681e7089b8d
:1053b000591c781c042212f0f7f900289cd1cb4626
:1053c0005346b2464646a0461c00099b1b020a9a59
:1053d0001a430992089b1b78012b19d00ea9099b2f
:1053e0000b8043460b727b794b723b000833cb60da
:1053f00008980ff043fc53465d68002d00d158e734
:105400000eab00930323524621009068a84750e753
:105410007b790a9340f207094a460899380012f04e
:10542000b3fb4846a880aa7920231343ab71089a9e
:1054300053791b0292791a431f2306a98c466344b1
:105440000493083703970a9b02935b4601934346f4
:105450000093099b5146200009f0fcfa29e7cb464e
:1054600006ab0022da775346de683eb1b569337b7e
:105470000024d946002b00d045e7f1e746465446c4
:1054800017e7602200210ea812f088fb0ea90898e9
:105490000ff0f4fb250020352700483703e00835de
:1054a000af4200d105e72b68002bf8d068680eaa40
:1054b00021009847f3e70c220021079812f06efbb9
:1054c00000e00026300027b0f0bcbb46b246a9463b
:1054d000a046f0bd0026f5e70026f3e70026f1e739
:1054e0000026efe70026ede70026ebe70026e9e7d8
:020000040000fa
:1054f00070b582b00400431e033300d945e2012396
:10550000c356012b50d01bdc5a1c00d13de2002bae
:1055100000d038e20378002b00d136e28368002502
:105520001d7111f057faa368986912f01afe43f240
:105530000003c4f2000342f200025a61257024e223
:10554000022b00d01fe2856840f23533eb5c012b63
:1055500000d18ee1032b00d196e19123eb5c002b6f
:1055600000d0abe1a3689868fff772fd002800d077
:105570000be212f06dfd002800d0b1e108212000ff
:1055800012f042fd20000cf031ffa16840f204331c
:10559000cb58002b00d1cce179228a5c002a00d1c3
:1055a000c0e1ac260025a8e183689bb320229a5c69
:1055b0009abb1b7b002b56d04ff24931c0f2000141
:1055c000a0680c3006f0f6fc002800d18ae0431dec
:1055d00000d1f4e0031d00d108e101280bd1a2683d
:1055e000137d002b00d116e1013b1375a3681b7dd1
:1055f000002b00d115e112f02bfd012800d92fe17d
:10560000a1681c3164200ff0a2f9a26820230121b7
:10561000d154bae1ff334370b7e1d86912f03ef9d3
:10562000002800d1b1e1a26820230021d154a36851
:105630001b7b002bc0d143f20003c4f200031b6aa2
:105640009b0431d443f20003c4f2000342f200028f
:105650009a61a1681c3164200ff079f9a2682023b7
:105660000121d15491e112f0f3fc012813d843f247
:105670000003c4f2000342f200025a61a1681c3127
:1056800064200ff064f9a26820230121d154200086
:1056900012f0bafc79e112f0d5fc41f67c11c0f2af
:1056a00000010cf03ffde2e712f0d2fc012805d822
:1056b0000ef010fb58b9ff23637066e112f0c2fcd4
:1056c00041f68c11c0f200010cf02cfdf0e7a3684c
:1056d00064221a75a368633a5a730221200012f0fb
:1056e00093fc69e7a3689868032110f017ff032172
:1056f000200012f089fc46f60572c0f20002230079
:105700000021052010f085f8050010b9ff23637013
:105710003be10026009600230022002111f039ff12
:105720000121280010f0fef90021280012f03ffbb3
:10573000002128000ff087fb0096002300220021a3
:10574000280011f088ffa06829000ff04ffd10b964
:10575000ff23637019e1a168012339228b54a168ea
:105760002f328b540133637012f072fc012801d880
:10577000912610e012f066fc41f6a411c0f200017f
:105780000cf0d0fcf4e712f007fdab5d013bdbb29f
:10579000ab5512f005fda568ab5d002bf3d112f0ff
:1057a000d0f838b112f0f8fc9122ab5c0133ab5465
:1057b00012f0f6fc0421200012f026fce5e012f0c5
:1057c00047fc012809d8a368f5221a71ff236370ea
:1057d0000521200012f018fcd7e012f033fc41f64e
:1057e000b011c0f200010cf09dfcece712f030fcaf
:1057f000012807d8a36800221a730721200012f09d
:1058000003fcc2e012f01efc41f6c011c0f2000120
:105810000cf088fceee713730721200012f0f4fb74
:10582000b3e012f015fc012808d8a3685a7b72b9be
:105830001a730721200012f0e7fba6e012f002fc29
:1058400041f6cc11c0f200010cf06cfcede7f52242
:105850001a71ff2363700621200012f0d5fb94e03b
:1058600012f0f0fb40f66451c0f200010cf05afc5b
:10587000c6e60cf0bbfda0680bf07bf8a26840f216
:1058800035330221d15480e0013b2b738568002021
:105890000ff043fca860a26800231375a26853733d
:1058a000a16840f234328b54a16801328b54013329
:1058b00063700221200012f0a7fb66e012f06cfc7e
:1058c0009122ab5c013bdbb2ab5412f069fc47f6b2
:1058d0004311c0f20101a368986806f0b4fd41e6e7
:1058e00012f0b0fb41f6e011c0f200010cf01afc1e
:1058f00044e601351036082d1bd0a2682b01d318c1
:10590000ac331b680133f4d02b01d318b6331b78aa
:10591000002beed0911940f20433d358002220001e
:105920009847e6e77a228a5c1ab19c31002220006f
:105930009847a3689868022110f0f0fda0680bf06a
:1059400018f812f085fb012814d8a36802221a73f4
:10595000a56800200ff0e1fba860a3680a221a7571
:10596000a36800225a73012363700221200012f001
:105970004bfb0ae012f066fb41f68c11c0f200010d
:0e5980000cf0d0fbe1e7ff23637002b070bdb6
:020000040000fa
:02598e00704760
:020000040000fa
:10599000f0b599b012930b68cc680a934b681690d7
:1059a0000e938b680b930b691193536812680692e0
:1059b0000793069807990022002310f06cfb70b93a
:1059c0000a9b5b0738d408230a9a0a991a40059261
:1059d0000b9a194212d01833237013000be0802069
:1059e000000684460799069a61440b0006920793c5
:1059f0002d2323700b9b5a1e01230593079b0699a9
:105a00005b005b08e1b9af48834219d1129b059a4c
:105a1000413ba018192b11d8ab4912f091fbab48b0
:105a200011f060ff0a9b0200009321000b9b169867
:105a30000df0dff919b0f0bd2b23dae7a349ece74d
:105a4000a048834201d80dd161b1129b059a413b18
:105a5000a018192b04d89e4912f072fb9d48dfe76d
:105a60009c49f9e7059b0598591c30232354129b48
