:020000040000fa
:10000000f87f002099de00008b9a0000c7a1000055
:1000100000000000000000000000000000000000e0
:10002000000000000000000000000000d798000061
:100030000000000000000000d798000069ee0000fa
:10004000d7980000d7980000d7980000d7980000f4
:1000500099d00000d7980000c5be0000d7980000d6
:10006000d7980000817c0000d7980000d798000046
:10007000d7980000d7980000d1d30000d79800008f
:10008000d7980000d7980000d7980000d7980000b4
:10009000d79800000000000000000000d798000082
:1000a000d7980000d7980000d7980000d798000094
:020000040000fa
:1000b000f8b5c046f8bc08bc9e46704781dc00001d
:1000c000f8b5c046f8bc08bc9e46704759dc000035
:020000040000fa
:1000d0006c84000001000000209700000100000077
:020000040000fa
:1000e0001b5b33313b316d6572726f723a20696e02
:1000f00076616c69642073656e64207265717565e4
:1001000073742073746174652068616e646c650a31
:100110001b5b306d000000001b5b33313b316d65b4
:1001200072726f723a2073656e64207265717565c4
:100130007374207374617465206661696c7572658f
:100140000a1b5b306d0000001b5b33313b316d657a
:1001500072726f723a20746f6f206d616e792063d6
:100160006f6d6d616e64730a1b5b306d0000000083
:100170001b5b33313b316d6572726f723a20736570
:100180006e64207265717565737420737461746533
:10019000206661696c7572652c20706f737369627b
:1001a0006c65206e6f2073706163650a1b5b306d38
:1001b000000000001b5b33313b316d6572726f7262
:1001c0002c2063736120434d44353320777269746a
:1001d00065206661696c65642c2073746174757345
:1001e0003d3078253034780a1b5b306d000000000c
:1001f0001b5b33313b316d6572726f722c206c6505
:100200006e67746820434d44353320777269746596
:10021000206661696c65642c207374617475733d2c
:100220003078253034780a1b5b306d001b5b33312e
:100230003b316d6572726f722c206d6573736167ef
:100240006520434d443533207772697465206661bb
:10025000696c65642c207374617475733d30782506
:100260003034780a1b5b306d000000001b5b3331bb
:100270003b316d6572726f722c20696e746572729b
:1002800075707420636865636b206661696c656472
:100290002c207374617475733d253032780a1b5bb2
:1002a000306d00001b5b33313b316d6572726f72d4
:1002b0002c206d65737361676520434d4435332091
:1002c00072656164206661696c65642c2073746179
:1002d0007475733d3078253034780a1b5b306d00bf
:1002e0001b5b33313b316d6572726f722c206e6f08
:1002f0002061636b20746f206d6573736167650a9d
:100300001b5b306d000000001b5b33313b316d65c2
:1003100072726f722c20756e6b6e6f776e206576c1
:10032000656e7420747970650a1b5b306d00000087
:100330001b5b33313b316d6572726f722c20696ebd
:100340007465727275707420636c656172202830f8
:10035000782530327829206661696c65642c2073b9
:1003600074617475733d253032780a1b5b306d0003
:100370001b5b33313b316d6572726f722c20756e71
:1003800068616e646c6564206576656e7420307893
:10039000253032780a1b5b306d0000001b5b333167
:1003a0003b316d6572726f722c206d736728256406
:1003b0002920434d44353320777269746520666186
:1003c000696c65642c207374617475733d30782595
:1003d0003034780a1b5b306d000000001b5b33314a
:1003e0003b316d6572726f722c206c656e6774683c
:1003f00020434d4435332072656164206661696c29
:1004000065642c207374617475733d3078253034c5
:10041000780a1b5b306d00001b5b33313b316d652f
:1004200072726f722c2072656365697665206d65e6
:1004300073736167652065786365656473206275b1
:10044000666665722e2025642025642025640a1bbb
:100450005b306d001b5b33313b316d6572726f72c7
:100460002c206d73672825642920434d44353320a3
:1004700072656164206661696c65642c20737461c7
:100480007475733d3078253034780a1b5b306d000d
:100490001b5b33313b316d6572726f722c2073655b
:1004a0007175656e6365206e756d626572206d692c
:1004b0007373696e672c20657870656374696e6705
:1004c00020253034782c20676f7420253034780a4a
:1004d0001b5b306d000000001b5b33313b316d65f1
:1004e00072726f722c20696e76616c6964206d6522
:1004f00073736167652074797065207265636569df
:100500007665642025640a1b5b306d001b5b33310c
:100510003b316d6572726f722c20756e6b6e6f77ea
:100520006e206576656e7420747970652025640a86
:100530001b5b306d000000001b5b33313b316d6590
:1005400072726f722c206661696c656420746f2012
:10055000616c6c6f6361746520736c6162206f669f
:100560002025642062797465730a1b5b306d00007e
:100570001b5b33313b316d6572726f723a2066617d
:10058000696c656420746f20616c6c6f6361746565
:100590002072656376206275666665720a1b5b3041
:1005a0006d0000001b5b33313b316d6572726f7201
:1005b0003a206661696c656420746f20616c6c6fb1
:1005c000636174652073656e64206275666665722a
:1005d0000a1b5b306d0000001b5b33313b316d65e6
:1005e00072726f723a206661696c656420746f2064
:1005f000616c6c6f636174652072656376207061f5
:10060000636b6574206275666665720a1b5b306d8c
:10061000000000001b5b33313b316d6572726f72fd
:100620003a20756e6b6e6f776e20616464726573cd
:1006300073207479706520282564290a1b5b306d4e
:10064000000000001b5b33313b316d6572726f72cd
:100650003a20736f636b65742077726974652063e9
:100660006f6d6d616e64207265717565737420695c
:100670006e697469616c69736174696f6e2066611b
:10068000696c65640a1b5b306d0000001b5b3331d5
:100690003b316d6572726f723a20736f636b657474
:1006a00020777269746520636f6d6d616e6420726e
:1006b000657175657374207472616e6d69737369a9
:1006c0006f6e206661696c65640a1b5b306d0000ab
:1006d0001b5b33313b316d4572726f722c206c6540
:1006e0006e677468206d69736d617463682025643a
:1006f0002076732025640a1b5b306d001b5b333151
:100700003b316d6572726f723a206e6f20616c6c56
:100710006f6361746564207061636b6574206275da
:1007200066666572730a1b5b306d00001b5b3331bc
:100730003b316d6572726f723a207061636b6574e4
:1007400020627566666572732066756c6c0a1b5b49
:10075000306d00001b5b33313b316d6572726f721f
:100760003a206661696c656420746f2077726974e1
:100770006520746f207265636569766520627566b1
:100780006665720a1b5b306d000000001b5b333135
:100790003b316d6572726f723a206e6f20667265c2
:1007a0006520736f636b6574730a1b5b306d0000ab
:1007b0001b5b33313b316d6572726f723a2066613b
:1007c000696c656420746f20637265617465206e66
:1007d0006577207265636569766520736f636b6505
:1007e000740a1b5b306d00001b5b33313b316d6560
:1007f00072726f723a2061646472657373207479e7
:100800007065206d69736d617463682028256420ac
:10081000213d202564290a1b5b306d001b5b3331b1
:100820003b316d6572726f723a20756e61626c65f4
:1008300020746f2066696e64206c697374656e69dc
:100840006e6720736f636b65740a1b5b306d00000d
:1008500025642e25642e25642e25640025783a25ee
:10086000783a25783a25783a25783a25783a2578dd
:100870003a25780025783a25783a25783a25783a45
:1008800025783a25783a25642e25642e25642e2570
:10089000640000003a3000004346472049442025c8
:1008a00064206e6f742068616e646c65640d0a006c
:1008b0004449204944202564206e6f742068616e8d
:1008c000646c65640d0a00004e564d432049442077
:1008d0002564206e6f742068616e646c65640d0a17
:1008e0000000000052656365697665206275666682
:1008f000657220616c6c6f636174696f6e206661f4
:10090000696c65640d0a00004661696c6564207459
:100910006f20696e697469616c6973652057494e0f
:1009200043206465766963650d0a00004661696c61
:10093000656420746f20696e697469616c697365a0
:100940002057494e4320736f636b6574730d0a0023
:1009500057494e433a2052657365740d0a000000f2
:1009600057494e433a20496e697469616c697a69e6
:100970006e672e2e2e000000636f6d706c657465bf
:100980000d0a00006661696c6564207265736574a8
:100990000d0a00006661696c6564206f700d0a00c5
:1009a00072657365742074696d6564206f75740d6c
:1009b0000a00000057494e43206576656e74207525
:1009c0007064617465206661696c65642c20726571
:1009d00073657474696e670d0a0000005753434ec7
:1009e00043204944202564206e6f742068616e6442
:1009f0006c65640d0a0000005363616e20506172e3
:100a0000616d733a202564202564202564202564c7
:100a10000d0a0000454344534120637572766520fa
:100a20004944202564206e6f742068616e646c6593
:100a3000640d0a0045585443525950544f204145c3
:100a4000434342204f702074797065202564206ee6
:100a50006f742068616e646c65640d0a00000000ac
:100a60004d5154542041454343422070726f70658c
:100a7000727479202564206e6f742068616e646cd6
:100a800065640d0a000000004e4554494643204964
:100a900044202564206e6f742068616e646c656408
:100aa0000d0a00004f5441204145434342207374d6
:100ab00061747573202564206e6f742068616e64a4
:100ac0006c65640d0a0000005050532041454343bb
:100ad000422049442025303478206576656e7420a4
:100ae000756e68616e646c65640d0a004a4f494e0c
:100af0003a204173736f63696174696f6e20666f2a
:100b0000756e6420666f72206e657720636f6e6eff
:100b1000656374696f6e0d0a000000004a4f494e0c
:100b20003a204e6577206173736f63696174696ff2
:100b30006e206661696c65640d0a00004a4f494e7b
:100b40003a204e6f206173736f63696174696f6ed1
:100b500020666f756e640d0a000000005749464913
:100b60004320436f6578204944202564206e6f74cc
:100b70002068616e646c65640d0a0000574946493f
:100b8000432049442852737029202564206e6f74d5
:100b90002068616e646c65640d0a00005b4e45540c
:100ba0005d3a416464696e67204349442025640dc1
:100bb0000a0000005b4e45545d3a417661696c6104
:100bc000626c6520434944733a0d0a005b4e4554fc
:100bd0005d3a4349443a2025642c20736f636b3a95
:100be00025642c20706f72743a25752c2069703a38
:100bf0002025730d0a0000005b4e45545d3a546891
:100c000065206c69737420697320656d7074790d4b
:100c10000a0000005b4e45545d3a66205359535f0d
:100c200057494e43535f4e45545f536f636b657432
:100c30004576656e7443616c6c6261636b2c2073e6
:100c40006f636b6664203a202564206576656e7458
:100c5000203a2025640d0a005b4e45545d3a45520a
:100c6000524f52203a204e65742043616c6c626191
:100c7000636b204e554c4c005b4e45545d3a4552db
:100c8000524f523a20536f636b6574206572726fd6
:100c9000722025642066726f6d206576656e742003
:100ca00025640d0a000000005b4e45545d3a455234
:100cb000524f523a204661696c656420746f20621d
:100cc000696e6420736f636b65740d0a0000000029
:100cd0005b4e45545d3a536f636b65742025642009
:100ce00073657373696f6e204944203d2025640d40
:100cf0000a0000005b4e45545d3a736574736f6380
:100d00006b6f707420535543434553530d0a0000d5
:100d10005b4e45545d3a736574736f636b6f7074ab
:100d2000204641494c20206572726e6f203a202582
:100d3000640d0a005b4e45545d3a4552524f523a9b
:100d4000204661696c656420746f20636f6e6e6508
:100d5000637420746f2074686520736572766572a1
:100d6000210d0a005b4e45545d3a536f636b657409
:100d7000204c697374656e696e672e2e2e2e2e2e92
:100d80000d0a00005b4e45545d3a57494e435f5390
:100d90004f434b45545f4556454e545f434f4e4e6f
:100da0004543545f5245510d0a0000005b4e4554c7
:100db0005d3a416363657074206572726f72210dd4
:100dc0000a0000005b4e45545d3a57494e435f535d
:100dd0004f434b45545f4556454e545f434f4e4e2f
:100de0004543540d0a0000005b4e45545d3a574997
:100df0004e435f534f434b45545f4556454e545ffa
:100e0000544c535f434f4e4e4543540d0a0000006f
:100e10005b4e45545d3a536f636b657420256420c7
:100e200073656e6420636f6d706c657465640d0a24
:100e3000000000005b4e45545d3a57494e435f53f6
:100e40004f434b45545f4556454e545f52454356bc
:100e50002066726f6d20736f63203a2025640d0a3f
:100e6000000000005b4e45545d3a4552524f523ae5
:100e7000204661696c656420746f2073656e642020
:100e8000746f20736f636b6574202564202825645c
:100e9000290d0a005b4e45545d3a4552524f52208f
:100ea0003a20556e6b6e6f776e204e6574205365d9
:100eb000727669636520526571756573740d0a00f9
:100ec0005b574946495d3a5359535f57494e43531f
:100ed0005f574946495f436f6e6e6563744e6f742a
:100ee00069667943616c6c6261636b203a2063755b
:100ef0007272656e7453746174652025640d0a0006
:100f00005b574946495d3a444e53207265736f6c96
:100f100076652054696d65204f75742028256429f5
:100f20000d0a00005b574946495d3a444e53207212
:100f300065736f6c7665204572726f722028256428
:100f4000290d0a005b574946495d3a444e532072c9
:100f500065736f6c76652074797065206572726f49
:100f60007220282564290d0a000000005b574946bd
:100f7000495d3a4e6f20415020466f756e64205295
:100f8000657363616e0d0a005b574946495d3a23fc
:100f9000253032640d0a00005b574946495d3a3ef0
:100fa0003e232020524920205265636f6d6d656e8f
:100fb00064204348204253534944202020202020cd
:100fc00020202020202020535349440d0a000000f7
:100fd0005b574946495d3a3e3e2320202020202091
:100fe0004175746820547970650d0a3e3e230d0ae0
:100ff000000000005b574946495d3a4173736f63d7
:10100000696174696f6e20737461746520697320ff
:10101000636f6e6e65637465640d0a005b574946c5
:10102000495d3a57696669205374617465203a3a9c
:1010300020434f4e4e4543544544203a3a204d41bb
:1010400043203a20253032583a253032583a25305c
:1010500032583a253032583a253032583a25303213
:10106000580d0a005b574946495d3a4173736f63f7
:10107000696174696f6e207374617465206973208f
:10108000636f6e6e656374696e672e2e2e2e2e2e24
:101090000d0a00005b574946495d3a4173736f631f
:1010a000696174696f6e207374617465206973205f
:1010b000636f6e6e656374696f6e206661696c65df
:1010c000642e200d0a0000005b574946495d3a41f5
:1010d00073736f63696174696f6e20737461746593
:1010e00020697320646973636f6e6e6563746564f1
:1010f0002e200d0a000000005b574946495d3a4129
:1011000073736f63696174696f6e20737461746562
:1011100020697320726f616d65642e200d0a0000d6
:1011200066653830000000005b574946495d3a204b
:101130004e6574776f726b20696e74657266616359
:10114000652075702e200d0a0000000054696d6541
:1011500020555443203a2025640d0a0054696d65da
:101160003a20253032643a253032643a25303264f0
:10117000206f6620253032642f253032642f2530d1
:1011800032640d0a000000004552524f52212121c5
:10119000203a2046756e6374696f6e2025732c208b
:1011a0004c696e65204e6f203a2025642c205374c4
:1011b00061747573203a2025640d0a0041637469d7
:1011c000766500005b574946495d3a4e6f2052658f
:1011d00067756c61746f727920446f6d61696e73ad
:1011e00020446566696e65640d0a00005b574946d8
:1011f000495d3a232e202020434320202020202018
:101200004368616e6e656c7320566572205374611d
:101210007475730d0a0000005b574946495d3a2515
:101220003032643a205b252d36735d2030782530ce
:101230002d36782025642e25642025730d0a0000a4
:101240005b574946495d3a444f4e45200d0a000020
:101250005b574946495d3a4552524f52203a204425
:1012600072697665722048616e646c6520496e769d
:10127000616c69640d0a00005b574946495d3a5b41
:101280004552524f525d203a20494e56414c4944f6
:101290005f504152414d4554455220666f72204186
:1012a000555448454e5449434154494f4e0d0a0048
:1012b0005b574946495d3a5b574946495d203a20ac
:1012c000436f6e6e656374696e6720746f20415062
:1012d000203a2025730d0a005b574946495d3a457f
:1012e00052524f52203a20556e6b6e6f776e2057d8
:1012f0006966692053657276696365205265717508
:101300006573740d0a0000004150505f53544154fe
:10131000455f49444c450d0a000000004150505fb4
:1013200053544154455f57494e435330325f445202
:10133000495645525f4f5045524154494f4e0d0a50
:10134000000000004150505f53544154455f5741e5
:1013500049545f464f525f46494e4953485f57498b
:101360004e435330325f4452495645525f4f5045c9
:10137000524154494f4e0d0a00000000574946495a
:10138000204556454e542046495245443a206576fc
:10139000656e743d25640d0a00000000534f434bf9
:1013a0004554204556454e542046495245443a201e
:1013b0006576656e743d256420736f636b65743d5f
:1013c000256c750d0a0000005359535f57494e4371
:1013d000535f4e45545f534f434b5f4556454e5404
:1013e0005f434f4e4e45435445440d0a00000000f4
:1013f0005359535f57494e43535f4e45545f534fc4
:10140000434b5f4556454e545f444953434f4e4e00
:1014100045435445440d0a005359535f57494e43c1
:10142000535f4e45545f534f434b5f4556454e54b3
:101430005f53454e445f434f4d504c4554450d0a54
:10144000000000005359535f57494e43535f4e45c8
:10145000545f534f434b5f4556454e545f45525280
:101460004f520d0a000000004d61745f6e657400fc
:101470004f4b30313330406a756c79303732300041
:1014800031302e302e312e33310000007b224d437f
:101490005520534e223a5b25752c25752c25752c2d
:1014a00025755d2c224649524d57415245205645df
:1014b0005253494f4e223a252e32662c2243484140
:1014c0005247455220535441545553223a25752cc6
:1014d000224241545445525920564f4c544147459d
:1014e000223a252e32662c2254454d504552415405
:1014f000555245223a252e32662c225052455353de
:0b150000555245223a252e32667d0030
:020000040000fa
:10150c00f0b58fb0141e02d01379002b01d10fb09f
:10151c00f0bd170010372e2502ab9c466544022304
:10152c002a000221380007f03dfa2e88bc4b1b78ac
:10153c00db0700d47be2ba4b9b88b3420cd02279f8
:10154c0015006388b7498c46634499b20529ded8e7
:10155c008b00b549cb589f46227915006388b14959
:10156c008c46634499b20529d1d88b00af49cb582e
:10157c009f46ab4f052dcad10025002f1bd0217ed5
:10158c002823e25c914205d0a94b1b68002b01d0ab
:10159c00a8489847217e08293ad0092900d189e02a
:1015ac00a34b1b68002bb2d0a3489847afe700278a
:1015bc00e0e70027dee70df08bfc071e20d0037858
:1015cc00012213430370022303728680b823db00cd
:1015dc0043678a235b01836700237c228354013297
:1015ec008354964b1b68033283500125002bc6d1c4
:1015fc008f4b1b68002b00d189e79148984786e7f1
:10160c008b4b1b68ab4200d181e78e4898477ee735
:10161c000426be813a00103220001830042307f053
:10162c00c1f92000203002233a000e32022107f0cb
:10163c00b9f9fb895bbafb813e853a002c3220005c
:10164c0028300423082107f0adf9200030300223a4
:10165c003a002a32022107f0a5f97b8d5bba7b8513
:10166c007b78002b03d13b78042213433b70002d75
:10167c0073d03b78db0713d53b7a022b02d0fa8868
:10168c00fd2a0dd1664a97420ad01278d20707d5a7
:10169c00634a1278920703d5614a127a9a4232d081
:1016ac00634b1b68002b01d06748984738000cf03f
:1016bc00c5fe2ce70626be813a00143220001830f5
:1016cc00102307f06ff92000203002233a000e326d
:1016dc00022107f067f9fb895bbafb813e853a0072
:1016ec003032200028301023092107f05bf920004c
:1016fc00303002233a002a32022107f053f97b8d55
:10170c005bba7b85ace7464bfa89db899a42c7d139
:10171c00434b1b78db0703d438000cf08ffef6e646
:10172c003f4c0022022120000df034fb2278602374
:10173c001a403b7860218b4313433b70637a7b7276
:10174c00e388fb80636f7b67a36fbb677c23e25ce2
:10175c00fa540133e25cfa54d9e63b785b0700d4c7
:10176c00d5e60022032138000df014fbcfe62c4ef9
:10177c00002e00d1cbe633786021194210d1022d16
:10178c0000d0c4e6320046322000183002235e3905
:10179c0007f008f9300007f045ffb8e60026e7e748
:1017ac000392033a012a00d9b1e620001830022333
:1017bc000e2202a98c466244032107f0f3f8042d93
:1017cc001cd00e2302aa944663441a88039b1f491b
:1017dc008c466344db00fb18596830004c30012305
:1017ec000093002305f0a1fc00280fd1104b1b68bf
:1017fc00002b00d18be61648984788e62000203055
:10180c00022306aa032107f0cdf8dae73278102379
:10181c00134333700022052130000df0bbfa76e63d
:10182c00683a002000f2ffffc0dd0000d8dd0000a8
:10183c00043e0020e8070000140600000c3e0020c7
:10184c00b00700008c0700001c080000ffffff1f02
:10185c00540700007d4e002e00d158e633786021ed
:10186c0019421ad00392053a012a00d94fe6b36dfa
:10187c00002b1ed0da781b789a4222d0217e0829c0
:10188c0027d009295fd0724b1b68002b00d13ee694
:10189c00704898473be60026dde7320046322000d0
:1018ac00283002235e3907f07df8300007f0bafecd
:1018bc002de6674b1b68002b00d128e6664898473d
:1018cc0025e6634b1b68002b00d120e66348984744
:1018dc001de6042302aa13822000183007aa07f081
:1018ec0061f8200020300223122202a98c466244a7
:1018fc00190007f057f802ab5b8a5bba02aa538255
:10190c0020002830022305aa032107f04bf8062dee
:10191c0032d005ab1a88039b51498c466344db00db
:10192c00fb18596830004c300123009306ab05f0ce
:10193c00fcfb00282bd1464b1b68002b00d1e6e5a5
:10194c0048489847e3e5062302aa13822000183082
:10195c000a3308aa07f026f82000203002231222ae
:10196c0002a98c466244190007f01cf802ab5b8a92
:10197c005bba02aa5382c3e72000303002230e2246
:10198c0002a98c466244032107f00cf8c1e73278b7
:10199c001023134333700022052130000df0faf9a7
:1019ac00b5e52a4b012d00d0b1e5002b00d1aee5f9
:1019bc001a7804218a431a707a315a5a1020024339
:1019cc005a52a4e50023ede70023ebe71f4c012d51
:1019dc0000d09ce5002c00d199e523780422134318
:1019ec002370002363700022032120000df0d2f934
:1019fc000022072120000df0cdf988e50024e6e750
:101a0c000024e4e71148022d00d080e5002800d125
:101a1c007de57e22835a08210b4383527d3a0821af
:101a2c000df0b8f973e50020ede70020ebe7227923
:101a3c00150063880c498c46634499b2052900d97a
:101a4c0065e58b000949cb589f46c046683a002093
:101a5c00043e002014060000fc0600002c070000c9
:101a6c00ffffff1f5407000000f2fffff0dd000036
:020000040000fa
:101a7c00f0b59db012930b6814900b934b681191b9
:101a8c0004938b680d930b691593cb6808931368bb
:101a9c0054680693079406980799002200230cf0cb
:101aac0072fc00280dd10b9b5b073ed408230b9acc
:101abc001a400c920d9a09920b9a1a4213d01833b1
:101acc000ae080200006844606990a0007996144c2
:101adc000b00069207932d23089a13700d9b013b64
:101aec00099301230c93079b06995b00994a5b08a9
:101afc0000291cd193421ad1089a129b94460c9837
:101b0c00413b95496044192b00d994490df030ffa5
:101b1c0008980df06ffc0b9b0200009308990d9b2d
:101b2c0014980af079fb1db0f0bd2b23d4e7934237
:101b3c0002d80cd100290ad0089a129b94460c9812
:101b4c00413b87496044192be0d98649dee70022e6
:101b5c000698079900230df02cf80026824f0028d8
:101b6c0000d1c2e00023039312980df074fec3b2af
:101b7c001093049b002b00dae7e1109b0a93672b70
:101b8c0012d1049b002b01d10133049365230a93da
:101b9c00039b04331ddb039b049a934219da6623df
:101bac000a93039b002b14da049b013304930a9bc6
:101bbc00662b0ed1039b002b03da002300266a4f01
:101bcc000393109b672b04d0039a049b94466344a5
:101bdc000493069a079b0e920f93002334003d004a
:101bec00139322000e980f992b0008f00dfc08f0af
:101bfc00cbfc8022120694460e9b169017911893dc
:101c0c000f9b63441993189a199b0092019322001d
:101c1c002b000df0fbfd80231b06cb1800222900a6
:101c2c000e900f932000514b08f0eefb139b040019
:101c3c0001331393139a049b0d009342d1d10022cc
:101c4c004b4b05f0c9f90e9a0f9b04000d000cf0dc
:101c5c007bfb002800d079e00e9a0f9b2000290016
:101c6c000cf0a7ff002805d0169817990cf0acfec5
:101c7c00c0076bd50698079922002b0004f0c0fa18
:101c8c00002206900791394b3000390005f0a4f979
:101c9c00069a079b0e900f910cf0ecf900286dd072
:101cac00039b013303930a9b662b69d1049b01337d
:101cbc000493039e68e026002f00039b01330393db
:101ccc0000222a4b3000390005f086f904000d0083
:101cdc0002000b00069807990cf055fb0028ead07f
:101cec0000230024234d0a9325e00390e8e7039b8f
:101cfc00214a934214da0a9b002b11d106980799ba
:101d0c0022002b0005f068f92b00069007912200a9
:101d1c003000390005f060f9012306000f000a932a
:101d2c0030003900114b002208f06efb06000f004a
:101d3c00039b013b03933200069807993b000cf080
:101d4c0022fb0028d3d10fe706231ee70024002531
:101d5c0090e7c0460000f07f2cf0000030f000004f
:101d6c0034f0000038f000000000f03f0000244088
:101d7c000000144000005043d4feffff0e960f9756
:101d8c000a9b0026652b94d100252f00049b0c9cec
:101d9c00f31a1693169b9e4275d1002f00d1b3e017
:101dac000026089b1f190a9b3e70652b2dd1159b95
:101dbc005d1e089b5e55039bb34202da5b420393a4
:101dcc000136039b002b00d0a7e0159beb1a0333c5
:101ddc00002b00dda1e02b236a1e002e00d0023365
:101dec000899023d8b54129b413b192b01d845237a
:101dfc000a93089b59190a9b0b70ac4202da380003
:101e0c000df0b6fd099b023b099303230b9a13407b
:101e1c00022b00d07ce6099b002b00dc78e60898ae
:101e2c000df0e8fa0c9b834200dc87e01800089b5d
:101e3c0030219c46099a60440df01cfc00230d9344
:101e4c0066e6002f0ad1002e08da2e23089a139981
:101e5c0001345354099b0137013b09932a19230080
:101e6c009446302102e0089ad15401336345fad1eb
:101e7c00099a2c19551b089a3030d0546b1e01341a
:101e8c00002509931fe0119b13941b69053ba3428a
:101e9c0083d90e9a0f9b0698079908f0b5fa08f0ab
:101eac0073fb049005910cf08ffd092800dd0920cf
:101ebc0010230b9a13400343c3d1109b672bc0d143
:101ecc00002ebeda013580220e980f991206944628
:101edc00069b013e1a93079b63441b931a9a1b9b08
:101eec0000920193049a059b0df090fc80231b0635
:101efc00cb18069007930e980f990022174b08f0f9
:101f0c0083fa0e900f9145e70b9bdb0600d447e755
:101f1c002e23089a1355013442e703980a2109f03d
:101f2c00abf8089b3031013d595503980a2109f053
:101f3c0059f8099b0390013b099342e7089b0999c7
:101f4c001a5c5b181a5401386ce7109b672b00d194
:101f5c00fae60a930623049326e6c04600002440c2
:020000040000fa
:101f6c00f0b599b012930b68cf680a934b68169032
:101f7c000e938b680b930b6911931368546806933b
:101f8c00079406980799002200230cf0fcf900280e
:101f9c000ed10a9b5b072ed408230a9a0a991a4081
:101fac0005920b9a194213d018333b7013000ce0b6
:101fbc0080200006844606990a00079961440b00ac
:101fcc00069207932d233b700b9b5a1e01230593fe
:101fdc00079b06995b005b0800290ed1af48834232
:101fec000bd1129b059a413bad4cae49b818192b3d
:101ffc0011d921000fe02b23e5e7a848834202d832
:10200c0018d1002916d0129b059a413ba64ca74922
:10201c00b818192bedd80df0abfc20000df0eaf937
:10202c000a9b0200009339000b9b16980af0f4f8f7
:10203c0019b0f0bd059b0598591c30233b54129bdd
:10204c00413b0f930f987823192800d8203b059813
:10205c007b540230931e0590099300220698079931
:10206c0000230cf0a6fd002800d16fe10023904c5a
:10207c00089302930394182310930e9b002b00db00
:10208c0010930026029c039d109b01331793069a14
:10209c00079b0c920d930c980d9922002b0008f0c5
:1020ac00b3f908f071fa22002b001490159104f08a
:1020bc0093ff02000b000c980d990df0affb7d4bbc
:1020cc000c900d9100222000290004f085ff0e9b3e
:1020dc0004000d000136002b07da0c980d99002234
:1020ec0000230cf066fd002804d1179b9e42d2d130
:1020fc00109e01360022200029006f4b04f06cff6b
:10210c0004000d0002000b000c980d990cf03bf92b
:10211c00002800d020e10c980d9922002b000cf027
:10212c0048fd002806d0149815990cf04dfcc007fa
:10213c0000d411e10698079922002b0004f060f8f6
:10214c0006900791079b069a5b005b08002a03d157
:10215c00524a934200d144e7119b059a053b1493d4
:10216c00934200d83fe100257342140016001793e8
:10217c0010950c95029a039b0698079908f044f960
:10218c0008f002fa129013910cf01efc031e00d002
:10219c00e5e00c9a002a00d1e1e00135029a039b9c
:1021ac001298139904f018ff02000b000698079977
:1021bc000df034fb002206900791029803993d4bd9
:1021cc0004f00aff0c9b179a013b029003910c93ad
:1021dc00934203d0149b26009c42cbd3109b002b24
:1021ec001ad1002d00dcffe00e9b002b00dcfbe085
:1021fc000a9bdb0700d5f7e02e2230213b191a7021
:10220c002a19ba18597001339342fbd16419ed4362
:10221c00099b0134eb18099300263b191e7002939d
:10222c00119b5d1e089b7e55b34202da5b420893fc
:10223c000136089b002b00d0bee0119beb1a01333a
:10224c0000d1b9e02b236a1e002e00d00233bb5400
:10225c000f9a7023023d192a00d8203b79190b7074
:10226c00ac4202da02980df083fb03230a9a134066
:10227c00022b11d1099b9c1e002c0ddd38000df09a
:10228c00b9f8059b984200dba6e0f8182200302133
:10229c000df0f0f900230b933800bfe60000f07f3f
:1022ac0030f000002cf0000038f0000034f000009a
:1022bc000000f03f0000b03f00002040089b02945b
:1022cc00039501330893029a039b1000190003f045
:1022dc0097ff04000d0002000b00069807990cf004
:1022ec0052f80028ead00024434d029a039b06982a
:1022fc0007990cf048f8002800d1bce60298039925
:10230c0022002b0004f068fe002200230cf051fc8c
:10231c0000280fd0029803990022384b04f05cfe81
:10232c0000220290039106980799344b04f054fe56
:10233c0006900791029803992b00220004f04cfea2
:10234c00089b02900391013b0893cee700232c4c91
:10235c00089002930394b6e700240025eae6109a4d
:10236c00002a0ad10c9a002a07d02e22ba55099ab3
:10237c000134013a09920122109230222e1901e007
:10238c003a550134b442fbd11800099a5730551b09
:10239c00092b01dc303318000f9b192b06d8202396
:1023ac000343613b192b01d80df05cfa6b1e741cb6
:1023bc000025b8550993f1e608980a2108f05cfe4f
:1023cc00013d3031089879550a2108f00bfe099b24
:1023dc000890013b09932ce7099b3a5c023bfb18e4
:1023ec001a5401384de7059c0a9bdb0600d413e711
:1023fc002e233b5501340fe70000e03f0000504313
:04240c000000f03f9d
:020000040000fa
:10241000f0b5de4657464e464546e0b5a7b0041e29
:1024200000d11ae20678002e00d117e24378012b82
:1024300000d11be2017d01290dd0022978d00029ad
:1024400000d10be2b94b1b68002b00d11ae2b8484f
:102450009847002602e2c369002b00d108e21a68ff
:10246000002a00d106e2427d002a00d104e2c28a9d
:10247000002a01d10026f1e1050014359a880332c3
:1024800003218a439a80c3699a88196880200023af
:10249000400502f0a1ff021e1cd1e2699188890863
:1024a000e38a5b1ae382637d013bdbb26375110053
:1024b0000831e1619268002a22d0002b00d0cde1e2
:1024c000a369002b00d0d9610c22002128000df057
:1024d000d7f8c3e1954b1b68002b05d0a169606854
:1024e000091a8910934898470c22002128000df002
:1024f000c7f80123637020000bf0f6fb0026ade166
:10250000a769002f00d1a9e17b689846002b05d070
:10251000002300933a002100b868c0470c22002134
:1025200028000df0adf83968200007f00ff895e1ac
:10253000437d002b00d1a1e1c28a002a00d19fe196
:1025400014218c468444614607918169002915d085
:10255000a36919688d00a268e369d01a85422cd955
:10256000724b1d68002d02d0637d7348a8470c2272
:10257000002107980df084f800266fe14168816121
:10258000012b04d80a60637d9b00e361e0e742759c
:10259000920080200023400503f04cf8011ef2d089
:1025a000624b1b68002b01d0644898470c22002125
:1025b00007980df065f8002650e16168c918802081
:1025c00000232a00400503f035f8021e10d0574bb7
:1025d0001b68002b05d0a1696068091a891058484a
:1025e00098470c22002107980df04af8002635e1a3
:1025f0006268e369d3180893002b1fd0042d1dd9fe
:102600005a7809929a780a92df781a799346a26cde
:102610009046002a04d01a78e06c00952100c0474b
:10262000089b19784b1e012b13d9032900d1f4e024
:102630003e4b1b68002b01d042489847a3690433e6
:10264000a361637d013bdbb2002b00d1ffe063752a
:1026500004e101290dd0092df0d93f025b463b432f
:102660009b4600236a462f2152181370b146a2469a
:102670004fe0062df1d8e1e706abdb7f013306aa78
:10268000d37708350134e4b2337ba34200d8b1e0fc
:10269000ab7940225b0603d40835ab791a42fbd0f4
:1026a0002f68002feed03b78012be5d0002be8d12e
:1026b000fb781b023a791a439346904546d01b4b50
:1026c0001b68002b03d020484246594698472b6888
:1026d00001221a700723ab80ab7920221343ab7120
:1026e0007a781202bb7813431f2206a98c466244f3
:1026f00004923a00083203927a7902925a46019281
:10270000009402223100504606f040f8061eb8d16f
:10271000c34606ab6a462f2152181278da77534621
:10272000de68002e6ed14e46544687e7043e0020f8
:102730000c0500009c03000018040000dc030000ee
:1027400054040000d804000090040000089b591ca9
:10275000781c04220cf0d5fc002892d1c346a04678
:102760005446b2464e46099b1b020a9a1a439146aa
:10277000089b1b78012b18d00ea90a8043460b72c8
:102780007b794b723b000833cb6008980af0d0fe8f
:1027900053465d68002d00d150e70eab0093032334
:1027a000524621009068a84748e77b7909930722a1
:1027b000089938000cf05aff0720a880aa79202336
:1027c0001343ab71089a53791b0292791a431f2362
:1027d00006a98c466344049308370397099b029328
:1027e0005b460193434600934b465146200005f05b
:1027f000cdff23e7c34606ab0022da775346de68f7
:10280000002e07d0b569337b0024d846002b00d0ba
:102810003ee7f0e74e46544610e7602200210ea83e
:102820000cf02eff0ea908980af082fe2500203534
:102830002700483703e00835af4200d1fee62b6899
:10284000002bf8d068680eaa21009847f3e70c2205
:10285000002107980cf014ff00e00026300027b09c
:10286000f0bcbb46b246a946a046f0bd0026f5e73f
:102870000026f3e70026f1e70026efe70026ede764
:082880000026ebe70026e9e762
:020000040000fa
:1028880070b582b00400431e033300d92ce2012343
:10289800c356012b4ad017dc5a1c00d124e2002b66
:1028a80000d01fe20378002b00d11de283680025c9
:1028b8001d710cf05dfaa36898690df067f8cf4bad
:1028c80008225a6125700fe2022b00d00ae28568bf
:1028d800cb4beb5c012b00d16ce1032b00d173e1f6
:1028e8009123eb5c002b00d09ee1a3689868fff76a
:1028f8008bfd002800d0f7e10df036f8002800d055
:10290800a1e1082120000cf00bff200008f022ffb5
:10291800a168c1239b00cb58002b00d1bbe17922d1
:102928008a5c002a00d1aee1002595e18368002b7e
:1029380030d020229a5c002a2fd11b7b002b4bd051
:10294800b049a0680c3004f061fa00287ad0431d21
:1029580000d1e0e0031d00d1f1e001280bd1a2680d
:10296800137d002b00d1fce0013b1375a3681b7d90
:10297800002b00d1fbe00cf0f7ff012800d913e190
:10298800a1681c3164200af079fea2682023012185
:10299800d154a9e1ff334370a6e1d8690cf0fcfcdf
:1029a800002800d1a0e1a26820230021d154a36807
:1029b8001b7b002bc4d1914b1b6a1b0726d48f4b62
:1029c80008229a61a1681c3164200af057fea268a7
:1029d80020230121d15487e10cf0c6ff01280fd82c
:1029e800864b08225a61a1681c3164200af046fe11
:1029f800a26820230121d15420000cf091fe73e13c
:102a08000cf0acff804909f0a5fde9e70cf0acff3c
:102a1800012806d80af080fc002808d1ff2363703b
:102a280062e10cf09bff794909f094fdf2e7a36895
:102a380064221a75a368633a5a73022120000cf0c5
:102a48006ffe7de7a368986803210bf042fe03211f
:102a580020000cf065fe6e4a2300002105200bf0d3
:102a6800b3fb051e02d1ff2363703de100260096eb
:102a78000023002200210cf06dfb012128000bf03f
:102a880082fb002128000cf03afe002128000af001
:102a980062ff009600230022002128000cf0bcfbf6
:102aa800a06829000bf018f8002802d1ff236370f2
:102ab8001ae1a168012339228b54a1682f328b5463
:102ac800013363700cf050ff012801d891260de006
:102ad8000cf044ff4f4909f03dfdf7e70cf072ff99
:102ae800ab5d013bdbb2ab550cf070ffa568ab5d8d
:102af800002bf3d10cf00cfd002807d00cf062ff7e
:102b08009122ab5c0133ab540cf060ff0421200030
:102b18000cf006fee8e00cf027ff012809d8a368ae
:102b2800f5221a71ff236370052120000cf0f8fdcf
:102b3800dae00cf013ff384909f00cfdefe70cf070
:102b480013ff012807d8a36800221a730721200061
:102b58000cf0e6fdc8e00cf001ff304909f0fafc82
:102b6800f1e71373072120000cf0dafdbce00cf04c
:102b7800fbfe012809d8a3685a7b002a0bd11a73d7
:102b8800072120000cf0ccfdaee00cf0e7fe244954
:102b980009f0e0fcefe7f5221a71ff2363700621c4
:102ba80020000cf0bdfd9fe00cf0d8fe1d4909f097
:102bb800d1fce5e608f0cefda06807f089fca26824
:102bc8000f4b0221d1548fe0013b2b738568002005
:102bd8000bf018fca860a26800231375a268537351
:102be800a168ce2292008b54a168054a8b54013308
:102bf8006370022120000cf093fd75e00044004151
:102c080039030000359c00005009000060090000ed
:102c1800c1410000780900008409000094090000ff
:102c2800a0090000740900000cf0ccfe9122ab5cf6
:102c3800013bdbb2ab540cf0c9fe2c49a368986881
:102c480004f070ff51e60cf089fe294909f082fc76
:102c580057e60135082d1ed0a2682b01d318ac33d6
:102c68001b680133f5d02b01d318b6331b78002b22
:102c7800efd02901ac315118c1239b00d358002251
:102c880020009847e5e77a228a5c002a03d09c3125
:102c9800002220009847a368986802210bf019fdcc
:102ca800a06807f015fc0cf05ffe012814d8a36893
:102cb80002221a73a56800200bf0a4fba860a36881
:102cc8000a221a75a36800225a730123637002212d
:102cd80020000cf025fd07e00cf040fe054909f046
:102ce80039fce4e7ff23637002b070bd19f50000fa
:082cf800b409000060090000ae
:020000040000fa
:102d0000f0b5c64600b5a2b004001d00012b0dd0e1
:102d1000002c07d02378db0704d5022d0cd0032d1f
:102d200000d109e122b080bcb846f0bdc04b1868a4
:102d300011000af0affeebe7289b002bf2d05d8874
:102d40002e00731e9e41f6b2289b1b88b94a9446fa
:102d500063449ab2092ae5d89300b74ad3589f46ec
:102d6000237860221a4223d08021b14b1868490091
:102d700006f000fb051ed5d0b04b80210094022246
:102d8000490009f0cfff071e05d1a94b290018689b
:102d90000af080fec6e7210008f070fda84b39005c
:102da000186805f067f9002808d046230022e2528f
:102db0003200002120000bf0f3ffb3e79c4b290009
:102dc00018680af067feade7237a012b05d03200c0
:102dd000012120000bf0e4ffa4e7e388fd2bf6d0ef
:102de0002278042313432370f1e7237a012b99d12e
:102df000e388fd2b00d195e7227804231343237049
:102e00003200032120000bf0cbff8be732000621bc
:102e100020000bf0c5ff20000bf016fb82e7289b7b
:102e2000587a022800d87de7d9680eaa0af080fff8
:102e300000280dd1002d5dd0824b9c466544adb27b
:102e4000012d60d90122042120000bf0a9ff69e7c0
:102e500007ae289b5b7a033bdb000eaad018022347
:102e60003200190005f0a4fd1a276f44289b5b7af5
:102e7000023bdb000eaad01802233a00190005f02d
:102e800097fd3b8898463688002d29d1237a002764
:102e9000012b14d02000603000210291019100919b
:102ea0000b00320003f034fd6822a35a9b1ba3528f
:102eb000237a012b0ad046444423e652bae7e36e54
:102ec000bb4201d0df78e5e70027e3e7e16e0029a8
:102ed000f1d0203aa35cc9785b18db1ba354eae766
:102ee0004423e35a4345a5d100236822a352203a44
:102ef000a3549fe70022042120000bf051ff200083
:102f000002f0bcfe0ee7200002f0b8fe0ae72378cc
:102f1000db060bd4002d00d004e7237814221a42dc
:102f200000d1ffe6200006f083fbfbe6320005211e
:102f300020000bf035ffede7289b002b00d1f1e6d8
:102f40005b88289a15792e00170010373e4a934265
:102f500015d03e4a934200d1e4e00b3a934200d0b0
:102f6000e0e6012d00d0dde6a388002b00d0d9e6f5
:102f7000221d02331900380005f01afdd2e60223a3
:102f800016226a440221380005f012fd289bd968f8
:102f9000587a0eaa0af0ccfe002800d1c2e602231d
:102fa0001a226a44022112a805f002fda288162303
:102fb0006b441b889a4200d0b4e606ab984628982a
:102fc000183002234246190005f0f2fc43461988e6
:102fd0001a236b441a88914205d01d4b1b68002ba5
:102fe00001d01c489847032d38d84622a35a06a979
:102ff00009885b1aa352002306aa12881649691889
:10300000c900791820004c3001250095496804f06a
:1030100092f8002800d17de05422a35a06a909881d
:103020005b1aa35222781023134323707ae6c0461a
:103030000c3e002000f2ffffc8ed0000012d000053
:103040001c3e0020f4f1ffff070e00000b0e0000f5
:10305000043e0020d0060000ffffff1f289820300c
:10306000022322004632190005f0a2fc0023072e9d
:10307000c2d1a36d002b12d0da781b789a4216d0f9
:103080003023289ad15c082919d009292cd02e4b3d
:103090001b68002b00d145e62c48984742e62a4b96
:1030a0001b68002b00d13de6294898473ae6264b9d
:1030b0001b68002b00d135e62648984732e607ae5c
:1030c0002c3b33801000303008aa05f071fc2898a2
:1030d000383002231e226a44190005f069fc738807
:1030e0005bba7380330087e707ae062333802898e6
:1030f00030300a3309aa05f05bfc289838300223e7
:103100001e226a44190005f053fc73885bba738071
:10311000330071e70c4b1b68002b00d102e60e4810
:103120009847ffe5022d00d0fce5012307aa022104
:10313000380005f03dfc2898183004230eaa02211f
:1031400005f036fceee5c046043e00201406000003
:0c315000fc0600002c07000054070000e3
:020000040000fa
:10315c0070b58cb004000d0001235b420b930ba9de
:10316c00022000f029fc0d2c00d9ebe1a400ae4ba1
:10317c001b599f46002d40d0286804a904f0ccfeb2
:10318c00002802d10120404244e0686803a904f001
:10319c00c3fe002802d1012040423be00b981823cb
:1031ac00009304ab0122002106f090fb002815d1fe
:1031bc000b9803aa002109f0e3fd002813d19b4bc7
:1031cc000b980122002109f089fb002810d1e9227b
:1031dc009749920000200bf003fa1be09449954aa2
:1031ec000bf0fef916e09249934a0bf0f9f911e055
:1031fc008f49924a0bf0f4f90ce00120404209e0af
:10320c000b9800230022002109f068fb88498c4aa6
:10321c000bf0e6f90cb070bd8a490b980bf00afe66
:10322c002c7b63425c4164420f239c4320346b78bb
:10323c00022b0ad0012b0cd02b78012b0dd0002b9c
:10324c0041d102231c43e4b209e004231c43e4b241
:10325c00f2e708231c43e4b2eee71c43e4b26b7bb9
:10326c00042b36d06968002943d0774a062002f037
:10327c0003fc012800d09ae006266b78022b3ad08a
:10328c00012b49d0042e4ed070496f4810220bf000
:10329c0032ff002862d104ae0623338068880cf01c
:1032ac009ffb7080694b06aa43cb43c21b6813601b
:1032bc002b78012b60d0002b6dd05d49644a002027
:1032cc000bf08ef9a6e7022bc9d140231c43e4b2c4
:1032dc00c5e76968002907d05b4a042002f0ccfbe3
:1032ec00012864d10426c8e7574b00221a60042633
:1032fc00c3e70626c1e72b7b002b06d0fd2202215b
:10330c00300003f0adfca860bce7062202213000bf
:10331c0003f0a6fca860b5e711220121300003f0f0
:10332c009ffca860aee7484b1b68002b0bd104ae8a
:10333c000433338068880cf053fb708000200bf052
:10334c00cbfe0590b4e704ae0423338068880cf000
:10335c0047fb70803c4b1b680593a9e704ae062322
:10336c00338068880cf03cfb7080374b06aa43cb4b
:10337c0043c21b6813609be7a8680023009304ab4f
:10338c000022210007f030fd002896d10221a86808
:10339c0006f014ff0be0a868009304aa210007f0c4
:1033ac0023fd002889d10221a86806f007ffed2231
:1033bc001f49920002200bf013f92be72c68200018
:1033cc000bf0b4f80221200006f0f8fe002805d01e
:1033dc001749204a00200bf003f91be714491e4a39
:1033ec000bf0fef816e70b980af09afb1b4b1870c3
:1033fc000f491b4a00200bf0f3f80be7174b1b7817
:10340c002b70f4220a49920000200bf0e9f801e736
:10341c00124b19780b980bf01ffa0549114a002032
:10342c000bf0def8f6e6c04684e7000005e9000084
:10343c0054f30000950300009b030000a10300005f
:10344c00ab030000c93d0000803d002018f70000d0
:10345c00b6030000c3030000c1030000723c00204f
:10346c00ca030000d70300006a68002a07d02b7833
:10347c00384909780b9807f041f900282fd1aa6830
:10348c00002a06d0334b19780b9807f0f5fe00286c
:10349c002ad1ea68002a07d02b692e4909780b98a3
:1034ac0005f07cfd002825d16a69002a06d0294b3d
:1034bc0019780b9807f030ff002820d1aa69002a50
:1034cc0007d02b7f234909780b9806f0e5fc0028e0
:1034dc001ad12149214a00200bf082f89ae61e49a4
:1034ec001f4a0bf07df895e6fb221b4992000bf06e
:1034fc0077f88fe618491b4a0bf072f88ae61649e2
:10350c00194a0bf06df885e61349184a0bf068f868
:10351c0080e6174b1d601049164a00200bf060f82e
:10352c0078e6154b1d600c49144a00200bf058f836
:10353c0070e60f4b1b682b600749114a00200bf0fb
:10354c004ff867e60f49002009f002f801204042cd
:10355c0060e6c046723c002054f300000b040000ef
:10356c00e3030000f5030000fe0300000704000065
:10357c00ec3d002012040000203e00201904000045
:08358c0022040000940e00006f
:020000040000fa
:10359400f0b58db005001400002815d0002a13d012
:1035a4008768002f10d051881279059220001030be
:1035b400d14bcb189eb2082e06d8b300cf4ef35889
:1035c4009f46059b012b01d00db0f0bd08aa022136
:1035d40005f0ecf999239b00fb5c022b0cd0032b28
:1035e4002ed0042bf0d108ab1b78002becd19923ff
:1035f4009b000122fa5407e008ab1b78002b14d17e
:1036040099239b000122fa5498239b00fc58002c18
:10361400dad09a239b00fb1899229200ba5cac2161
:10362400890079582800a047cee799239b000322fc
:10363400fa546033f818313200210cf01ff8e3e734
:1036440008ab1b78002bbfd199239b000122fa54ad
:10365400dae7059b022bb7d108ad013b2a00022112
:1036640005f0a4f9a64bfa18200018300123022112
:1036740005f09cf92a78012313409a229200bb5446
:10368400a2e7059b012b9fd19e4b9c4661444b4274
:1036940059414c1c022308aa022105f087f9ad23e5
:1036a4009b00fe58002e00d18ee708ab1b88ae228b
:1036b4009200b958009400222800b04784e7059b83
:1036c400012b00d080e7013308aa022105f06ef92e
:1036d400af239b00fc58002c00d175e70433f95844
:1036e40008ab1a88022393429b415b425b0002931e
:1036f40000230193009300222800a04764e7059b60
:10370400012b00d060e708ac01332200022105f050
:103714004df923885a4253410233af229200bc58d8
:10372400002c00d150e70432b958029300230193ce
:10373400009300222800a04746e7053a012a00d951
:1037440042e7012308aa022105f030f920001830cd
:103754000123192202a98c466244022105f026f9ac
:103764002000203001231a2202a98c46624402213f
:1037740005f01cf900230993059b052b1ad1af23ef
:103784009b00fe58002e26d00833fb5c002b03d090
:10379400b1239b00fb180993e36ab0229200b95845
:1037a40001220292628e0192626b009208aa2800a2
:1037b400b04710e020003030022307aa022105f0b0
:1037c400f5f8200038300223162202a98c46624400
:1037d400022105f0ebf8b1239b00f81834220021f4
:1037e4000bf04cfff0e6012a00d8ede60123162287
:1037f40002a98c466244022105f0d8f802ab9b7df5
:103804002a2b00d9c3e002ab9b7d9b003e4ad358d0
:103814009f462000183001233c4aba18032105f0c2
:10382400c5f8002800d1cfe6b1239b000122fa5449
:10383400cae6b2239b00fa1820001830042303219f
:1038440005f0b4f80028efd1bee6b5239b00fa18c2
:10385400200018302023052105f0a8f8002800d105
:10386400b2e6bd239b000022fa54dde7b3239b009c
:10387400fa18200018300423032105f097f80028d3
:10388400d2d1a1e69b239b00fa1820001830042310
:10389400032105f08bf897e61d4bfa182000183029
:1038a4003023052105f082f88ee69d239b00fa184b
:1038b400200018300223032105f078f884e6154b24
:1038c400fa18200018300223032105f06ff87be674
:1038d4009f239b00fa18200018300123032105f0d0
:1038e40065f871e69e239b00fa1820001830012326
:1038f4000a2105f05bf867e600f8ffff049d00006d
:1039040069020000fcf7ffff289d0000c5020000cb
:103914007d02000076020000059b032b00d053e6d5
:10392400bf239b00fb58002b00d14de6e2690892af
:10393400628b0992626a0a92628c0b9208a928002f
:10394400984741e69c239b00fa1820001830042372
:10395400032105f02bf837e6154bfa182000183030
:1039640001230a2105f022f82ee6124bfa18200052
:10397400183001230a2105f019f825e60e4bfa1830
:103984002000183001230a2105f010f81ce60bf082
:10399400edff032800d817e60bf0e2ff162302aa76
:1039a400944663441a78054908f0d6fd0ce6c046ef
:1039b400790200007a0200007b020000600a000025
:020000040000fa
:1039c40070b582b00c00142800d9f0e18000ce4b11
:1039d4001b589f4600230b60cc4b18680bf08efae3
:1039e4002060cb49cb4a00200af0fefd02b070bd36
:1039f400c94b1b68013304d0c74b1b6823600020ec
:103a0400f4e70021002008f017f9c34b18600130d7
:103a1400f2d1c249002008f09ffdda22bc4992008d
:103a240000200af0e1fde1e7bb4b1b680b600020be
:103a3400dce7bb49b84b186809f08afbb449b94aba
:103a44000af0d2fdd2e7b44b186808f04bfd002809
:103a540011d1b14b1868012109f0bcfa00280fd12b
:103a6400ad4b1868012109f085fae322a8499200b8
:103a74000af0bafdbae7a649ab4a0af0b5fdb5e7c4
:103a8400e222a34992000af0affdafe7a749a24b97
:103a940018680bf0bff900280dd1a54ba54aa6491b
:103aa4009d480068a54c009401f05cfb9849a44a29
:103ab4000af09afd9ae79649a24a0af095fd95e71d
:103ac400954b186809f0b6fa91499f4a0af08cfda3
:103ad4008ce7914b186809f087f800280bd18e4bbe
:103ae400186800230022002108f0fcfe8849974a48
:103af4000af07afd7ae78649954a0af075fd75e77a
:103b040009788d480bf072f98149924a0af06cfdec
:103b14006ce789480af076f97d498f4a00200af05b
:103b240063fd63e7824b621e94411c7478498b4a9f
:103b340000200af059fd59e748680bf05ffc0600c5
:103b44007d480bf068f8051e05d07149844a2800a9
:103b54000af04afd4ae777480bf08afb051ef4d1c8
:103b6400f2b2616874480af02bf8051eedd1237b8c
:103b7400052b39d89b007b4ad3589f466d480bf0e0
:103b8400d9fd05002378002b33d1637b002bdcd0d7
:103b94006649614d28680bf03df97349626800205d
:103ba40008f0dafc624b634a634964480090286871
:103bb40001f0d8fa0500c8e7032120000bf070fae1
:103bc4000500dfe7022120000bf06afa0500d9e7bf
:103bd400042120000bf064fa0500d3e7052120003e
:103be4000bf05efa0500cde76049002008f0b4fc54
:103bf400abe7012ba9d1a17b4f480bf0f7f8051ec9
:103c0400a3d14b4e30000bf02bfae37b33749ce7cb
:103c1400474b484a484940480068554c009401f0d5
:103c24001ffef5223a4992000af0defcdee64b88dc
:103c3400394a106800220092002104f0b7fa0028e3
:103c44000ed12178344b18684a4b0093002300228c
:103c540003f0a2fcf9222e4992000af0c5fcc5e645
:103c64002b49454a0af0c0fcc0e60bf0adfe434bbd
:103c740000221a700bf0acfe2178274b18683d4bdc
:103c840000930023012203f087fc21493c4a0af0f7
:103c9400abfcabe600290fd008000bf0affb394baf
:103ca400c2b21d490868210006f0eefaff22184945
:103cb40092000af099fc99e61549334a02200af069
:103cc40093fc93e6314a144b1868022106f030ff46
:103cd4000f492f4a0af088fc88e62e4b59600020d1
:103ce40084e62c4b1960002080e60b4b18682a4ba5
:103cf400009364230a00012106f06afe0449274a5e
:103d04000af072fc72e6c04680cb0000903d0020b1
:103d140090f400005d0300004c3e002050120000af
:103d2400d1c500007903000082030000c9c9000066
:103d3400483d00203c3b0020483c0020d9d60000f0
:103d44009a03000096030000a1030000ae030000e4
:103d5400aa030000b6030000be030000c60300006f
:103d6400cd030000d4cb0000b01200007812000094
:103d7400a9ba000081d40000df030000733c0020d6
:103d8400ef03000039e90000f703000049af000029
:103d940003040000f43d002031b600001b040000c1
:103da400064b1a680a605b684b6000201ee60449f3
:103db400002008f0d1fb0120404217e6f43d00202a
:043dc400d812000011
:020000040000fa
:103dc800f0b5ce4600b58cb00e0017009946d24823
:103dd800002403e001344c300a2c19d00579002d59
:103de800f8d001688e42f5d1cc4b1d68cc493b0018
:103df8003200002008f0aefb062f18d04b46002bef
:103e08001dd10394082f16d8bf00c64bdb599f4617
:103e1800c24b1d68c2493b003200002008f09afbe3
:103e2800062f04d0c049002008f094fb03e00022cc
:103e380008213000a8470cb080bcb946f0bdbb498a
:103e48003b004a46002008f085fb30000af070fb72
:103e58000221300006f0b4f9ede7b54b4c22039986
:103e68004a439b181a8d002a47d0b14b4c2103981e
:103e780041435b189b7a590600d49ee0042a75d00a
:103e88004c236343ab4a9b18ab4aa1caa1c3190090
:103e980013680b60a64a4c21039b4b43d318188d1b
:103ea8009881588dd8814c4321000c3189181c22e7
:103eb800300002f04dfc013062d09d4b4c2203993a
:103ec8004a439b181b8d042b66d005ab9b4aa4184c
:103ed8001a0083cc83c22168116000221a6114324f
:103ee80000920021300000f05bfb914b4c220399bb
:103ef8004a439b1801225a729de74c216143904b1b
:103f0800c9181c32300002f023fc01301dd0884b48
:103f18004c2203994a439b189b7a5b0721d4844b14
:103f28004c2203994a439b189b7a1b0700d482e7cb
:103f38007f4b4c224a439b1801225a728149002325
:103f48003200002008f006fb75e77f49002008f0e2
:103f580001fb30000af0ecfa0221300006f030f9db
:103f680069e70221300004f097fcd8e700200bf045
:103f7800b5f86f4b4c2203994a439b18186189e79f
:103f88007149002008f0e6fa30000af0d1fa02215f
:103f9800300006f015f94ee76c4b1a5905921c3b98
:103fa8001b590693002307930c33009305ab232278
:103fb8000021300000f0f4fa97e79b061ed4644b0a
:103fc80000221a604c216143624bc9181c32300030
:103fd80004f046fb013000d02de75d4b1b68962ba3
:103fe80000d128e75c49002008f0b4fa30000af054
:103ff8009ffa0221300006f0e3f81ce7574b042231
:104008000092033afd21300000f0cafa002803d1db
:10401800534908f09ffad2e74d4b1a6851490020de
:1040280008f098facbe7424b4c2203994a439b1875
:104038009b7a5b0600d5fee6424900233200002049
:1040480008f088fa06f0cafd4749002008f082fa0d
:10405800f1e64649002008f07dfa1c2304933c4b06
:1040680000221a6004aa05a9300006f057fc431c78
:104078000dd1374b1b680b2b00d1dce63c490020e7
:1040880008f068fa0221300006f09af8d3e64c21cd
:104098004c430c34264be218039c61435b18997a15
:1040a8000023009305ab06f0a1fe041e03d006f022
:1040b80095fd01236372002207213000a847bae664
:1040c8002c49002008f046fa194b4c2203994a4320
:1040d8009b189b7a9b0600d5ade6154b4c224a43ac
:1040e8009b1801225a7206f079fd00220021300047
:1040f800a847a0e62049002008f02cfa0c4b4c22d7
:1041080003994a439b1801225a7206f067fd002260
:1041180001213000a8478ee628360020ec3d00201b
:10412800140c000090ef0000580c0000780c000000
:10413800243600203836002018f7000054360020b6
:1041480030360020d00c0000a80c000050360020ab
:10415800343e00204c360020340d0000723c002014
:10416800f40c0000100d0000640d0000840d000028
:10417800ac0d0000c40d0000e80d00000022032172
:104188003000a8470a493200002008f0e3f952e657
:1041980008493200002008f0ddf90022042130002f
:1041a800a84748e6002205213000a84743e6c04654
:0841b800100e0000340e00009f
:020000040000fa
:1041c00070b582b000280bd08568002d08d0022b76
:1041d00008d0032b5fd0012b02d110000af07af82f
:1041e00002b070bd069b002bfad01b88069a51883e
:1041f000f022520193422ed016d8c0229200934250
:1042000022d0d02252019342ead1c9b2002902d170
:104210003c230122ea54826868230021d154eb6eca
:10422000002bddd09847dbe7842292019342d7d15f
:104230007023eb56013312d07023fd22ea546b6fca
:10424000002bcdd0002122e0c9b20029c8d12423ff
:104250000122ea54c4e739230022ea54c0e7782354
:10426000ea5c0023002a0bd084239b01994200d1f1
:1042700089e1c74b994200d187e14b4259414bb28a
:104280007022ab546b6f002baad0816870319847b5
:1042900000236b67a4e7069b002ba1d05b88069ade
:1042a0001279140006981030e82149018b4200d1a0
:1042b0002fe11ed9f02149018b4200d184e08421f5
:1042c00089018b4200d08be7012a00d888e72a00b9
:1042d00071320123022104f06bfb2a00723206982e
:1042e00018300123022104f063fb7023ff22ea54fb
:1042f00076e7c02189008b421ed0d02149018b4234
:1043000000d06de7012a00d86ae701ae042332002d
:10431000042104f04dfb33880e2b73d00f2b7ad081
:10432000012b00d0e8e02a00403206981830033311
:10433000022104f03dfb53e7022a00d050e76b4610
:10434000dc1c01232200022104f032fb23780d2b18
:1043500024d00cd80a2b15d00b2b28d12a002a32b6
:10436000069818300223062104f022fb38e70e2bb2
:104370001dd12a003432069818300423062104f097
:1043800017fb2de706981830042301aa022104f038
:104390000ffb019b1a0cea842b8521e72a002c32a3
:1043a000069818300523062104f002fb18e70bf0ed
:1043b000dffa032800d813e70bf0d4fa6b46da785b
:1043c000744908f0cbf80be7022a00d808e70698f2
:1043d0002030042301aa022104f0eafa019bc02242
:1043e000d205934206d06c4a934207d0382301226b
:1043f000ea54f5e638230222ea54f1e63823032290
:10440000ea54ede62a0044320698183001230221ce
:1044100004f0cefae4e6032c00d8e1e601ab022278
:104420009a5e012a00dddbe612014832aa180698de
:1044300018300423022104f0bbfa01ae0223f25e1d
:1044400012014c32aa18069820300423022104f0ed
:10445000affa0223f25e05321201aa18069828303c
:104460000423022104f0a4fa042c07d80222b35e2c
:104470001b01eb185433ff221a70b1e66b46dc1cab
:104480000698303001232200022104f091fa2378ab
:10449000022b1fd00ad8002b13d001ab02229b5e47
:1044a0001b01eb18543301221a7099e6032b1ad121
:1044b00001ab02229b5e1b01eb18543303221a70de
:1044c0008ee601ab02229b5e1b01eb1854330022e7
:1044d0001a7085e601ab02229b5e1b01eb18543378
:1044e00002221a707ce601ab02229b5e1b01eb18d4
:1044f0005433ff221a7073e60bf03afa032800d8ff
:104500006ee60bf02ffa01ab1a88244908f026f862
:1045100066e6022a00d063e601ac012322000221f4
:1045200004f046fa2378022b0dd0032b15d0012b73
:104530001cd1cd239b00ea180698183004230221d1
:1045400004f036fa4ce6cc239b00ea1806981830a3
:104550000223190004f02cfa42e6114bea180698df
:1045600018300223190004f023fa39e60bf000faa0
:10457000032800d834e60bf0f5f901ab1a780949a5
:1045800007f0ecff2ce602237ae6032378e6c04628
:10459000012100009808000000000f60b008000032
:0845a00032030000c80800000e
:020000040000fa
:1045a800f0b5d6464f464646c0b582b00f00160055
:1045b8009846b94ce40fe40704432ed02378db0770
:1045c80031d58021b54b1868490004f0cffe8146eb
:1045d80000282ed0b24b802100940222490008f016
:1045e8009dfb051e2bd0002f4bd1142e00d121e1ad
:1045f800232e00d15ce1012e00d0dde00a9b042bc4
:1046080000d0e4e0a1880023019343461b6800938f
:104618000223202207f02aff4ee0a24b09221a604b
:104628000120404252e09f4b0e221a600120404276
:104638004ce09c4b0c221a600120404246e0974b0c
:104648001868494609f022fa964b4d221a60012053
:1046580040423be0a3896326042b00d0ade04346eb
:1046680018680af03bfd000f0e2800d0b1e0c246e2
:1046780020002c30042241460af0f4ff04275b3e58
:10468800f5e0894b9f4227d0062f00d181e0fd2f0e
:1046980000d0b8e0e388fd2b00d0b6e0012e00d0b2
:1046a800b5e00a9b042b00d0b3e0033b637043469c
:1046b8001a78a18808f0fcfb7c4b1868290003f0e5
:1046c800d5fc03000020002b00d1a8e002b0e0bc1c
:1046d800ba46b146a846f0bd092e3ed019dd0d2eca
:1046e80049d0642e29d10a9b042b00d081e043468f
:1046f8001b68dab2022a00d97de003221a4052016f
:10470800237860218b4313432370210007f0b2f80c
:10471800d2e7072e13d0082e0dd10a9b042b62d1a5
:10472800a1880023019343461b68009302230422b7
:1047380007f09cfec0e763263fe063263de00a9b46
:10474800042b4ed1a1880023019343461b68009394
:104758000223052207f08afeaee70a9b042b44d108
:10476800a1880023019343461b6800930223032278
:1047780007f07cfea0e70a9b042b38d1a188002310
:10478800019343461b6800930223012207f06efe43
:1047980092e7237a022b30d1012e30d10a9b042bc9
:1047a8002fd1a1880023019343461b68009302235d
:1047b800022207f05bfe7fe76326384b18684946fc
:1047c80009f064f9374b1e60012040427ee7162647
:1047d800f3e71626f1e76326efe71626ede70c2642
:1047e800ebe71626e9e71626e7e71626e5e7162695
:1047f800e3e71626e1e71626dfe76326dde763260b
:10480800dbe71626d9e76326d7e76326d5e76326cd
:10481800d3e71626d1e76326cfe76326cde71f4bfc
:104828001868494609f032f91e4b4d221a600120da
:1048380040424be74346002bedd0200028301c2295
:1048480000210af019ff0a9b6326142bb5d1a3890e
:10485800062bc0d143461b78ff2bbed1c246200091
:104868003030102241460af0fdfe10270926a389a0
:104878002385e3896385200002f0d6fd0028aed0a9
:10488800a188e3895bba9bb2019300975346320033
:10489800280007f07dff0fe7683a00200c3e002053
:1048a800012d0000343e0020ffff00001c3e0020c8
:1048b8004346002bb1d0200028301c2200210af0ea
:1048c800dbfe0a9b0c2b00d1c4e6632675e7c046c5
:020000040000fa
:1048d8000023f0b51600b1b0039007910493079d2b
:1048e8002b78002b00d1cfe001235b420c9310ab57
:1048f80000240e9380230b940d940f932b5d002bb3
:1049080001d0252b30d1002c06d029002200039895
:104918002d190af018fa0795079b1a78252a00d04e
:10492800a7e001331800002105930793243a037880
:104938002b2b25d02dd8202b25d0232b26d0002972
:1049480000d007902a2b2cd009f074fb01250d907c
:104958000020079a11000b780132303b092b64d9eb
:1049680000282dd007912be00134c7e701230b99cc
:104978000b430b9311000130d9e702230b99f7e79a
:1049880004230b99f4e708230b99f1e710230b99fb
:10499800eee72d2bead0302befd00029d4d00790aa
:1049a800d2e7336801301a1d1b68079032600d93f7
:1049b800002b05da01220b995b424a400b920d93ba
:1049c8000b9bda0702d5022293430b93079b1a78b5
:1049d8002e2a0dd100270c975a785d1c07952a2a94
:1049e80025d10233079333681a1d1b6832600c9374
:1049f80007a809f0d1ff079d070028780af02dffc6
:104a0800252800d1d5e06138172800d9dbe00af065
:104a180051fe1fdab63ea6a6a6da3edadadada9c44
:104a28005e7fdadac6da4edada6e280092e7280014
:104a380009f000fb01210c902a0013780135303b66
:104a4800092b03d9002fd3d00792d1e70f00f3e742
:104a58003200390008a809f01cff002800d17be0cb
:104a68006b1c079303982b7808aa0ba9fdf77afa11
:104a78002418049b1c19a34200dcb0e04f22594bb8
:104a88001a6001235b420493049831b0f0bd3300ef
:104a98000122390008a804f089ff00285cd00135fc
:104aa800039808aa0ba9079506f048f9e0e7330030
:104ab8000022390008a804f079ff00284cd00135fd
:104ac800039808aa0ba9079508f059fdd0e7330009
:104ad8000022390008a804f069ff00283cd00135fd
:104ae800039808aa0ba9079507f0a2ffc0e73300af
:104af8000022390008a804f059ff00282cd06b1cac
:104b080007932b78039808aa0ba903f0e5fbafe7f6
:104b180033000022f02108a804f048ff00281bd029
:104b2800089b099a0135079513430cd12e4d28008f
:104b38000af062fc290002000b9b00930d9b03986e
:104b480007f06cfb94e77823dce7049b39001a191b
:104b580008a8330007f0d9fb0135079589e732002b
:104b6800390008a809f095fe0028f5d06b1c0793ba
:104b780003982b7808aa0ba9fcf77cff78e7802f0d
:104b8800ead1336801351a1d1b68326008aa137010
:104b98000123079503980ba908f066fe68e7802fa4
:104ba800dad132680135131d336012680023079586
:104bb800f0e7802fd0d10b9b0135009301220b49e0
:104bc8000d9b0795bbe7059b0122079300235242e3
:104bd8000c9206490b930d9300930232afe70494ad
:104be8007de6c046343e002024f000002af0000094
:020000040000fa
:104bf800f0b5c64600b598b0041e08d0022b0ad0fe
:104c0800032b51d0012b02d1100009f05ffb18b023
:104c180080bcb846f0bd1e9b002bf8d01a885d8872
:104c28008368002bf3d0e0235b019a42efd11e9bef
:104c3800587a0128ebd9d96804aa09f075f8002830
:104c4800e5d003ae04233200042104a803f0acfe2f
:104c580031880a2909d00b001e3b9bb2042bd6d8f9
:104c680006aa200003f0a4ffd1e7a368d42292008b
:104c78009e58002ecbd0edb2002d07d000219950c0
:104c880000910b000a002000b047c0e71e9a527a34
:104c9800022abcd1d422920000219950320001315d
:104ca800200005f043ffb2e71e9b002bafd08368be
:104cb800002bacd0e0235b011e9a52889a42a6d101
:104cc8001e9b1b79022ba2d103ad1e981030023314
:104cd8002a00042103f068fe29880b000a3b9ab2d7
:104ce800182a00d9d3e093006f4ad3589f46a36887
:104cf80088229a5c04ae002a01d17e331e00771cfc
:104d08001e98183006233a00052103f04dfec3b261
:104d180098463370002b00d179e7a5688823eb5caf
:104d2800002b00d173e7c2b229007f3138000af0a6
:104d3800e4f9002803d17e23eb5c434514d0280016
:104d48007e300a2200210af097fca0687f30327872
:104d580039000af087fca26831787e23d154a26812
:104d68000a330021d15452e7d4239b00ea5800218a
:104d7800e9500131200005f0d9fe48e7a268d423a4
:104d88009b00d358002b00d141e703ab02215b5ea7
:104d9800013334d004ad0023049305932b811e986e
:104da8001830063311226a44052103f0fdfdc0b214
:104db8002870002800d12ae703ab02255d5fa668aa
:104dc8007d23f75cbd4200db21e7062231007f31fd
:104dd800112068440af091f90023984204d19633cf
:104de800f25a04ab1a810123691cc9b204aa0092c1
:104df800d4229200b5583a002000a84707e77d3230
:104e08001e9818300123022103f0cefdffe6a268a8
:104e180096321e9818300223190003f0c5fda368c6
:104e28009622995a103a9952a36802329a5c002a3b
:104e380000d0ece6d42292009d58002d00d1e6e681
:104e480000219950a3687e33009301231a001900aa
:104e58002000a847dbe6a268d5239b00d358002b87
:104e680000d1d4e61e981830012304aa022103f0c9
:104e78009bfda268d5239b00d35804a9200098471e
:104e8800c5e61e9a1832200003f092febfe60af02b
:104e98006bfd032800d8bae60af060fd03ab1a8858
:104ea800024907f057fbb2e6f0cd00007c0b00008a
:020000040000fa
:104eb800f83c00201c00000000000000fc3d002021
:104ec8000800000000000000143d00201c00000045
:104ed80000000000043e0020040000000000000064
:104ee800dc3900208c00000000000000083e002093
:104ef8000400000000000000403e00200c000000fc
:104f08000100000000000000000000000000ffff9a
:104f1800703d002010000000000000000c3e002042
:104f28001000000000000000683a00208400000023
:104f3800000000001c3e00200400000000000000eb
:104f4800bc3200206803000000000000303d002053
:104f58001800000000000000001000206708000092
:104f680000000000983c00206000000000000000e5
:104f78001c390020c0000000000000006718002055
:104f88000100000000000000f03b00202c000000a1
:104f98000000000068180020001000000000000059
:104fa800803b00204000000000000000c03d0020c1
:104fb8000c000000000000007f3b00200100000002
:104fc80000000000713c002001000000000000000b
:104fd800000000200010000000000000cc3d002070
:104fe8000c00000000000000e43d00200800000064
:104ff80000000000803d00201000000000000000bc
:10500800723c00200100000000000000243600204f
:10501800f802000000000000203e0020040000000c
:1050280000000000ec3d0020080000000000000027
:105038003e3e0020020000000100000001000000c8
:10504800682800204006000000000000c03b002047
:1050580030000000000000003d3e0020010000007c
:105068000100000001000000f43d002008000000dd
:1050780000000000483d002014000000000000006f
:10508800733c00200100000000000000483c0020a4
:1050980029000000000000003c3b00204300000005
:1050a800000000004c3e0020040000000100000049
:1050b800ffffffff903d00201000000000000000ef
:1050c8003c3e002001000000000000005c3d002084
:1050d8001400000000000000a03d00202000000097
:1050e80000000000743c00202400000000000000c4
:1050f800a82e00201404000000000000243e002018
:105108001000000000000000503e002004000000d5
:105118000100000001000000343e002004000000ef
:1051280000000000ec3a00205000000000000000e1
:105138001c3c00202c00000000000000383e00202d
:105148000400000000000000d83d00200c00000012
:1051580000000000000000000000000066666666af
:020000040000fa
:10516800f0b5d6464f4680b58bb004000d0016004a
:105178000393431e033300d90ae18368002b00d14f
:1051880008e18278002a00d106e1002900d1c6e0b2
:105198000021280008f0c6fa002800d103e1002efb
:1051a80000d0c4e02823eb5c9a46002b08d0a26804
:1051b8009623d35a5246013a1341db0700d4f4e050
:1051c800a36879229a5c002a00d0f0e07a329f5cca
:1051d800002f00d0ede0039a002a00d1b5e0137843
:1051e800012b00d9e7e0137a022b00d9e5e0774ad2
:1051f800230000210b2008f0e7ff8146002800d19a
:10520800dde02023eb5c00932b000522012109f04f
:10521800e7ff00230093534602220421484609f081
:10522800dfff2723eb5c002b00d197e02b00213315
:105238000622009205320521484609f0d1ff002eca
:1052480000d19be00023f356002200920232022193
:10525800484609f0c5ffb278002a00d086e0727887
:105268000223d10703d45208013b5a4013400022bd
:10527800009203323221484609f0b2ff039b002b0b
:1052880021d05b680025009503220721484609f0d4
:10529800a7ff039b1b78009503220821484609f0c5
:1052a8009fff039b1b7a009503220921484609f0ba
:1052b80097ff039b197801955b7800930a231422c2
:1052c800484607f098f80121484608f0b9fba0685d
:1052d800494608f001fc002800d172e0a268c12309
:1052e8009b001299d150a2687a230121d154a26857
:1052f80022330239d150a2680c330021d154002e38
:1053080044d000217156a268a723d154a268013b5a
:105318000021d154a26804330131d1523de0002e5e
:105328000dd00021002008f0fdf900284bd03000f6
:1053380007f0eefd002800d034e709272de0c12250
:10534800920012999950002727e005a809f0e6fd78
:10535800002800d04be705ab039348e700230093f0
:105368000b220521484609f03bff68e7f31c009231
:1053780005220321484609f033ff70e70023009314
:1053880002220221484609f02bff77e70021bae7fd
:10539800022702e0022700e0012738000bb0c0bc5a
:1053a800ba46b146f0bd0927f7e70227f5e708270f
:1053b800f3e70827f1e70227efe70227ede70827d9
:1053c800ebe70827e9e70927e7e7c04669f50000a2
:020000040000fa
:1053d800f0b5de4657464e464546e0b593b08b4697
:1053e8000292914a1268002a00d103e10ea9012213
:1053f80052420e920f920a818a72040e70210c405a
:105408009b00dfb2c3039b0f9a46c609f6b2400061
:10541800c3b205936b3911200aab9c4660440af06d
:10542800e7fa01231843c3b206933d005746802389
:105438009b00029a9a4234d9520a92b2f93bff3b36
:1054480001218946490288460ea8752141703b43cf
:105458002b432343f5390b438370c670d305db0f09
:1054680005990b4303714271069b83716e4b1b6850
:105478000b220aa99847002800d1bde00aab1a7a86
:1054880012025b7a134300d0cbe04a46002a11d0bf
:10549800fc22d2b20492a14607970896aa4609931d
:1054a80056e0029a93b29846d205d20d0023002105
:1054b8008946c9e7fe22ece70eacfe23637042463c
:1054c800594612200aab9c4660440af0cbf8434682
:1054d800e31800229a70da704346da1d524b1b68b3
:1054e8000aa920009847002800d187e0019a1300f4
:1054f8000aa98c4663441b791f251d400395951df9
:105508004b5d002b16d164242f006744464e336848
:105518000122390000209847002871d0013c0aabcd
:105528005b5d002b04d1002cf1d1039b99464de023
:10553800002c52d0039b052b4dd1019b9c46e34484
:10554800029ad31a1a00029380239b009a4247d3e7
:1055580043460193042bafd90ea8049b4370324bea
:105568001b6802220021984700284bd02e4b1b684d
:10557800019a002158469847002845d00eab0022d2
:105588005a719a71284b1b6805320aa915200c001c
:105598008c4660449847002838d0a3781f251d40c2
:1055a80003952379002bc5d164241f4e336801224b
:1055b8000ba90020984700282ad0013c0aab1b7988
:1055c800002bb5d1002cf1d1039b9946ff20000296
:1055d8004d4605431de09946f8e7039b9946f5e7d4
:1055e8004c46079f089e5546099b002a00d01ee797
:1055f8001d000ee0ff250ce0ff250ae0ff2508e06e
:10560800ff2506e0ff2504e0ff2502e0ff2500e076
:10561800ff25280013b0f0bcbb46b246a946a046f9
:0c562800f0bd1d00f5e7c046083e002064
:020000040000fa
:10563400f0b5de4657464e464546e0b58db005000a
:10564400894616009b46824b1b68002b00d1ede077
:1056540008aa01235b420893099313819372802360
:105664005b059d425bd080239b009e427ad9720adf
:1056740092b2f93bff3b80218900884608ac752132
:105684006170594689000b43280e702101400b4379
:10569400e903890f0b43a370eb09e370d305db0f18
:1056a40069000b43237162710521192002ab9c46ea
:1056b40060440af09ff901231843a071644b1b68ee
:1056c4000b2204a920009847002800d1b0e004aac6
:1056d400137a1b02507a184300d0ace013005d4ae1
:1056e4001a809a705a4f2b0045460196984604ab8f
:1056f4009b78002b44d1642604ac3b6801220a2128
:1057040002a88446614400209847002800d191e013
:10571400013ea378002b2bd1002eeed12ae002ab60
:10572400da1d00214c4805f035ff002808d102abf2
:1057340007331b78db0707d4002e90d100207ae0d2
:10574400464b184380b276e002abd91d01230b709f
:105754000022414805f01eff002884d03f4b184327
:1057640080b268e0b3b29846f205d20d002385e713
:10577400002e05dc04ab9878ff231b0218435ae083
:1057840004ab9b78db0718d56424314b04aeaa46de
:105794001d002b6801220a2102a8844661440020ce
:1057a400984700284ed0013cb378db0702d5002c83
:1057b400efd1dfe75546002cdcd004ab9b78fe2b01
:1057c400d8d1042d1dd8ea1c214b1b6804a9002044
:1057d4009847002838d004ac2a002100484609f034
:1057e40043ff63199b78a370a944019b5b1b1a00b8
:1057f400019380239b009a4200d378e74546160024
:105804009ae7134b1b682a00494600209847002852
:105814001cd00f4b1b68032204a91f2002aca44612
:10582400604498470028dfd1ff2004e0ff2002e015
:10583400ff2000e0ff200db0f0bcbb46b246a946f5
:10584400a046f0bdff20f6e7ff20f4e7ff20f2e7d3
:10585400083e0020ffffff000800001000ffffffcc
:020000040000fa
:10586400f0b5ce46474680b589b004000d00160059
:105874001f00431e033300d9e4e08368002b00d1ea
:10588400e2e08278002a00d1e0e0002900d1b3e010
:105894000021280007f048ff002800d1dce0002e9a
:1058a40000d0b1e0a36899462823eb5c9846962380
:1058b4004a46d35a4246013a1341db0700d4cde0ad
:1058c40079234a46d35c002b00d0c9e07a33d35cf9
:1058d400002b00d0c6e0002f00d1a3e03b78012bc1
:1058e40000d9c1e0fb683c3b634a934200d9bde068
:1058f400c1239b004a461099d150a2687923012103
:10590400d1540022023900239946a36810011b18c0
:10591400ac331960a3681b18b63348461870a368e3
:105924000b208446944460460001844663445981b4
:105934000132082ae9d1514a23000021092008f044
:1059440045fc8146002800d192e02023eb5c0093c3
:105954002b000522012109f029fc00230093434672
:1059640002220421484609f021fc002e62d00023c3
:10597400f3560022009202320221484609f016fc36
:10598400f31cb278009205220321484609f00efc6c
:1059940072780223d10703d45208013b5a401340c2
:1059a4000022009203323221484609f0fffb002f07
:1059b40015d03b7c002500950a220521484609f0b4
:1059c400f5fb3b78009503220821484609f0eefbdd
:1059d400fb68009503220921484609f0e7fb0121f1
:1059e400484608f009f8a068494608f077f801230a
:1059f4005840c000c0b22ae0002e0dd00021002083
:105a040007f092fe002835d0300007f083fa002812
:105a140000d047e709201ae0c1229200109999505a
:105a2400002014e003a809f01bfb002800d05fe766
:105a340003af5de70023009302220221484609f0e8
