:020000040000fa
:10000000f87f0020c9ea00005fa90000a7bf000038
:1000100000000000000000000000000000000000e0
:10002000000000000000000000000000eba2000043
:100030000000000000000000eba2000031fb000007
:10004000eba20000eba20000eba2000069f90000a7
:100050001dda0000eba2000085c70000eba2000043
:10006000eba20000f1810000eba20000eba2000077
:10007000eba20000eba2000075de0000eba2000086
:10008000eba20000eba20000eba20000eba200003c
:10009000eba200000000000000000000eba2000046
:1000a000eba20000eba20000eba20000eba200001c
:020000040000fa
:1000b000f8b5c046f8bc08bc9e46704769e8000029
:1000c000f8b5c046f8bc08bc9e46704741e8000041
:020000040000fa
:1000d000dc89000001000000a49e00000100000077
:020000040000fa
:1000e0001b5b33313b316d6572726f723a20696e02
:1000f00076616c69642073656e64207265717565e4
:1001000073742073746174652068616e646c650a31
:100110001b5b306d000000001b5b33313b316d65b4
:1001200072726f723a2073656e64207265717565c4
:100130007374207374617465206661696c7572658f
:100140000a1b5b306d0000001b5b33313b316d657a
:1001500072726f723a20746f6f206d616e792063d6
:100160006f6d6d616e64730a1b5b306d0000000083
:100170001b5b33313b316d6572726f723a20736570
:100180006e64207265717565737420737461746533
:10019000206661696c7572652c20706f737369627b
:1001a0006c65206e6f2073706163650a1b5b306d38
:1001b000000000001b5b33313b316d6572726f7262
:1001c0002c2063736120434d44353320777269746a
:1001d00065206661696c65642c2073746174757345
:1001e0003d3078253034780a1b5b306d000000000c
:1001f0001b5b33313b316d6572726f722c206c6505
:100200006e67746820434d44353320777269746596
:10021000206661696c65642c207374617475733d2c
:100220003078253034780a1b5b306d001b5b33312e
:100230003b316d6572726f722c206d6573736167ef
:100240006520434d443533207772697465206661bb
:10025000696c65642c207374617475733d30782506
:100260003034780a1b5b306d000000001b5b3331bb
:100270003b316d6572726f722c20696e746572729b
:1002800075707420636865636b206661696c656472
:100290002c207374617475733d253032780a1b5bb2
:1002a000306d00001b5b33313b316d6572726f72d4
:1002b0002c206d65737361676520434d4435332091
:1002c00072656164206661696c65642c2073746179
:1002d0007475733d3078253034780a1b5b306d00bf
:1002e0001b5b33313b316d6572726f722c206e6f08
:1002f0002061636b20746f206d6573736167650a9d
:100300001b5b306d000000001b5b33313b316d65c2
:1003100072726f722c20756e6b6e6f776e206576c1
:10032000656e7420747970650a1b5b306d00000087
:100330001b5b33313b316d6572726f722c20696ebd
:100340007465727275707420636c656172202830f8
:10035000782530327829206661696c65642c2073b9
:1003600074617475733d253032780a1b5b306d0003
:100370001b5b33313b316d6572726f722c20756e71
:1003800068616e646c6564206576656e7420307893
:10039000253032780a1b5b306d0000001b5b333167
:1003a0003b316d6572726f722c206d736728256406
:1003b0002920434d44353320777269746520666186
:1003c000696c65642c207374617475733d30782595
:1003d0003034780a1b5b306d000000001b5b33314a
:1003e0003b316d6572726f722c206c656e6774683c
:1003f00020434d4435332072656164206661696c29
:1004000065642c207374617475733d3078253034c5
:10041000780a1b5b306d00001b5b33313b316d652f
:1004200072726f722c2072656365697665206d65e6
:1004300073736167652065786365656473206275b1
:10044000666665722e2025642025642025640a1bbb
:100450005b306d001b5b33313b316d6572726f72c7
:100460002c206d73672825642920434d44353320a3
:1004700072656164206661696c65642c20737461c7
:100480007475733d3078253034780a1b5b306d000d
:100490001b5b33313b316d6572726f722c2073655b
:1004a0007175656e6365206e756d626572206d692c
:1004b0007373696e672c20657870656374696e6705
:1004c00020253034782c20676f7420253034780a4a
:1004d0001b5b306d000000001b5b33313b316d65f1
:1004e00072726f722c20696e76616c6964206d6522
:1004f00073736167652074797065207265636569df
:100500007665642025640a1b5b306d001b5b33310c
:100510003b316d6572726f722c20756e6b6e6f77ea
:100520006e206576656e7420747970652025640a86
:100530001b5b306d000000001b5b33313b316d6590
:1005400072726f722c206661696c656420746f2012
:10055000616c6c6f6361746520736c6162206f669f
:100560002025642062797465730a1b5b306d00007e
:100570001b5b33313b316d6572726f723a2066617d
:10058000696c656420746f20616c6c6f6361746565
:100590002072656376206275666665720a1b5b3041
:1005a0006d0000001b5b33313b316d6572726f7201
:1005b0003a206661696c656420746f20616c6c6fb1
:1005c000636174652073656e64206275666665722a
:1005d0000a1b5b306d0000001b5b33313b316d65e6
:1005e00072726f723a206661696c656420746f2064
:1005f000616c6c6f636174652072656376207061f5
:10060000636b6574206275666665720a1b5b306d8c
:10061000000000001b5b33313b316d6572726f72fd
:100620003a20756e6b6e6f776e20616464726573cd
:1006300073207479706520282564290a1b5b306d4e
:10064000000000001b5b33313b316d6572726f72cd
:100650003a20736f636b65742077726974652063e9
:100660006f6d6d616e64207265717565737420695c
:100670006e697469616c69736174696f6e2066611b
:10068000696c65640a1b5b306d0000001b5b3331d5
:100690003b316d6572726f723a20736f636b657474
:1006a00020777269746520636f6d6d616e6420726e
:1006b000657175657374207472616e6d69737369a9
:1006c0006f6e206661696c65640a1b5b306d0000ab
:1006d0001b5b33313b316d4572726f722c206c6540
:1006e0006e677468206d69736d617463682025643a
:1006f0002076732025640a1b5b306d001b5b333151
:100700003b316d6572726f723a206e6f20616c6c56
:100710006f6361746564207061636b6574206275da
:1007200066666572730a1b5b306d00001b5b3331bc
:100730003b316d6572726f723a207061636b6574e4
:1007400020627566666572732066756c6c0a1b5b49
:10075000306d00001b5b33313b316d6572726f721f
:100760003a206661696c656420746f2077726974e1
:100770006520746f207265636569766520627566b1
:100780006665720a1b5b306d000000001b5b333135
:100790003b316d6572726f723a206e6f20667265c2
:1007a0006520736f636b6574730a1b5b306d0000ab
:1007b0001b5b33313b316d6572726f723a2066613b
:1007c000696c656420746f20637265617465206e66
:1007d0006577207265636569766520736f636b6505
:1007e000740a1b5b306d00001b5b33313b316d6560
:1007f00072726f723a2061646472657373207479e7
:100800007065206d69736d617463682028256420ac
:10081000213d202564290a1b5b306d001b5b3331b1
:100820003b316d6572726f723a20756e61626c65f4
:1008300020746f2066696e64206c697374656e69dc
:100840006e6720736f636b65740a1b5b306d00000d
:1008500025642e25642e25642e25640025783a25ee
:10086000783a25783a25783a25783a25783a2578dd
:100870003a25780025783a25783a25783a25783a45
:1008800025783a25783a25642e25642e25642e2570
:10089000640000003a3000004346472049442025c8
:1008a00064206e6f742068616e646c65640d0a006c
:1008b0004449204944202564206e6f742068616e8d
:1008c000646c65640d0a00004e564d432049442077
:1008d0002564206e6f742068616e646c65640d0a17
:1008e0000000000052656365697665206275666682
:1008f000657220616c6c6f636174696f6e206661f4
:10090000696c65640d0a00004661696c6564207459
:100910006f20696e697469616c6973652057494e0f
:1009200043206465766963650d0a00004661696c61
:10093000656420746f20696e697469616c697365a0
:100940002057494e4320736f636b6574730d0a0023
:1009500057494e433a2052657365740d0a000000f2
:1009600057494e433a20496e697469616c697a69e6
:100970006e672e2e2e000000636f6d706c657465bf
:100980000d0a00006661696c6564207265736574a8
:100990000d0a00006661696c6564206f700d0a00c5
:1009a00072657365742074696d6564206f75740d6c
:1009b0000a00000057494e43206576656e74207525
:1009c0007064617465206661696c65642c20726571
:1009d00073657474696e670d0a0000005753434ec7
:1009e00043204944202564206e6f742068616e6442
:1009f0006c65640d0a0000005363616e20506172e3
:100a0000616d733a202564202564202564202564c7
:100a10000d0a0000454344534120637572766520fa
:100a20004944202564206e6f742068616e646c6593
:100a3000640d0a0045585443525950544f204145c3
:100a4000434342204f702074797065202564206ee6
:100a50006f742068616e646c65640d0a00000000ac
:100a60004d5154542041454343422070726f70658c
:100a7000727479202564206e6f742068616e646cd6
:100a800065640d0a000000004e4554494643204964
:100a900044202564206e6f742068616e646c656408
:100aa0000d0a00004f5441204145434342207374d6
:100ab00061747573202564206e6f742068616e64a4
:100ac0006c65640d0a0000005050532041454343bb
:100ad000422049442025303478206576656e7420a4
:100ae000756e68616e646c65640d0a004a4f494e0c
:100af0003a204173736f63696174696f6e20666f2a
:100b0000756e6420666f72206e657720636f6e6eff
:100b1000656374696f6e0d0a000000004a4f494e0c
:100b20003a204e6577206173736f63696174696ff2
:100b30006e206661696c65640d0a00004a4f494e7b
:100b40003a204e6f206173736f63696174696f6ed1
:100b500020666f756e640d0a000000005749464913
:100b60004320436f6578204944202564206e6f74cc
:100b70002068616e646c65640d0a0000574946493f
:100b8000432049442852737029202564206e6f74d5
:100b90002068616e646c65640d0a00005b4d515401
:100ba000545d3a4d51545420636f6e6e65637469a1
:100bb0006e672e2e2e2e2e0d0a0000005b4d515416
:100bc000545d3a4d51545420646973636f6e6e6581
:100bd0006374696e672e2e2e2e2e0d0a0000000003
:100be0005b4d5154545d3a4d51545420636f6e6eb9
:100bf0006563742073746174757320756e6b6e6faa
:100c0000776e2e0d0a0000005b4d5154545d3a453d
:100c100052524f52203a20556e6b6e6f776e204db8
:100c2000515454205365727669636520526571751d
:100c30006573740d0a0000005b4e45545d3a4552e1
:100c4000524f52203a204e65742043616c6c6261b1
:100c5000636b204e554c4c005b4e45545d3a4552fb
:100c6000524f523a20536f636b6574206572726ff6
:100c7000722025642066726f6d206576656e742023
:100c800025640d0a000000005b4e45545d3a455254
:100c9000524f523a204661696c656420746f20623d
:100ca000696e6420736f636b65740d0a0000000049
:100cb0005b4e45545d3a736574736f636b6f70740c
:100cc00020535543434553530d0a00005b4e455492
:100cd0005d3a736574736f636b6f7074204641493e
:100ce0004c20206572726e6f203a2025640d0a0038
:100cf0005b4e45545d3a4552524f523a2046616927
:100d00006c656420746f20636f6e6e65637420740d
:100d10006f2074686520736572766572210d0a0014
:100d20005b4e45545d3a536f636b6574204c697339
:100d300074656e696e672e2e2e2e2e2e0d0a000003
:100d40005b4e45545d3a4163636570742065727211
:100d50006f72210d0a0000005b4e45545d3a574901
:100d60004e435f534f434b45545f4556454e545f8a
:100d7000544c535f434f4e4e4543540d0a00000000
:100d80005b4e45545d3a4552524f52203a20556ec3
:100d90006b6e6f776e204e65742053657276696353
:100da0006520526571756573740d0a005b5749467d
:100db000495d3a444e53207265736f6c76652054da
:100dc000696d65204f757420282564290d0a00007f
:100dd0005b574946495d3a444e53207265736f6cc8
:100de0007665204572726f7220282564290d0a00ed
:100df0005b574946495d3a444e53207265736f6ca8
:100e000076652074797065206572726f722028256e
:100e100064290d0a000000005b574946495d3a4ebf
:100e20006f20415020466f756e6420526573636178
:100e30006e0d0a005b574946495d3a2325303264fe
:100e40000d0a00005b574946495d3a3e3e2320208b
:100e5000524920205265636f6d6d656e6420434872
:100e600020425353494420202020202020202020ad
:100e7000202020535349440d0a0000005b57494687
:100e8000495d3a3e3e232020202020204175746891
:100e900020547970650d0a3e3e230d0a00000000c3
:100ea000666538300000000054696d652055544374
:100eb000203a2025640d0a0054696d653a202530da
:100ec00032643a253032643a25303264206f66202d
:100ed000253032642f253032642f253032640d0adc
:100ee000000000004552524f52212121203a204655
:100ef000756e6374696f6e2025732c204c696e6566
:100f0000204e6f203a2025642c2053746174757331
:100f1000203a2025640d0a0041637469766500005b
:100f20005b574946495d3a4e6f20526567756c6163
:100f3000746f727920446f6d61696e7320446566c9
:100f4000696e65640d0a00005b574946495d3a23a6
:100f50002e20202043432020202020204368616e43
:100f60006e656c7320566572205374617475730dd1
:100f70000a0000005b574946495d3a253032643a21
:100f8000205b252d36735d20307825302d36782076
:100f900025642e25642025730d0a00005b57494601
:100fa000495d3a444f4e45200d0a00005b574946c3
:100fb000495d3a4552524f52203a20447269766553
:100fc000722048616e646c6520496e76616c69645c
:100fd0000d0a00005b574946495d3a5b4552524f46
:100fe000525d203a20494e56414c49445f5041528f
:100ff000414d4554455220666f7220415554484535
:101000004e5449434154494f4e0d0a005b574946df
:10101000495d3a4552524f52203a20556e6b6e6fe1
:10102000776e20576966692053657276696365201b
:10103000526571756573740d0a0000001b5b3333d4
:101040006d5b4150505d203a204d51545420525810
:101050003a2046726f6d20546f706963203a2025e4
:1010600073203b204d7367202d3e2025730d0a1bf6
:101070005b306d004d61745f6e6574004f4b3031b5
:101080003330406a756c79303732300031302e3071
:101090002e312e33310000005a50520041646d69e8
:1010a0006e0000004f6472794033303034303300ca
:1010b0005a50522f446174612f4f75740000000024
:1010c00054657374206d657373616765000000007b
:1010d00057494e435330325f4452495645525f534d
:1010e000544154455f494e49540d0a0057494e43f7
:1010f0005330325f4452495645525f535441544530
:101100005f4f50454e5f4452495645520d0a00000c
:1011100057494e435330325f4452495645525f530c
:10112000544154455f574946495f43414c4c424105
:10113000434b5f52454749535445520d0a00000046
:1011400057494e435330325f4452495645525f53dc
:10115000544154455f4d5154545f43414c4c4241be
:10116000434b5f52454749535445520d0a00000016
:101170003139342e3138322e38302e3434000000dc
:1011800057494e435330325f4452495645525f539c
:10119000544154455f5345545f534e54505f53453b
:1011a000525645520d0a000057494e435330325fa4
:1011b0004452495645525f53544154455f5749463e
:1011c000495f4346470d0a0057494e435330325f4b
:1011d0004452495645525f53544154455f57414923
:1011e000545f464f525f495056340d0a00000000cc
:1011f00057494e435330325f4452495645525f532c
:10120000544154455f574149545f464f525f4950de
:1012100056365f4c4f43414c0d0a000057494e4330
:101220005330325f4452495645525f5354415445fe
:101230005f574149545f464f525f495056365f47aa
:101240004c4f42414c0d0a0057494e435330325fd8
:101250004452495645525f53544154455f474554a3
:101260005f54494d450d0a0057494e435330325f94
:101270004452495645525f53544154455f57414982
:10128000545f464f525f54494d450d0a000000001f
:1012900057494e435330325f4452495645525f538b
:1012a000544154455f4d5154545f4346470d0a0025
:1012b00057494e435330325f4452495645525f536b
:1012c000544154455f4d5154545f434f4e4e454336
:1012d000540d0a0057494e435330325f4452495629
:1012e00045525f53544154455f574149545f464fff
:1012f000525f4d5154545f434f4e4e4543540d0a77
:101300000000000057494e435330325f4452495663
:1013100045525f53544154455f49444c450d0a00c2
:1013200057494e435330325f4452495645525f53fa
:10133000544154455f455849545f504f5745525f9b
:10134000534156455f4d4f44450d0a0057494e43a2
:101350005330325f4452495645525f5354415445cd
:101360005f5345545f4d5154545f5055424c49535f
:10137000485f5041594c4f41440d0a0057494e4374
:101380005330325f4452495645525f53544154459d
:101390005f4d5154545f5055424c4953480d0a001b
:1013a00057494e435330325f4452495645525f537a
:1013b000544154455f574149545f464f525f505521
:1013c000424c4953480d0a0057494e435330325f4f
:1013d0004452495645525f53544154455f454e541b
:1013e00045525f504f5745525f534156455f4d4ff1
:1013f00044450d0a0000000057494e435330325f08
:101400004452495645525f53544154455f455252e8
:051410004f520d0a001f
:020000040000fa
:10141800f0b58fb0141e02d01379002b01d10fb094
:10142800f0bd170010372e2502ab9c4665440223f9
:101438002a000221380007f079fe2e88bb4b1b7862
:10144800db0700d479e2b94b9b88b3420cd02279f0
:1014580015006388b6498c46634499b20529ded8dd
:101468008b00b449cb589f46227915006388b04950
:101478008c46634499b20529d1d88b00ae49cb5824
:101488009f46aa4f052dcad10025002f1bd0217ecb
:101498002823e25c914205d0a84b1b68002b01d0a1
:1014a800a7489847217e082937d0092900d186e026
:1014b800a24b1b68002bb2d0a2489847afe7002781
:1014c800e0e70027dee70ef07dfb071e1dd003785e
:1014d8000122134303700223037286809b02436731
:1014e800836705237c22835401328354964b1b68ff
:1014f800033283500125002bc9d1904b1b68002b68
:1015080000d18ce79148984789e78c4b1b68ab4220
:1015180000d184e78e48984781e70426be813a00c7
:10152800103220001830042307f000fe200020307d
:1015380002233a000e32022107f0f8fdfb895bba5c
:10154800fb813e853a002c322000283004230821f4
:1015580007f0ecfd2000303002233a002a32022145
:1015680007f0e4fd7b8d5bba7b857b78002b03d18c
:101578003b78042213433b70002d73d03b78db0784
:1015880013d53b7a022b02d0fa88fd2a0dd1674a7f
:1015980097420ad01278d20707d5644a1278920780
:1015a80003d5624a127a9a4232d0644b1b68002be8
:1015b80001d06848984738000df05afd2fe70626f5
:1015c800be813a00143220001830102307f0aefd17
:1015d8002000203002233a000e32022107f0a6fd37
:1015e800fb895bbafb813e853a0030322000283007
:1015f8001023092107f09afd2000303002233a0019
:101608002a32022107f092fd7b8d5bba7b85ace71d
:10161800464bfa89db899a42c7d1444b1b78db07d2
:1016280003d438000df024fdf9e6404c00220221d5
:1016380020000ef015fa227860231a403b786021ca
:101648008b4313433b70637a7b72e388fb80636f41
:101658007b67a36fbb677c23e25cfa540133e25ccf
:10166800fa54dce63b785b0700d4d8e60022032175
:1016780038000ef0f5f9d2e62c4e002e00d1cee659
:1016880033786021194210d1022d00d0c7e632000c
:1016980046322000183002235e3907f047fd30003b
:1016a80008f084fbbbe60026e7e70392033a012a29
:1016b80000d9b4e62000183002230e2202a98c4675
:1016c8006244032107f032fd042d1cd00e2302aa28
:1016d800944663441a88039b1f498c466344db0085
:1016e800fb18596830004c3001230093002306f0a2
:1016f8004af900280fd1114b1b68002b00d18ee648
:10170800164898478be620002030022306aa0321ba
:1017180007f00cfddae73278102313433370002208
:10172800052130000ef09cf979e6c046b847002044
:1017380000f2ffffa8e90000c0e900009c4b002070
:10174800e807000014060000a44b0020b0070000c2
:101758008c0700001c080000ffffff1f5407000053
:101768007d4e002e00d15ae63378602119421ad0f6
:101778000392053a012a00d951e6b36d002b1ed019
:10178800da781b789a4222d0217e082927d00929a5
:101798005fd0724b1b68002b00d140e67048984719
:1017a8003de60026dde732004632200028300223dd
:1017b8005e3907f0bbfc300008f0f8fa2fe6674bfb
:1017c8001b68002b00d12ae66648984727e6634b3a
:1017d8001b68002b00d122e6634898471fe60423c4
:1017e80002aa13822000183007aa07f09ffc2000e5
:1017f80020300223122202a98c466244190007f005
:1018080095fc02ab5b8a5bba02aa5382200028309f
:10181800022305aa032107f089fc062d32d005ab67
:101828001a88039b51498c466344db00fb185968ae
:1018380030004c300123009306ab06f0a4f80028d2
:101848002bd1464b1b68002b00d1e8e54848984748
:10185800e5e5062302aa1382200018300a3308aaf5
:1018680007f064fc200020300223122202a98c46d3
:101878006244190007f05afc02ab5b8a5bba02aa01
:101888005382c3e72000303002230e2202a98c467f
:101898006244032107f04afcc1e73278102313435e
:1018a80033700022052130000ef0daf8b7e52a4b34
:1018b800012d00d0b3e5002b00d1b0e51a78042142
:1018c8008a431a707a315a5a102002435a52a6e5ae
:1018d8000023ede70023ebe71f4c012d00d09ee528
:1018e800002c00d19be523780422134323700023a6
:1018f80063700022032120000ef0b2f800220721b5
:1019080020000ef0adf88ae50024e6e70024e4e7bd
:101918001148022d00d082e5002800d17fe57e2203
:10192800835a08210b4383527d3a08210ef098f818
:1019380075e50020ede70020ebe7227915006388c4
:101948000c498c46634499b2052900d967e58b0098
:101958000949cb589f46c046b84700209c4b0020f9
:1019680014060000fc0600002c070000ffffff1f04
:0c1978005407000000f2ffffd8e9000057
:020000040000fa
:10198400f0b59db012930b6814900b934b681191b2
:1019940004938b680d930b691593cb6808931368b4
:1019a40054680693079406980799002200230df0c3
:1019b40006fb00280dd10b9b5b073ed408230b9a32
:1019c4001a400c920d9a09920b9a1a4213d01833aa
:1019d4000ae080200006844606990a0007996144bb
:1019e4000b00069207932d23089a13700d9b013b5d
:1019f400099301230c93079b06995b00994a5b08a2
:101a040000291cd193421ad1089a129b94460c982f
:101a1400413b95496044192b00d994490ef064fe6a
:101a240008980ef08bfb0b9b0200009308990d9b0a
:101a340014980bf055f81db0f0bd2b23d4e7934256
:101a440002d80cd100290ad0089a129b94460c980b
:101a5400413b87496044192be0d98649dee70022df
:101a64000698079900230df00cff0026824f0028ea
:101a740000d1c2e00023039312980ef0aefdc3b26e
:101a84001093049b002b00dae7e1109b0a93672b69
:101a940012d1049b002b01d10133049365230a93d3
:101aa400039b04331ddb039b049a934219da6623d8
:101ab4000a93039b002b14da049b013304930a9bbf
:101ac400662b0ed1039b002b03da002300266a4ffa
:101ad4000393109b672b04d0039a049b944663449e
:101ae4000493069a079b0e920f93002334003d0043
:101af400139322000e980f992b0009f055f809f062
:101b040073f98022120694460e9b1690179118932f
:101b14000f9b63441993189a199b00920193220016
:101b24002b000ef035fd80231b06cb180022290064
:101b34000e900f932000514b09f036f8139b0400cc
:101b440001331393139a049b0d009342d1d10022c5
:101b54004b4b05f071fe0e9a0f9b04000d000df027
:101b64000ffa002800d079e00e9a0f9b200029007c
:101b74000df087fe002805d0169817990df08cfdfe
:101b8400c0076bd50698079922002b0004f06aff62
:101b9400002206900791394b3000390005f04cfec5
:101ba400069a079b0e900f910df0a2f800286dd0b5
:101bb400039b013303930a9b662b69d1049b013376
:101bc4000493039e68e026002f00039b01330393d4
:101bd40000222a4b3000390005f02efe04000d00cf
:101be40002000b00069807990df0e9f90028ead0e5
:101bf40000230024234d0a9325e00390e8e7039b88
:101c0400214a934214da0a9b002b11d106980799b2
:101c140022002b0005f010fe2b00069007912200f5
:101c24003000390005f008fe012306000f000a9376
:101c340030003900114b002208f0b6ff06000f00f7
:101c4400039b013b03933200069807993b000df078
:101c5400b6f90028d3d10fe706231ee70024002598
:101c640090e7c0460000f07f64fd000068fd0000be
:101c74006cfd000070fd00000000f03f00002440f7
:101c84000000144000005043d4feffff0e960f974f
:101c94000a9b0026652b94d100252f00049b0c9ce5
:101ca400f31a1693169b9e4275d1002f00d1b3e010
:101cb4000026089b1f190a9b3e70652b2dd1159b8e
:101cc4005d1e089b5e55039bb34202da5b4203939d
:101cd4000136039b002b00d0a7e0159beb1a0333be
:101ce400002b00dda1e02b236a1e002e00d002335e
:101cf4000899023d8b54129b413b192b01d8452373
:101d04000a93089b59190a9b0b70ac4202da3800fb
:101d14000ef0eafc099b023b099303230b9a134040
:101d2400022b00d07ce6099b002b00dc78e60898a7
:101d34000ef004fa0c9b834200dc87e01800089b39
:101d440030219c46099a60440ef058fb00230d9301
:101d540066e6002f0ad1002e08da2e23089a13997a
:101d640001345354099b0137013b09932a19230079
:101d74009446302102e0089ad15401336345fad1e4
:101d8400099a2c19551b089a3030d0546b1e013413
:101d9400002509931fe0119b13941b69053ba34283
:101da40083d90e9a0f9b0698079908f0fdfe09f057
:101db4001bf8049005910df06ffc092800dd092043
:101dc40010230b9a13400343c3d1109b672bc0d13c
:101dd400002ebeda013580220e980f991206944621
:101de400069b013e1a93079b63441b931a9a1b9b01
:101df40000920193049a059b0ef0cafb80231b06f4
:101e0400cb18069007930e980f990022174b08f0f1
:101e1400cbfe0e900f9145e70b9bdb0600d447e702
:101e24002e23089a1355013442e703980a2109f036
:101e340051fd089b3031013d595503980a2109f0a1
:101e4400fffc099b0390013b099342e7089b099916
:101e54001a5c5b181a5401386ce7109b672b00d18d
:101e6400fae60a930623049326e6c04600002440bb
:020000040000fa
:101e7400f0b599b012930b68cf680a934b6816902b
:101e84000e938b680b930b69119313685468069334
:101e9400079406980799002200230df090f8002873
:101ea4000ed10a9b5b072ed408230a9a0a991a407a
:101eb40005920b9a194213d018333b7013000ce0af
:101ec40080200006844606990a00079961440b00a5
:101ed400069207932d233b700b9b5a1e01230593f7
:101ee400079b06995b005b0800290ed1af4883422b
:101ef4000bd1129b059a413bad4cae49b818192b36
:101f040011d921000fe02b23e5e7a848834202d82a
:101f140018d1002916d0129b059a413ba64ca7491b
:101f2400b818192bedd80ef0dffb20000ef006f9df
:101f34000a9b0200009339000b9b16980af0d0fd0f
:101f440019b0f0bd059b0598591c30233b54129bd6
:101f5400413b0f930f987823192800d8203b05980c
:101f64007b540230931e059009930022069807992a
:101f740000230df086fc002800d16fe10023904c73
:101f8400089302930394182310930e9b002b00dbf9
:101f940010930026029c039d109b01331793069a0d
:101fa400079b0c920d930c980d9922002b0008f0be
:101fb400fbfd08f019ff22002b001490159105f089
:101fc4003bfc02000b000c980d990ef0e9fa7d4bd6
:101fd4000c900d9100222000290005f02dfc0e9b91
:101fe40004000d000136002b07da0c980d9900222d
:101ff40000230df046fc002804d1179b9e42d2d149
:10200400109e01360022200029006f4b05f014fcbd
:1020140004000d0002000b000c980d990cf0cfff8a
:10202400002800d020e10c980d9922002b000df01f
:1020340028fc002806d0149815990df02dfbc00734
:1020440000d411e10698079922002b0004f00afd40
:1020540006900791079b069a5b005b08002a03d150
:10206400524a934200d144e7119b059a053b1493cd
:10207400934200d83fe100257342140016001793e1
:1020840010950c95029a039b0698079908f08cfd0d
:1020940008f0aafe129013910df0fefa031e00d070
:1020a400e5e00c9a002a00d1e1e00135029a039b95
:1020b4001298139905f0c0fb02000b0006980799cb
:1020c4000ef06efa002206900791029803993d4b98
:1020d40005f0b2fb0c9b179a013b029003910c9301
:1020e400934203d0149b26009c42cbd3109b002b1d
:1020f4001ad1002d00dcffe00e9b002b00dcfbe07e
:102104000a9bdb0700d5f7e02e2230213b191a7019
:102114002a19ba18597001339342fbd16419ed435b
:10212400099b0134eb18099300263b191e70029396
:10213400119b5d1e089b7e55b34202da5b420893f5
:102144000136089b002b00d0bee0119beb1a013333
:1021540000d1b9e02b236a1e002e00d00233bb54f9
:102164000f9a7023023d192a00d8203b79190b706d
:10217400ac4202da02980ef0b7fa03230a9a13402b
:10218400022b11d1099b9c1e002c0ddd38000df093
:10219400d5ff059b984200dba6e0f8182200302109
:1021a4000ef02cf900230b933800bfe60000f07ffb
:1021b40068fd000064fd000070fd00006cfd00007f
:1021c4000000f03f0000b03f00002040089b029454
:1021d400039501330893029a039b1000190004f03d
:1021e40041fc04000d0002000b00069807990cf056
:1021f400e6fe0028ead00024434d029a039b069889
:1022040007990cf0dcfe002800d1bce60298039983
:1022140022002b0005f010fb002200230df031fbff
:1022240000280fd0029803990022384b05f004fbd4
:1022340000220290039106980799344b05f0fcfaaa
:1022440006900791029803992b00220005f0f4faf6
:10225400089b02900391013b0893cee700232c4c8a
:10226400089002930394b6e700240025eae6109a46
:10227400002a0ad10c9a002a07d02e22ba55099aac
:102284000134013a09920122109230222e1901e000
:102294003a550134b442fbd11800099a5730551b02
:1022a400092b01dc303318000f9b192b06d820238f
:1022b4000343613b192b01d80ef096f96b1e741c75
:1022c4000025b8550993f1e608980a2109f002fba4
:1022d400013d3031089879550a2109f0b1fa099b7a
:1022e4000890013b09932ce7099b3a5c023bfb18dd
:1022f4001a5401384de7059c0a9bdb0600d413e70a
:102304002e233b5501340fe70000e03f000050430b
:042314000000f03f96
:020000040000fa
:10231800f0b5de4657464e464546e0b5a7b0041e22
:1023280000d11ae20678002e00d117e24378012b7b
:1023380000d11be2017d01290dd0022978d00029a6
:1023480000d10be2b94b1b68002b00d11ae2b84848
:102358009847002602e2c369002b00d108e21a68f8
:10236800002a00d106e2427d002a00d104e2c28a96
:10237800002a01d10026f1e1050014359a880332bc
:1023880003218a439a80c3699a88196880200023a8
:10239800400503f03ffa021e1cd1e26991888908c2
:1023a800e38a5b1ae382637d013bdbb2637511004c
:1023b8000831e1619268002a22d0002b00d0cde1db
:1023c800a369002b00d0d9610c22002128000ef04f
:1023d80013f8c3e1954b1b68002b05d0a169606811
:1023e800091a8910934898470c22002128000ef0fa
:1023f80003f80123637020000cf066fa0026ade1b3
:10240800a769002f00d1a9e17b689846002b05d069
:10241800002300933a002100b868c0470c2200212d
:1024280028000df0e9ff3968200007f04dfc95e120
:10243800437d002b00d1a1e1c28a002a00d19fe18f
:1024480014218c468444614607918169002915d07e
:10245800a36919688d00a268e369d01a85422cd94e
:10246800724b1d68002d02d0637d7348a8470c226b
:10247800002107980df0c0ff00266fe141688161d7
:10248800012b04d80a60637d9b00e361e0e7427595
:10249800920080200023400503f0eafa011ef2d0e2
:1024a800624b1b68002b01d0644898470c2200211e
:1024b80007980df0a1ff002650e16168c918802037
:1024c80000232a00400503f0d3fa021e10d0574b10
:1024d8001b68002b05d0a1696068091a8910584843
:1024e80098470c22002107980df086ff002635e159
:1024f8006268e369d3180893002b1fd0042d1dd9f7
:102508005a7809929a780a92df781a799346a26cd7
:102518009046002a04d01a78e06c00952100c04744
:10252800089b19784b1e012b13d9032900d1f4e01d
:102538003e4b1b68002b01d042489847a3690433df
:10254800a361637d013bdbb2002b00d1ffe0637523
:1025580004e101290dd0092df0d93f025b463b4328
:102568009b4600236a462f2152181370b146a24693
:102578004fe0062df1d8e1e706abdb7f013306aa71
:10258800d37708350134e4b2337ba34200d8b1e0f5
:10259800ab7940225b0603d40835ab791a42fbd0ed
:1025a8002f68002feed03b78012be5d0002be8d127
:1025b800fb781b023a791a439346904546d01b4b49
:1025c8001b68002b03d020484246594698472b6881
:1025d80001221a700723ab80ab7920221343ab7119
:1025e8007a781202bb7813431f2206a98c466244ec
:1025f80004923a00083203927a7902925a4601927a
:10260800009402223100504606f074fb061eb8d131
:10261800c34606ab6a462f2152181278da7753461a
:10262800de68002e6ed14e46544687e79c4b00204c
:102638000c0500009c03000018040000dc030000e7
:1026480054040000d804000090040000089b591ca2
:10265800781c04220df0edfb002892d1c346a04659
:102668005446b2464e46099b1b020a9a1a439146a3
:10267800089b1b78012b18d00ea90a8043460b72c1
:102688007b794b723b000833cb6008980bf0cafc8f
:1026980053465d68002d00d150e70eab009303232d
:1026a800524621009068a84748e77b79099307229a
:1026b800089938000df096fe0720a880aa792023f3
:1026c8001343ab71089a53791b0292791a431f235b
:1026d80006a98c466344049308370397099b029321
:1026e8005b460193434600934b465146200006f053
:1026f80001fb23e7c34606ab0022da775346de68c0
:10270800002e07d0b569337b0024d846002b00d0b3
:102718003ee7f0e74e46544610e7602200210ea837
:102728000df06afe0ea908980bf07cfc25002035f8
:102738002700483703e00835af4200d1fee62b6892
:10274800002bf8d068680eaa21009847f3e70c22fe
:10275800002107980df050fe00e00026300027b059
:10276800f0bcbb46b246a946a046f0bd0026f5e738
:102778000026f3e70026f1e70026efe70026ede75d
:082788000026ebe70026e9e75b
:020000040000fa
:1027900070b582b00400431e033300d92ce201233c
:1027a000c356012b4ad017dc5a1c00d124e2002b5f
:1027b00000d01fe20378002b00d11de283680025c2
:1027c0001d710df03df9a36898690df09bffcf4b8b
:1027d00008225a6125700fe2022b00d00ae28568b8
:1027e000cb4beb5c012b00d16ce1032b00d173e1ef
:1027f0009123eb5c002b00d09ee1a3689868fff763
:102800008bfd002800d0f7e10df06aff002800d012
:10281000a1e1082120000df03dfe200009f07afb27
:10282000a168c1239b00cb58002b00d1bbe17922ca
:102830008a5c002a00d1aee1002595e18368002b77
:1028400030d020229a5c002a2fd11b7b002b4bd04a
:10285000b049a0680c3004f009ff00287ad0431d6d
:1028600000d1e0e0031d00d1f1e001280bd1a26806
:10287000137d002b00d1fce0013b1375a3681b7d89
:10288000002b00d1fbe00df02bff012800d913e154
:10289000a1681c3164200bf0c7fca2682023012131
:1028a000d154a9e1ff334370a6e1d8690df030fca3
:1028b000002800d1a0e1a26820230021d154a36800
:1028c0001b7b002bc4d1914b1b6a1b0726d48f4b5b
:1028d00008229a61a1681c3164200bf0a5fca26853
:1028e00020230121d15487e10df0fafe01280fd8f1
:1028f000864b08225a61a1681c3164200bf094fcbd
:10290000a26820230121d15420000df0c3fd73e102
:102910000df0e0fe80490af081fae9e70df0e0fef3
:10292000012806d80bf04efa002808d1ff23637067
:1029300062e10df0cffe79490af070faf2e7a36880
:1029400064221a75a368633a5a73022120000df0bd
:10295000a1fd7de7a368986803210cf09afc032190
:1029600020000df097fd6e4a2300002105200cf099
:1029700047fa051e02d1ff2363703de10026009651
:102980000023002200210df085fa012128000cf01f
:1029900016fa002128000df06dfd002128000bf033
:1029a00086fd009600230022002128000df0e2faa7
:1029b000a06829000bf062fe002802d1ff2363709b
:1029c0001ae1a168012339228b54a1682f328b545c
:1029d000013363700df084fe012801d891260de0cb
:1029e0000df078fe4f490af019faf7e70df0aafe4c
:1029f000ab5d013bdbb2ab550df0a8fea568ab5d4e
:102a0000002bf3d10df03efc002807d00df09afe0c
:102a10009122ab5c0133ab540df098fe04212000f1
:102a20000df038fde8e00df05bfe012809d8a36841
:102a3000f5221a71ff236370052120000df02afd95
:102a4000dae00df047fe38490af0e8f9efe70df05b
:102a500047fe012807d8a36800221a730721200027
:102a60000df018fdc8e00df035fe30490af0d6f93a
:102a7000f1e71373072120000df00cfdbce00df011
:102a80002ffe012809d8a3685a7b002a0bd11a739c
:102a9000072120000df0fefcaee00df01bfe2449e6
:102aa0000af0bcf9efe7f5221a71ff2363700621e3
:102ab00020000df0effc9fe00df00cfe1d490af028
:102ac000adf9e5e609f026faa06808f031f9a26848
:102ad0000f4b0221d1548fe0013b2b7385680020fe
:102ae0000cf0acfaa860a26800231375a2685373b7
:102af000a168cd2292008b54a168054a8b54013302
:102b00006370022120000df0c5fc75e00044004117
:102b10003503000095a40000500900006009000082
:102b2000f53c0000780900008409000094090000c9
:102b3000a0090000740900000df004fe9122ab5cb6
:102b4000013bdbb2ab540df001fe2c49a368986841
:102b500005f0a4fa51e60df0bdfd29490af05ef931
:102b600057e60135082d1ed0a2682b01d318ac33cf
:102b70001b680133f5d02b01d318b6331b78002b1b
:102b8000efd02901ac315118c1239b00d35800224a
:102b900020009847e5e77a228a5c002a03d09c311e
:102ba000002220009847a368986802210cf071fb6e
:102bb000a06808f0bdf80df093fd012814d8a368b3
:102bc00002221a73a56800200cf038faa860a368e6
:102bd0000a221a75a36800225a7301236370022126
:102be00020000df057fc07e00df074fd05490af0d8
:102bf00015f9e4e7ff23637002b070bd85020100a0
:082c0000b409000060090000a6
:020000040000fa
:102c0800f0b5c64600b5a2b004001d00012b0dd0da
:102c1800002c07d02378db0704d5022d0cd0032d18
:102c280000d109e122b080bcb846f0bdc04b18689d
:102c380011000bf0f9fcebe7289b002bf2d05d8824
:102c48002e00731e9e41f6b2289b1b88b94a9446f3
:102c580063449ab2092ae5d89300b74ad3589f46e5
:102c6800237860221a4223d08021b14b186849008a
:102c780006f03eff051ed5d0b04b802100940222fd
:102c880049000af0adfc071e05d1a94b29001868b8
:102c98000bf0cafcc6e7210009f056faa84b390028
:102ca800186805f09bfc002808d046230022e25251
:102cb8003200002120000cf0d3feb3e79c4b290022
:102cc80018680bf0b1fcade7237a012b05d0320070
:102cd800012120000cf0c4fea4e7e388fd2bf6d008
:102ce8002278042313432370f1e7237a012b99d127
:102cf800e388fd2b00d195e7227804231343237042
:102d08003200032120000cf0abfe8be732000621d5
:102d180020000cf0a5fe20000cf0aaf982e7289b01
:102d2800587a022800d87de7d9680eaa0bf0f0fd82
:102d380000280dd1002d5dd0824b9c466544adb274
:102d4800012d60d90122042120000cf089fe69e7d9
:102d580007ae289b5b7a033bdb000eaad018022340
:102d68003200190006f0e2f91a276f44289b5b7ab3
:102d7800023bdb000eaad01802233a00190006f025
:102d8800d5f93b8898463688002d29d1237a002723
:102d9800012b14d020006030002102910191009194
:102da8000b00320004f0def96822a35a9b1ba352e1
:102db800237a012b0ad046444423e652bae7e36e4d
:102dc800bb4201d0df78e5e70027e3e7e16e0029a1
:102dd800f1d0203aa35cc9785b18db1ba354eae75f
:102de8004423e35a4345a5d100236822a352203a3d
:102df800a3549fe70022042120000cf031fe20009c
:102e080003f066fb0ee7200003f062fb0ae7237875
:102e1800db060bd4002d00d004e7237814221a42d5
:102e280000d1ffe6200006f0c1fffbe632000521d5
:102e380020000cf015feede7289b002b00d1f1e6f1
:102e48005b88289a15792e00170010373e4a93425e
:102e580015d03e4a934200d1e4e00b3a934200d0a9
:102e6800e0e6012d00d0dde6a388002b00d0d9e6ee
:102e7800221d02331900380006f058f9d2e6022361
:102e880016226a440221380006f050f9289bd968b6
:102e9800587a0eaa0bf03cfd002800d1c2e60223a6
:102ea8001a226a44022112a806f040f9a2881623c1
:102eb8006b441b889a4200d0b4e606ab9846289823
:102ec800183002234246190006f030f943461988a3
:102ed8001a236b441a88914205d01d4b1b68002b9e
:102ee80001d01c489847032d38d84622a35a06a972
:102ef80009885b1aa352002306aa12881649691882
:102f0800c900791820004c3001250095496804f063
:102f18003afd002800d17de05422a35a06a9098869
:102f28005b1aa35222781023134323707ae6c04613
:102f3800a44b002000f2ffff90fa0000092c0000cb
:102f4800b44b0020f4f1ffff070e00000b0e000049
:102f58009c4b0020d0060000ffffff1f2898203060
:102f6800022322004632190006f0e0f80023072e5b
:102f7800c2d1a36d002b12d0da781b789a4216d0f2
:102f88003023289ad15c082919d009292cd02e4b36
:102f98001b68002b00d145e62c48984742e62a4b8f
:102fa8001b68002b00d13de6294898473ae6264b96
:102fb8001b68002b00d135e62648984732e607ae55
:102fc8002c3b33801000303008aa06f0aff8289860
:102fd800383002231e226a44190006f0a7f87388c5
:102fe8005bba7380330087e707ae062333802898df
:102ff80030300a3309aa06f099f8289838300223a5
:103008001e226a44190006f091f873885bba73802f
:10301800330071e70c4b1b68002b00d102e60e4809
:103028009847ffe5022d00d0fce5012307aa0221fd
:10303800380006f07bf82898183004230eaa0221dd
:1030480006f074f8eee5c0469c4b0020140600001c
:0c305800fc0600002c07000054070000dc
:020000040000fa
:1030640070b58cb004000d0001235b420b930ba9d7
:10307400022000f029fc0d2c00d9ebe1a400ae4b9a
:103084001b599f46002d40d0286804a905f000fa7a
:10309400002802d10120404244e0686803a905f0f9
:1030a400f7f9002802d1012040423be00b98182395
:1030b400009304ab0122002107f03cf8002815d14d
:1030c4000b9803aa00210af0c1fa002813d19b4be4
:1030d4000b98012200210af065f8002810d1e9229a
:1030e4009749920000200cf05bf81be09449954a44
:1030f4000cf056f816e09249934a0cf051f811e09e
:103104008f49924a0cf04cf80ce00120404209e04f
:103114000b980023002200210af044f888498c4ac5
:103124000cf03ef80cb070bd8a490b980cf0eafc28
:103134002c7b63425c4164420f239c4320346b78b4
:10314400022b0ad0012b0cd02b78012b0dd0002b95
:1031540041d102231c43e4b209e004231c43e4b23a
:10316400f2e708231c43e4b2eee71c43e4b26b7bb2
:10317400042b36d06968002943d0774a062002f030
:10318400b3ff012800d09ae006266b78022b3ad0d0
:10319400012b49d0042e4ed070496f4810220cf0f8
:1031a4004afe002862d104ae0623338068880df0fd
:1031b400d7fa7080694b06aa43cb43c21b681360dd
:1031c4002b78012b60d0002b6dd05d49644a002020
:1031d4000bf0e6ffa6e7022bc9d140231c43e4b25f
:1031e400c5e76968002907d05b4a042002f07cff28
:1031f400012864d10426c8e7574b00221a6004262c
:10320400c3e70626c1e72b7b002b06d0fd22022153
:10321400300004f057f9a860bce706220221300010
:1032240004f050f9a860b5e711220121300004f040
:1032340049f9a860aee7484b1b68002b0bd104aedc
:103244000433338068880df08bfa708000200cf012
:10325400e3fd0590b4e704ae0423338068880df0e1
:103264007ffa70803c4b1b680593a9e704ae0623e4
:10327400338068880df074fa7080374b06aa43cb0c
:1032840043c21b6813609be7a8680023009304ab48
:103294000022210008f086fe002896d10221a868a9
:1032a40007f05cfb0be0a868009304aa210008f077
:1032b40079fe002889d10221a86807f04ffbed228e
:1032c4001f49920002200bf06bff2be72c682000b3
:1032d4000bf02aff0221200007f040fb002805d054
:1032e4001749204a00200bf05bff1be714491e4ad4
:1032f4000bf056ff16e70b980bf0e4f91b4b187014
:103304000f491b4a00200bf04bff0be7174b1b78b0
:103314002b70f4220a49920000200bf041ff01e7d0
:10332400124b19780b980cf0cbf80549114a002080
:103334000bf036fff6e6c046acf30000cdf5000016
:10334400c4000100950300009b030000a1030000da
:10335400ab030000dd400000184b00208404010092
:10336400b6030000c3030000c10300000a4a0020a2
:10337400ca030000d70300006a68002a07d02b782c
:10338400384909780b9807f0e9fd00282fd1aa687d
:10339400002a06d0334b19780b9808f09bfb0028c1
:1033a4002ad1ea68002a07d02b692e4909780b989c
:1033b40006f0baf9002825d16a69002a06d0294bfb
:1033c40019780b9808f0d6fb002820d1aa69002aa6
:1033d40007d02b7f234909780b9807f091f900282f
:1033e4001ad12149214a00200bf0dafe9ae61e493f
:1033f4001f4a0bf0d5fe95e6fb221b4992000bf009
:10340400cffe8fe618491b4a0bf0cafe8ae616491e
:10341400194a0bf0c5fe85e61349184a0bf0c0fea5
:1034240080e6174b1d601049164a00200bf0b8fec9
:1034340078e6154b1d600c49144a00200bf0b0fed1
:1034440070e60f4b1b682b600749114a00200bf0f4
:10345400a7fe67e60f49002009f0defc0120404288
:1034640060e6c0460a4a0020c40001000b040000c4
:10347400e3030000f5030000fe030000070400005e
:10348400884b002012040000b84b002019040000ef
:0834940022040000800d00007d
:020000040000fa
:10349c00f0b58db005001400002815d0002a13d00b
:1034ac008768002f10d051881279059220001030b7
:1034bc00d14bcb189eb2082e06d8b300cf4ef35882
:1034cc009f46059b012b01d00db0f0bd08aa02212f
:1034dc0005f02afe99239b00fb5c022b0cd0032bde
:1034ec002ed0042bf0d108ab1b78002becd19923f8
:1034fc009b000122fa5407e008ab1b78002b14d177
:10350c0099239b000122fa5498239b00fc58002c11
:10351c00dad09a239b00fb1899229200ba5cac215a
:10352c00890079582800a047cee799239b000322f5
:10353c00fa546033f818313200210cf05bffe3e7ea
:10354c0008ab1b78002bbfd199239b000122fa54a6
:10355c00dae7059b022bb7d108ad013b2a0002210b
:10356c0005f0e2fda64bfa182000183001230221c9
:10357c0005f0dafd2a78012313409a229200bb54fd
:10358c00a2e7059b012b9fd19e4b9c4661444b426d
:10359c0059414c1c022308aa022105f0c5fdad239c
:1035ac009b00fe58002e00d18ee708ab1b88ae2284
:1035bc009200b958009400222800b04784e7059b7c
:1035cc00012b00d080e7013308aa022105f0acfde5
:1035dc00af239b00fc58002c00d175e70433f9583d
:1035ec0008ab1a88022393429b415b425b00029317
:1035fc0000230193009300222800a04764e7059b59
:10360c00012b00d060e708ac01332200022105f049
:10361c008bfd23885a4253410233af229200bc588f
:10362c00002c00d150e70432b958029300230193c7
:10363c00009300222800a04746e7053a012a00d94a
:10364c0042e7012308aa022105f06efd2000183084
:10365c000123192202a98c466244022105f064fd63
:10366c002000203001231a2202a98c466244022138
:10367c0005f05afd00230993059b052b1ad1af23a6
:10368c009b00fe58002e26d00833fb5c002b03d089
:10369c00b1239b00fb180993e36ab0229200b9583e
:1036ac0001220292628e0192626b009208aa28009b
:1036bc00b04710e020003030022307aa022105f0a9
:1036cc0033fd200038300223162202a98c466244b6
:1036dc00022105f029fdb1239b00f81834220021aa
:1036ec000cf088fef0e6012a00d8ede60123162244
:1036fc0002a98c466244022105f016fd02ab9b7dab
:10370c002a2b00d9c3e002ab9b7d9b003e4ad358c9
:10371c009f462000183001233c4aba18032105f0bb
:10372c0003fd002800d1cfe6b1239b000122fa54ff
:10373c00cae6b2239b00fa18200018300423032198
:10374c0005f0f2fc0028efd1bee6b5239b00fa1879
:10375c00200018302023052105f0e6fc002800d1bc
:10376c00b2e6bd239b000022fa54dde7b3239b0095
:10377c00fa18200018300423032105f0d5fc00288a
:10378c00d2d1a1e69b239b00fa1820001830042309
:10379c00032105f0c9fc97e61d4bfa1820001830e0
:1037ac003023052105f0c0fc8ee69d239b00fa1802
:1037bc00200018300223032105f0b6fc84e6154bdb
:1037cc00fa18200018300223032105f0adfc7be62b
:1037dc009f239b00fa18200018300123032105f0c9
:1037ec00a3fc71e69e239b00fa18200018300123dd
:1037fc000a2105f099fc67e600f8ffff64a50000bc
:10380c0069020000fcf7ffff88a50000c50200005c
:10381c007d02000076020000059b032b00d053e6ce
:10382c00bf239b00fb58002b00d14de6e2690892a8
:10383c00628b0992626a0a92628c0b9208a9280028
:10384c00984741e69c239b00fa182000183004236b
:10385c00032105f069fc37e6154bfa1820001830e7
:10386c0001230a2105f060fc2ee6124bfa18200009
:10387c00183001230a2105f057fc25e60e4bfa18e7
:10388c002000183001230a2105f04efc1ce60cf038
:10389c0021ff032800d817e60cf016ff162302aa06
:1038ac00944663441a78054909f0b2fa0ce6c0460e
:1038bc00790200007a0200007b020000600a00001e
:020000040000fa
:1038cc0070b582b00c00152800d9fae18000ce4bff
:1038dc001b589f4600230b60cc4b18680cf082f9e8
:1038ec002060cb49cb4a00200bf056fc02b070bdd7
:1038fc00c94b1b68013304d0c74b1b6823600020e5
:10390c00f4e70021002008f073fdc34b1860013070
:10391c00f2d1c249002009f07bfada22bc499200ac
:10392c0000200bf039fce1e7bb4b1b680b6000205f
:10393c00dce7bb49b84b18680af058f9b449b94ae6
:10394c000bf02afcd2e7b44b186809f027fa0028d0
:10395c0011d1b14b1868012109f0caff00280fd111
:10396c00ad4b1868012109f093ffe322a84992009e
:10397c000bf012fcbae7a649ab4a0bf00dfcb5e70d
:10398c00e222a34992000bf007fcafe7a749a24b38
:10399c0018680cf09ff800280dd1a54ba54aa64934
:1039ac009d480068a54c009401f0fafd9849a44a82
:1039bc000bf0f2fb9ae79649a24a0bf0edfb95e768
:1039cc00954b186809f0c4ff91499f4a0bf0e4fb32
:1039dc008ce7914b186809f0cdfd00280bd18e4b6c
:1039ec00186800230022002109f0d8fb8849974a67
:1039fc000bf0d2fb7ae78649954a0bf0cdfb75e7c5
:103a0c0009788d480cf052f88149924a0bf0c4fbae
:103a1c006ce789480af0e6ff7d498f4a00200bf0dd
:103a2c00bbfb63e7824b621e94411c7478498b4a42
:103a3c0000200bf0b1fb59e748680cf07bfb06004b
:103a4c007d480bf048ff051e05d07149844a2800bb
:103a5c000bf0a2fb4ae777480cf0b0fa051ef4d144
:103a6c00f2b2616874480af09bfe051eedd1237b0f
:103a7c00052b34d89b007b4ad3589f466d480cf0dd
:103a8c000bfd05002378002b2ed1637b002bdcd0a3
:103a9c006649614c20680cf01df8654b654a664917
:103aac0066480090206801f07bfd0500cde70321fe
:103abc0020000cf08df90500e4e7022120000cf049
:103acc0087f90500dee7042120000cf081f90500e0
:103adc00d8e7052120000cf07bf90500d2e76249fc
:103aec00002009f095f9b0e7012baed1a17b52482b
:103afc000bf0dcff051ea8d14d4e30000cf048f940
:103b0c00e37b3374a1e74a4b4a4a4b49424800686d
:103b1c00564c009402f0d4f9f5223d4992000bf07a
:103b2c003bfbe3e64b883c4a1068002200920021e4
:103b3c0004f0f0fd00280ed12178374b18684c4b5f
:103b4c0000930023002204f091f8f92230499200ee
:103b5c000bf022fbcae62e49464a0bf01dfbc5e6cc
:103b6c000cf0eafd444b00221a700cf0e9fd2178b0
:103b7c00294b18683e4b00930023012204f076f881
:103b8c0023493e4a0bf008fbb0e600290fd0080091
:103b9c000cf0d0fa3a4bc2b21f490868210006f06b
:103bac003bffff221a4992000bf0f6fa9ee61849e9
:103bbc00344a02200bf0f0fa98e6334a164b186898
:103bcc00022107f035fc1249304a0bf0e5fa8de67c
:103bdc000b78002b09d0104b1868012109f0e8fe76
:103bec000b492b4a0bf0d8fa80e60b4b18680021d6
:103bfc0009f0defef4e7274b5960002076e6254bf2
:103c0c001960002072e6c04688d20000284b0020c4
:103c1c00e80101005d030000e44b0020ac0f000044
:103c2c0091ce00007903000082030000ddda000071
:103c3c00e04a0020d4480020e04900201df4000098
:103c4c009a03000096030000a1030000ae030000dd
:103c5c00aa030000b6030000be030000c603000068
:103c6c00cd030000e0d20000d40f000017020100c9
:103c7c0025df0000df0300000b4a0020ef030000eb
:103c8c0001f60000f70300009db7000003040000dc
:103c9c0012040000904b00200d4b18680d4b009344
:103cac0064230a00012107f0bbfa0b490b4a0bf005
:103cbc0073fa1be60a4b1a680a605b684b600020bb
:103ccc0014e60849002009f0a3f8012040420de653
:103cdc00e44b0020e9bd0000e80101002a040000cb
:083cec00904b00200c100000b9
:020000040000fa
:103cf40070b582b000280bd08568002d08d0022b47
:103d040008d0032b5fd0012b02d110000bf0f8f880
:103d140002b070bd069b002bfad01b88069a51880e
:103d2400f022520193422ed016d8c0229200934220
:103d340022d0d02252019342ead1c9b2002902d141
:103d44003c230122ea54826868230021d154eb6e9b
:103d5400002bddd09847dbe7842292019342d7d130
:103d64007023eb56013312d07023fd22ea546b6f9b
:103d7400002bcdd0002122e0c9b20029c8d12423d0
:103d84000122ea54c4e739230022ea54c0e7782325
:103d9400ea5c0023002a0bd084239b01994200d1c2
:103da40089e1c74b994200d187e14b4259414bb25b
:103db4007022ab546b6f002baad081687031984786
:103dc40000236b67a4e7069b002ba1d05b88069aaf
:103dd4001279140006981030e82149018b4200d171
:103de4002fe11ed9f02149018b4200d184e08421c6
:103df40089018b4200d08be7012a00d888e72a008a
:103e040071320123022105f093f92a0072320698d7
:103e140018300123022105f08bf97023ff22ea54a4
:103e240076e7c02189008b421ed0d02149018b4204
:103e340000d06de7012a00d86ae701ae04233200fe
:103e4400042105f075f933880e2b73d00f2b7ad02b
:103e5400012b00d0e8e02a004032069818300333e2
:103e6400022105f065f953e7022a00d050e76b46ba
:103e7400dc1c01232200022105f05af923780d2bc2
:103e840024d00cd80a2b15d00b2b28d12a002a3287
:103e9400069818300223062105f04af938e70e2b5c
:103ea4001dd12a003432069818300423062105f067
:103eb4003ff92de706981830042301aa022105f0e2
:103ec40037f9019b1a0cea842b8521e72a002c324e
:103ed400069818300523062105f02af918e70cf096
:103ee400fdfb032800d813e70cf0f2fb6b46da78ed
:103ef400744908f091ff0be7022a00d808e70698f6
:103f04002030042301aa022105f012f9019bc022ea
:103f1400d205934206d06c4a934207d0382301223b
:103f2400ea54f5e638230222ea54f1e63823032260
:103f3400ea54ede62a00443206981830012302219f
:103f440005f0f6f8e4e6032c00d8e1e601ab022222
:103f54009a5e012a00dddbe612014832aa180698af
:103f640018300423022105f0e3f801ae0223f25ec7
:103f740012014c32aa18069820300423022105f0bd
:103f8400d7f80223f25e05321201aa1806982830e7
:103f94000423022105f0ccf8042c07d80222b35ed6
:103fa4001b01eb185433ff221a70b1e66b46dc1c7c
:103fb4000698303001232200022105f0b9f8237855
:103fc400022b1fd00ad8002b13d001ab02229b5e18
:103fd4001b01eb18543301221a7099e6032b1ad1f2
:103fe40001ab02229b5e1b01eb18543303221a70af
:103ff4008ee601ab02229b5e1b01eb1854330022b8
:104004001a7085e601ab02229b5e1b01eb18543348
:1040140002221a707ce601ab02229b5e1b01eb18a4
:104024005433ff221a7073e60cf058fb032800d8af
:104034006ee60cf04dfb01ab1a88244908f0ecfe47
:1040440066e6022a00d063e601ac012322000221c5
:1040540005f06ef82378022b0dd0032b15d0012b1d
:104064001cd1cc239b00ea180698183004230221a3
:1040740005f05ef84ce6cb239b00ea18069818304e
:104084000223190005f054f842e6114bea18069889
:1040940018300223190005f04bf839e60cf01efb2a
:1040a400032800d834e60cf013fb01ab1a78094955
:1040b40008f0b2fe2ce602237ae6032378e6c04633
:1040c400012100009808000000000f60b008000003
:0840d4002e030000c8080000e3
:020000040000fa
:1040dc00f0b58db00e0017001a00c448002403e0a0
:1040ec0001344c300a2c12d00579002df8d001681f
:1040fc008e42f5d1be4b1d68062f11d0002a15d16a
:10410c000394082f10d8bf00ba4bdb599f46b84b0d
:10411c001d68062f04d0b849002008f079fe03e092
:10412c00002208213000a8470db0f0bdb3493b0078
:10413c00002008f06dfe30000af0f2ff0221300082
:10414c0006f008fcf0e7ae4b4c2203994a439b184f
:10415c001a8d002a47d0aa4b4c21039841435b1877
:10416c009b7a590600d498e0042a6fd04c23634301
:10417c00a44a9b18a44aa1caa1c3190013680b60d6
:10418c009f4a4c21039b4b43d318188d9881588d13
:10419c00d8814c4321000c3189181c22300002f0cc
:1041ac0003ff01305cd0964b4c2203994a439b1879
:1041bc001b8d042b60d005ab944aa4181a0083cc39
:1041cc0083c22168116000221a611432009200210e
:1041dc00300000f035f98a4b4c2203994a439b1866
:1041ec0001225a72a0e74c216143894bc9181c3239
:1041fc00300002f0d9fe013017d0814b4c220399cc
:10420c004a439b189b7a5b071bd47d4b4c2203992a
:10421c004a439b189b7a1b0700d485e7784b4c22aa
:10422c004a439b1801225a727ee77a49002008f013
:10423c00effd30000af074ff0221300006f08afb1b
:10424c0072e70221300004f0ddfddee700200bf008
:10425c00dffd6b4b4c2203994a439b1818618fe787
:10426c006c49002008f0d4fd30000af059ff0221ff
:10427c00300006f06ffb57e7674b1a5905921c3b51
:10428c001b590693002307930c33009305ab232291
:10429c000021300000f0d4f89de79b061ed45f4b44
:1042ac0000221a604c2161435d4bc9181c3230004e
:1042bc0004f08cfc013000d036e7584b1b68962b71
:1042cc0000d131e75749002008f0a2fd30000af078
:1042dc0027ff0221300006f03dfb25e7524b04225c
:1042ec000092033afd21300000f0aaf8002803d117
:1042fc004e4908f08dfdd2e7484b1a684c49002016
:10430c0008f086fdcbe73e4b4c2203994a439b18a1
:10431c009b7a5b0600d507e74649002008f078fd3c
:10432c0002e71c2304933d4b00221a6004aa05a942
:10433c00300006f01dff431c0dd1384b1b680b2bb6
:10434c0000d1f1e63c49002008f062fd022130006a
:10435c0006f000fbe8e64c2122004a430c32284bc5
:10436c00d218039c61435b18997a0023009305ab28
:10437c0007f014fe002801d001234372002207210c
:10438c003000a847d0e61e4b4c2203994a439b1899
:10439c009b7a9b0600d5c7e6194b4c224a439b18c7
:1043ac0001225a72002200213000a847bce62349a2
:1043bc00002008f02dfd124b4c2203994a439b1808
:1043cc0001225a72002201213000a847ace60022db
:1043dc0003213000a847a7e6002204213000a8479b
:1043ec00a2e6002205213000a8479de610420020dd
:1043fc00884b002080fc0000380c0000580c00009a
:10440c000c42002020420020840401003c42002089
:10441c0018420020880c000038420020cc4b0020b1
:10442c0034420020f00c00000a4a0020b00c0000be
:10443c00cc0c0000200d0000400d0000580d0000b9
:020000040000fa
:10444c00f0b5d6464f464646c0b582b00f001600b2
:10445c009846b94ce40fe40704432ed02378db07cd
:10446c0031d58021b54b1868490005f03ffb8146da
:10447c0000282ed0b24b802100940222490009f072
:10448c00adf8051e2bd0002f4bd1142e00d121e1fd
:10449c00232e00d15ce1012e00d0dde00a9b042b21
:1044ac0000d0e4e0a1880023019343461b680093ed
:1044bc000223202208f038fc4ee0a24b09221a609d
:1044cc000120404252e09f4b0e221a6001204042d4
:1044dc004ce09c4b0c221a600120404246e0974b6a
:1044ec00186849460af09ef8964b4d221a60012036
:1044fc0040423be0a3896326042b00d0ade0434649
:10450c0018680bf085fc000f0e2800d0b1e0c246f5
:10451c0020002c30042241460bf062ff04275b3e46
:10452c00f5e0894b9f4227d0062f00d181e0fd2f6b
:10453c0000d0b8e0e388fd2b00d0b6e0012e00d00f
:10454c00b5e00a9b042b00d0b3e0033b63704346f9
:10455c001a78a18809f03cf97c4b1868290004f002
:10456c003bf803000020002b00d1a8e002b0e0bc17
:10457c00ba46b146a846f0bd092e3ed019dd0d2e27
:10458c0049d0642e29d10a9b042b00d081e04346ec
:10459c001b68dab2022a00d97de003221a405201cc
:1045ac00237860218b4313432370210007f0cafd4d
:1045bc00d2e7072e13d0082e0dd10a9b042b62d103
:1045cc00a1880023019343461b6800930223042215
:1045dc0008f0aafbc0e763263fe063263de00a9b98
:1045ec00042b4ed1a1880023019343461b680093f2
:1045fc000223052208f098fbaee70a9b042b44d15a
:10460c00a1880023019343461b68009302230322d5
:10461c0008f08afba0e70a9b042b38d1a188002361
:10462c00019343461b6800930223012208f07cfb94
:10463c0092e7237a022b30d1012e30d10a9b042b26
:10464c002fd1a1880023019343461b6800930223ba
:10465c00022208f069fb7fe76326384b186849464d
:10466c0009f0e0ff374b1e60012040427ee7162622
:10467c00f3e71626f1e76326efe71626ede70c269f
:10468c00ebe71626e9e71626e7e71626e5e71626f2
:10469c00e3e71626e1e71626dfe76326dde7632668
:1046ac00dbe71626d9e76326d7e76326d5e763262b
:1046bc00d3e71626d1e76326cfe76326cde71f4b5a
:1046cc001868494609f0aeff1e4b4d221a600120b6
:1046dc0040424be74346002bedd0200028301c22f3
:1046ec0000210bf087fe0a9b6326142bb5d1a389fe
:1046fc00062bc0d143461b78ff2bbed1c2462000ef
:10470c003030102241460bf06bfe10270926a3898e
:10471c002385e3896385200003f0f2f90028aed0ed
:10472c00a188e3895bba9bb2019300975346320090
:10473c00280008f08bfc0fe7b8470020a44b0020a2
:10474c00092c0000cc4b0020ffff0000b44b0020d4
:10475c004346002bb1d0200028301c2200210bf046
:10476c0049fe0a9b0c2b00d1c4e6632675e7c046b4
:020000040000fa
:10477c000023f0b51600b1b0039007910493079d88
:10478c002b78002b00d1cfe001235b420c9310abb4
:10479c0000240e9380230b940d940f932b5d002b10
:1047ac0001d0252b30d1002c06d0290022000398f3
:1047bc002d190bf02af90795079b1a78252a00d09a
:1047cc00a7e001331800002105930793243a0378de
:1047dc002b2b25d02dd8202b25d0232b26d00029d0
:1047ec0000d007902a2b2cd00af05cfa01250d90f2
:1047fc000020079a11000b780132303b092b64d949
:10480c0000282dd007912be00134c7e701230b9929
:10481c000b430b9311000130d9e702230b99f7e7f7
:10482c0004230b99f4e708230b99f1e710230b9958
:10483c00eee72d2bead0302befd00029d4d0079007
:10484c00d2e7336801301a1d1b68079032600d9354
:10485c00002b05da01220b995b424a400b920d9317
:10486c000b9bda0702d5022293430b93079b1a7812
:10487c002e2a0dd100270c975a785d1c07952a2af1
:10488c0025d10233079333681a1d1b6832600c93d1
:10489c0007a80af0e3fe079d070028780bf099fea5
:1048ac00252800d1d5e06138172800d9dbe00bf0c2
:1048bc00bffd1fdab63ea6a6a6da3edadadada9c35
:1048cc005e7fdadac6da4edada6e280092e7280072
:1048dc000af0e8f901210c902a0013780135303bdd
:1048ec00092b03d9002fd3d00792d1e70f00f3e7a0
:1048fc003200390008a80af0fafd002800d17be04c
:10490c006b1c079303982b7808aa0ba9fdf7acfa3c
:10491c002418049b1c19a34200dcb0e04f22594b15
:10492c001a6001235b420493049831b0f0bd33004c
:10493c000122390008a805f067fc00285cd001357d
:10494c00039808aa0ba9079506f022fee0e73300ae
:10495c000022390008a805f057fc00284cd001357e
:10496c00039808aa0ba9079509f085fbd0e733003b
:10497c000022390008a805f047fc00283cd001357e
:10498c00039808aa0ba9079508f0e8fcc0e73300c8
:10499c000022390008a805f037fc00282cd06b1c2d
:1049ac0007932b78039808aa0ba903f04bffafe7ea
:1049bc0033000022f02108a805f026fc00281bd0ab
:1049cc00089b099a0135079513430cd12e4d2800ed
:1049dc000bf0b0fb290002000b9b00930d9b03987e
:1049ec0008f07af894e77823dce7049b39001a196d
:1049fc0008a8330008f0e7f80135079589e732007d
:104a0c00390008a80af073fd0028f5d06b1c079339
:104a1c0003982b7808aa0ba9fcf7aeff78e7802f38
:104a2c00ead1336801351a1d1b68326008aa13706d
:104a3c000123079503980ba909f0bcfc68e7802fac
:104a4c00dad132680135131d3360126800230795e3
:104a5c00f0e7802fd0d10b9b0135009301220b493d
:104a6c000d9b0795bbe7059b012207930023524240
:104a7c000c9206490b930d9300930232afe704940a
:104a8c007de6c046cc4b00205cfd000062fd0000c2
:020000040000fa
:104a9c0010b59c4b1a78172a0ed893009a4ad35803
:104aac009f460bf02ff90af0dbf8984900200af02a
:104abc0053fd944b01221a7010bd95490020fef74e
:104acc00fffe0028f8d18f4b02221a70f4e78d4bb1
:104adc001b7a5bb2022b03d08a4b01221a70ebe7d4
:104aec00884b03221a70e7e78a490120fef7e8fe9b
:104afc00002803d0834b17221a70dde786490af091
:104b0c002bfd804b04221a70d6e784491320fef744
:104b1c00d7fe0028d0d182490af01efd794b052220
:104b2c001a70c9e77f49072001f0b8f80028c3d1f3
:104b3c007d490af011fd734b07221a70bce77b49c3
:104b4c000420fef7bdfe0028b6d179490af004fd19
:104b5c006c4b08221a70afe776490520fef7b0fec1
:104b6c00002803d0674b17221a70a5e772490af088
:104b7c00f3fc644b09221a709ee7624b1b7b002be3
:104b8c009ad06e4900200af0e7fc5e4b0a221a709c
:104b9c0092e75c4b5b7b002b00d18de768490020d2
:104bac000af0dafc574b0b221a7085e7554b9b7bae
:104bbc00002b00d180e7634900200af0cdfc514b5b
:104bcc000c221a7078e700210320fef779fe0028ea
:104bdc0000d071e75c490af0bffc4a4b0d221a70f9
:104bec006ae7484bdb7b002b00d165e75749002077
:104bfc000af0b2fc434b0e221a705de754490020b8
:104c0c0001f04cf8002800d056e752490af0a4fcf9
:104c1c003c4b0f221a704fe74d49012001f03ef832
:104c2c00002800d048e74c490af096fc354b10227e
:104c3c001a7041e7334b1b7c002b00d13ce74749f2
:104c4c0000200af089fc2f4b11221a7034e72d4bef
:104c5c005b7a002b00d12fe7414900200af07cfc45
:104c6c00284b12221a7027e700211220fef728fe8b
:104c7c00002800d020e73b490af06efc214b1322a0
:104c8c001a7019e70bf050f8374900200af064fc51
:104c9c001c4b14221a700fe73449062000f0feff5b
:104cac00002800d008e732490af056fc154b1522b3
:104cbc001a7001e7134b9b7c002b00d1fce6114cc6
:104ccc000023a3742b4900200af046fc1623237002
:104cdc00f2e601211220fef7f3fd002800d0ebe6ee
:104cec00084c0123a37224490af036fc11232370cb
:104cfc00e2e6224900200af02ffc024b11221a7026
:104d0c00dae6c046044500203cdb0000d010000071
:104d1c000c45002008450020ec1000007dc8000068
:104d2c00101100007ddf0000401100007011000028
:104d3c0080110000384b0020a8110000c8110000a1
:104d4c00f01100001c120000481200006812000054
:104d5c00704a002090120000b0120000d412000023
:104d6c0004130000201300004c1300008c4800209a
:104d7c007c130000a0130000c8130000f8130000ff
:020000040000fa
:104d8c00904a00201c000000000000002c4a00206b
:104d9c000400000000000000984b002004000000fc
:104dac0000000000ac4a00201c00000000000000c5
:104dbc009c4b002004000000000000002c47002049
:104dcc008c00000000000000a04b0020040000003c
:104ddc0000000000d84b00200c0000000100000077
:104dec0000000000000000000000ffff084b002046
:104dfc001000000000000000a44b00201000000078
:104e0c0000000000b84700208400000000000000f3
:104e1c00b44b00200400000000000000a83e00205d
:104e2c006403000000000000c84a002018000000c5
:104e3c0000000000003000206708000000000000a7
:104e4c000c4a00202000000000000000304a002026
:104e5c004000000000000000d8450020c000000009
:104e6c0000000000484b00200c0000000000000077
:104e7c006738002001000000000000008849002075
:104e8c002c000000000000000000002000200000aa
:104e9c000000000018490020400000000000000045
:104eac00544b00200c0000000000000017490020ab
:104ebc000100000000000000094a00200100000071
:104ecc000000000000200020001000000000000086
:104edc00604b00200c00000000000000784b00200c
:104eec001000000000000000184b00201000000013
:104efc00000000000a4a0020010000000000000031
:104f0c000c420020f802000000000000b84b00200a
:104f1c000400000000000000884b00200800000086
:104f2c0000000000d64b0020020000000100000031
:104f3c00010000006838002040060000000000005e
:104f4c00584900203000000000000000d54b002024
:104f5c00010000000100000001000000904b002047
:104f6c000800000000000000e04a002014000000cf
:104f7c00000000000b4a00200100000000000000af
:104f8c00e04900202900000000000000d448002067
:104f9c004300000000000000e44b0020040000006f
:104fac0001000000ffffffff284b00201000000055
:104fbc0000000000f44a0020140000000000000073
:104fcc008c4800204800000000000000704a0020bf
:104fdc002000000000000000384b002010000000f2
:104fec000000000004450020d40000000000000078
:104ffc00984600209400000000000000d44b0020d4
:10500c000100000000000000bc4b0020100000005c
:10501c0000000000e84b002004000000010000002c
:10502c0001000000cc4b0020040000000000000038
:10503c003c4800205000000000000000b449002053
:10504c002c00000000000000d04b002004000000e9
:10505c00000000006c4b00200c0000000000000061
:10506c000000000000000000666666666666666604
:020000040000fa
:10507c00f0b5c64600b598b0041e08d0022b0ad075
:10508c00032b51d0012b02d1100009f035ff18b0c1
:10509c0080bcb846f0bd1e9b002bf8d01a885d88ea
:1050ac008368002bf3d0e0235b019a42efd11e9b67
:1050bc00587a0128ebd9d96804aa09f027fc0028f2
:1050cc00e5d003ae04233200042104a804f02cf82c
:1050dc0031880a2909d00b001e3b9bb2042bd6d871
:1050ec0006aa200004f024f9d1e7a368d322920089
:1050fc009e58002ecbd0edb2002d07d00021995038
:10510c0000910b000a002000b047c0e71e9a527aab
:10511c00022abcd1d32292000021995032000131d5
:10512c00200006f085f9b2e71e9b002bafd08368f8
:10513c00002bacd0e0235b011e9a52889a42a6d178
:10514c001e9b1b79022ba2d103ad1e98103002338b
:10515c002a00042103f0e8ff29880b000a3b9ab2cd
:10516c00182a00d9d3e093006f4ad3589f46a368fe
:10517c0088229a5c04ae002a01d17e331e00771c73
:10518c001e98183006233a00052103f0cdffc3b258
:10519c0098463370002b00d179e7a5688823eb5c27
:1051ac00002b00d173e7c2b229007f3138000af01e
:1051bc003efe002803d17e23eb5c434514d028002f
:1051cc007e300a2200210bf015f9a0687f3032786e
:1051dc0039000bf005f9a26831787e23d154a2680e
:1051ec000a330021d15452e7d3239b00ea58002103
:1051fc00e9500131200006f01bf948e7a268d323df
:10520c009b00d358002b00d141e703ab02215b5e1e
:10521c00013334d004ad0023049305932b811e98e5
:10522c001830063311226a44052103f07dffc0b209
:10523c002870002800d12ae703ab02255d5fa66821
:10524c007d23f75cbd4200db21e7062231007f3174
:10525c00112068440af0ebfd0023984204d19633e8
:10526c00f25a04ab1a810123691cc9b204aa009238
:10527c00d3229200b5583a002000a84707e77d32a8
:10528c001e9818300123022103f04effffe6a2689e
:10529c0096321e9818300223190003f045ffa368bc
:1052ac009622995a103a9952a36802329a5c002ab3
:1052bc0000d0ece6d32292009d58002d00d1e6e6fa
:1052cc0000219950a3687e33009301231a00190022
:1052dc002000a847dbe6a268d4239b00d358002b00
:1052ec0000d1d4e61e981830012304aa022103f041
:1052fc001bffa268d4239b00d35804a92000984715
:10530c00c5e61e9a1832200004f012f8bfe60bf026
:10531c00e1f9032800d8bae60bf0d6f903ab1a88ea
:10532c00024907f075fdb2e6b4d600007c0b000014
:020000040000fa
:10533c00f0b5d6464f464646c0b586b004000d00c3
:10534c0017001e00411e033100d900e18368984606
:10535c00002b00d1fde0002e00d1fce08378002b67
:10536c0000d1fae0002a00d10ae110000af0e2feb6
:10537c008146002d00d185e06b68002b6dd0972203
:10538c00920041468a5c032a00d1ede04a46002a8d
:10539c0003d15b88002b00d1e8e07f4a0e992031c5
:1053ac00494423000b2009f025fd8046002800d13c
:1053bc00dee00022002106f039fe6b68002b1dd0c8
:1053cc005b78002b77d16b685b68002b00d07fe09b
:1053dc006b685b88002b0dd0002f0bd00022009245
:1053ec0003322321404608f071fe0122232140465e
:1053fc0006f01cfe6b681a7c002a76d1a3689722f3
:10540c0092009a5c052a00d184e0002f00d18de037
:10541c00ab786a7829780e980490039648460290e7
:10542c00019705200090404606f00af9a068414615
:10543c0009f01ef9002800d1a0e0119b002b01d02f
:10544c0042461a60a268ad239b000f99d150a26806
:10545c0004331099d150002080e0002f00d189e056
:10546c004d4a0e9bc1182300032009f0c3fc804653
:10547c0008204346002b71d000220021404606f044
:10548c00d5fd9ae7444a0e9bc1182300032009f06e
:10549c00b1fc8046002800d16ee00022002106f00d
:1054ac00c5fd002d89d1a368972292009a5c052a2c
:1054bc002fd03a4dace70022009203320121404636
:1054cc0008f004fe01220121404606f0affd7ae708
:1054dc000022009203320221404608f0f7fd01221f
:1054ec000221404606f0a2fd72e7102292469a4431
:1054fc00202150460af02afe009053460522032133
:10550c00404608f0e3fd01220321404606f08efde3
:10551c0074e7224dbe2292009b5c002b00d174e7f5
:10552c0001222621404606f081fd6ee7ab786a78b1
:10553c0029780e98049003960020029068684088a1
:10554c00019003200090404606f07af86ee70220a6
:10555c0004e0022002e0022000e0012006b0e0bce2
:10556c00ba46b146a846f0bd0220f7e70220f5e79f
:10557c000820f3e70220f1e70820efe70820ede729
:10558c000220002dead06b6800229146002b00d03f
:10559c00f5e60220e2e7c046ddb200002c07010070
:020000040000fa
:1055ac00f0b5d6464f4680b58bb004000d00160002
:1055bc000393431e033300d90ae18368002b00d107
:1055cc0008e18278002a00d106e1002900d1c6e06a
:1055dc000021280008f04cfe002800d103e1002e29
:1055ec0000d0c4e02823eb5c9a46002b08d0a268bc
:1055fc009623d35a5246013a1341db0700d4f4e008
:10560c00a36879229a5c002a00d0f0e07a329f5c81
:10561c00002f00d0ede0039a002a00d1b5e01378fa
:10562c00012b00d9e7e0137a022b00d9e5e0774a89
:10563c00230000210b2009f0ddfb8146002800d15e
:10564c00dde02023eb5c00932b00052201210af006
:10565c006ffc0023009353460222042148460af0b3
:10566c0067fc2723eb5c002b00d197e02b00213348
:10567c00062200920532052148460af059fc002efc
:10568c0000d19be00023f35600220092023202214b
:10569c0048460af04dfcb278002a00d086e07278b9
:1056ac000223d10703d45208013b5a401340002275
:1056bc0000920332322148460af03afc039b002b3d
:1056cc0021d05b68002500950322072148460af08b
:1056dc002ffc039b1b7800950322082148460af0f7
:1056ec0027fc039b1b7a00950322092148460af0ec
:1056fc001ffc039b197801955b7800930a231422f5
:10570c00484607f0d6fa0121484608f065ffa06824
:10571c00494608f0adff002800d172e0a268c12311
:10572c009b001299d150a2687a230121d154a2680e
:10573c0022330239d150a2680c330021d154002eef
:10574c0044d000217156a268a723d154a268013b12
:10575c000021d154a26804330131d1523de0002e16
:10576c000dd00021002008f083fd00284bd0300024
:10577c0008f05ef8002800d034e709272de0c1229c
:10578c00920012999950002727e005a80af03cfadc
:10579c00002800d04be705ab039348e700230093a8
:1057ac000b22052148460af0c3fb68e7f31c009264
:1057bc000522032148460af0bbfb70e70023009347
:1057cc000222022148460af0b3fb77e70021bae730
:1057dc00022702e0022700e0012738000bb0c0bc12
:1057ec00ba46b146f0bd0927f7e70227f5e70827c7
:1057fc00f3e70827f1e70227efe70227ede7082791
:10580c00ebe70827e9e70927e7e7c046d5020100df
:020000040000fa
:10581c00f0b5de4657464e464546e0b593b08b464e
:10582c000292914a1268002a00d103e10ea90122ca
:10583c0052420e920f920a818a72040e70210c4011
:10584c009b00dfb2c3039b0f9a46c609f6b2400019
:10585c00c3b205936b3911200aab9c4660440af025
:10586c007eff01231843c3b206933d0057468023a5
:10587c009b00029a9a4234d9520a92b2f93bff3bee
:10588c0001218946490288460ea8752141703b4387
:10589c002b432343f5390b438370c670d305db0fc1
:1058ac0005990b4303714271069b83716e4b1b6808
:1058bc000b220aa99847002800d1bde00aab1a7a3e
:1058cc0012025b7a134300d0cbe04a46002a11d077
:1058dc00fc22d2b20492a14607970896aa460993d5
:1058ec0056e0029a93b29846d205d20d00230021bd
:1058fc008946c9e7fe22ece70eacfe2363704246f4
:10590c00594612200aab9c4660440af069fd434696
:10591c00e31800229a70da704346da1d524b1b686a
:10592c000aa920009847002800d187e0019a1300ab
:10593c000aa98c4663441b791f251d400395951db0
:10594c004b5d002b16d164242f006744464e336800
:10595c000122390000209847002871d0013c0aab85
:10596c005b5d002b04d1002cf1d1039b99464de0db
:10597c00002c52d0039b052b4dd1019b9c46e3443c
:10598c00029ad31a1a00029380239b009a4247d39f
:10599c0043460193042bafd90ea8049b4370324ba2
:1059ac001b6802220021984700284bd02e4b1b6805
:1059bc00019a002158469847002845d00eab00228a
:1059cc005a719a71284b1b6805320aa915200c00d4
:1059dc008c4660449847002838d0a3781f251d407a
:1059ec0003952379002bc5d164241f4e3368012203
:1059fc000ba90020984700282ad0013c0aab1b7940
:105a0c00002bb5d1002cf1d1039b9946ff2000024d
:105a1c004d4605431de09946f8e7039b9946f5e78b
:105a2c004c46079f089e5546099b002a00d01ee74e
:105a3c001d000ee0ff250ce0ff250ae0ff2508e025
